:020000040800F2
:1000000000000220A9A20008317100083371000825
:1000100035710008377100083971000800000000D0
:100020000000000000000000000000003B7100081C
:100030003D710008000000003F7100084171000898
:10004000F9A20008F9A20008F9A20008F9A2000824
:10005000F9A20008F9A20008F9A20008F9A2000814
:10006000F9A20008F9A20008F9A20008F9A2000804
:10007000F9A20008F9A20008F9A2000849710008D5
:10008000F9A20008F9A20008F9A20008F9A20008E4
:10009000F9A20008F9A20008F9A20008F9A20008D4
:1000A000F9A20008F9A20008F9A20008F9A20008C4
:1000B000F9A2000859710008F9A20008F9A2000885
:1000C000F9A20008F9A20008F9A20008F9A20008A4
:1000D000F9A20008F9A20008F9A20008F9A2000894
:1000E000F9A20008F9A20008F9A20008F9A2000884
:1000F000F9A20008F9A20008F9A20008F9A2000874
:10010000F9A20008F9A20008F9A20008F9A2000863
:10011000F9A20008F9A20008F9A20008F9A2000853
:10012000F9A20008F9A20008F9A20008F9A2000843
:10013000F9A200080000000000000000F9A2000879
:10014000F9A20008F9A20008F9A2000869710008E4
:10015000F9A20008F9A20008F9A20008F9A2000813
:10016000F9A20008F9A20008F9A20008F9A2000803
:10017000F9A20008F9A20008000000000000000039
:08018000F9A20008F9A2000831
:1001880053B94AB9002908BF00281CBF4FF0FF31F6
:100198004FF0FF3000F00CB8ADF1080C6DE904CE5B
:1001A8000AF0E2F8DDF804E0DDE9022304B0704764
:1001B800704700BF10B5054C237833B9044B13B111
:1001C8000448AFF300800123237010BD18010020FC
:1001D8000000000068A6000808B5034B1BB10349DE
:1001E8000348AFF3008008BD000000001C01002098
:1001F80068A6000808B50A464FF4FA6301460248A3
:1002080005F027FD08BD00BF4004002008B50A46D8
:1002180041F288330146024805F026FF08BD00BFB9
:100228004004002010B582B066238DF8043099236D
:100238008DF80530094C00221021204603F050F8B3
:10024800022101A8FFF7D6FF01221021204603F062
:1002580047F8642002F008FB02B010BD0008024015
:1002680010B582B006238DF80730094C0022102102
:10027800204603F035F801210DF10700FFF7BAFF1A
:1002880001221021204603F02BF802B010BD00BF58
:100298000008024070B582B00C46154603238DF85D
:1002A8000430030C8DF80530030A8DF806308DF8FC
:1002B80007000C4E00221021304603F011F80421EB
:1002C8000DEB0100FFF796FF41F28833AAB22146F1
:1002D800054805F0C9FE01221021304603F000F858
:1002E80002B070BD000802404004002030B583B061
:1002F80005238DF8073002F0B1FA0546114C0022AB
:100308001021204602F0ECFF01210DF10700FFF754
:1003180071FF01210DF10600FFF778FF012210217E
:10032800204602F0DDFF02F099FA401BB0F5FA7F93
:1003380005D89DF8060010F00100DFD100E001208B
:1003480003B030BD0008024070B5C2B005460E4685
:10035800FFF786FF2B0201AC02228DF804202A0A3F
:100368008DF805208DF806508DF807304FF480720F
:10037800314602A809F0EAFF094D0022102128465B
:1003880002F0AEFF4FF482712046FFF733FF0122DF
:100398001021284602F0A4FFFFF7A8FF42B070BD65
:1003A8000008024010B582B00446FFF759FF202329
:1003B8008DF80430230C8DF80530230A8DF80630AB
:1003C8008DF80740094C00221021204602F088FFD2
:1003D80004210DEB0100FFF70DFF0122102120463B
:1003E80002F07EFFFFF782FF02B010BD0008024056
:1003F80010B582B00446FFF733FF230120228DF8A1
:100408000420C4F30F328DF80520C4F317148DF8B7
:1004180006408DF807300A4C00221021204602F0D1
:100428005FFF04210DEB0100FFF7E4FE012210211C
:10043800204602F055FFFFF759FF02B010BD00BF7C
:1004480000080240052907D8037923F0380343EA56
:10045800C10303710020704701207047052906D8A1
:10046800037923F007031943017100207047012025
:100478007047072903D849004171002070470120BF
:100488007047112902D881710020704701207047F8
:1004980010B584B00068642402940193009201238B
:1004A8000A46EE2103F03AFB04B010BD10B586B041
:1004B80004466A460023009301930293039304932E
:1004C8008DF8143015233121FFF7E2FF024600288A
:1004D80040F0C9809DF801109DF8003043EA0123DF
:1004E80007EE903AF8EE677A9FED607A67EE877AC2
:1004F800C4ED027A9DF803109DF8023043EA012307
:1005080007EE903AF8EE677A9FED597A67EE877AA8
:10051800C4ED037A9DF9043007EE903AF8EEE77AD5
:100528009FED547A67EE877AC4ED047A9DF8063019
:100538001B021BB29DF805100B4307EE903AF8EE2C
:10054800E77ADFED4D6A77EEE67A9FED4C6A67EE63
:10055800867AC4ED057A9DF808301B021BB29DF817
:1005680007100B4307EE903AF8EEE77A77EEE67A53
:10057800DFED436A67EEA67AC4ED067A9DF9093085
:1005880007EE903AF8EEE77ADFED3E6A67EEA67A74
:10059800C4ED077A9DF90A3007EE903AF8EEE77A4B
:1005A800DFED396A67EEA67AC4ED087A9DF80C107B
:1005B8009DF80B3043EA012307EE903AF8EE677A8C
:1005C800F2EE006A67EEA67AC4ED097A9DF80E107D
:1005D8009DF80D3043EA012307EE903AF8EE677A6A
:1005E800DFED2A6A67EEA67AC4ED0A7A9DF90F3024
:1005F80007EE903AF8EEE77ADFED256A67EEA67A1D
:10060800C4ED0B7A9DF9103007EE903AF8EEE77AD0
:10061800DFED206A67EEA67AC4ED0C7A9DF81230F9
:100628001B021BB29DF811100B4307EE903AF8EE2F
:10063800E77A67EE877AC4ED0D7A9DF9133007EEF5
:10064800903AF8EEE77A67EE877AC4ED0E7A9DF96C
:10065800143007EE903AF8EEE77A9FED0F7A67EEDE
:10066800877AC4ED0F7A104606B010BD00008043AB
:1006780000008030000080270000804600008035A0
:10068800000000310000802F0000002D0000803C99
:100698000000803B000000380000001F10B584B047
:1006A8000068642402940193009201230A46EE2113
:1006B80003F084F904B010BDF0B585B004460F46C8
:1006C80016461D4613238DF80F3003798DF80E302A
:1006D80083798DF80D3043798DF80C3001230DF1B5
:1006E8000E021C21FFF7DAFF08B105B0F0BD0123A7
:1006F8000DF10D021D212046FFF7D0FF0028F4D18F
:10070800012303AA1F212046FFF7C8FF0028ECD1C8
:1007180001230DF10F021B212046FFF7BFFF002820
:10072800E3D10B236A4604212046FFF7B1FE0028D7
:10073800DBD19DF802209DF801301B0243EA0243F9
:100748009DF8002013433B609DF805209DF8043078
:100758001B0243EA02439DF80320134333609DF8CC
:100768000A209DF809301B0243EA02439DF808203D
:1007780013432B60B9E710B582B00446B6238DF851
:10078800073001230DF106020321FFF781FE20B98E
:100798009DF8063013F0100F01D102B010BD0123EF
:1007A8000DF107027E212046FFF778FF0028F4D1DB
:1007B800022002F059F801230DF10502022120461A
:1007C800FFF766FEE9E710B582B0044601230DF194
:1007D80007020021FFF75CFE18B99DF80730502B7F
:1007E80001D002B010BD2046FFF7C5FF0028F8D1A0
:1007F8002046FFF75BFEF4E708B50349034800F01D
:1008080033F8034B187008BD3401002000010020A4
:1008180038010020134B5B7A13BB10B5044603F074
:10082800FF00104B93F809C05FFA8CFC4FF0000EE4
:1008380003F80CE093F809C003EB8C0CCCF80440E7
:100848005C7A1C4422725A7A541CE4B25C723032CC
:100858000A703A234B702F238B7081F803E010BD88
:10086800012070473C01002008B50022FFF7D2FFA5
:1008780008BD70EEC00A60EE810A30EE800A70474B
:1008880038B52DED028B184C2060184B00251D60E3
:100898005D609D60DD601D615D61102100F08AFA78
:1008A8004FF4FA61206800F069FB9FED118AB0EE01
:1008B800480A206800F098FDB0EE480A206800F069
:1008C80001FE02222946206800F04EFE0222294637
:1008D800206800F089FE206800F0E2F9206800F046
:1008E8007FFABDEC028B38BD6C010020540100205A
:1008F80000005043254B1B68002B46D030B52DED2A
:10090800048B85B0054600283BD000249FED208A43
:10091800F0EE488AB0EE489A04E0052001F0A4FF02
:100928000134A4B2AC4219D201A9184B186800F0DE
:1009380007FC0028F1D1DDED017AF8EEE76ADDED7C
:10094800027AB8EEE77ADDED037AF8EEE77A39EE67
:10095800669A78EEC78A38EE278ADEE707EE905A5D
:10096800F8EEE77A89EE277A0A4B83ED007A88EE6B
:10097800A77A094B83ED007A88EE277A074B83ED37
:10098800007A05B0BDEC048B30BD70476C010020C7
:1009980000000000500100204C0100204801002008
:1009A800424B186800287FD010B52DED048B86B017
:1009B80003A900F035FB70BBDDED037AF8EEE70A1A
:1009C800DDED047AB8EEE78ADDED057AF8EEE78A20
:1009D800B1EE488A9FED369A364CB0EE491AF1EEE0
:1009E800600A94ED000AFFF744FF84ED000AB0EEB8
:1009F800491AF0EE480A94ED010AFFF73AFF84ED30
:100A0800010AB0EE491AF0EE680A94ED020AFFF7FF
:100A180030FF84ED020A6946244B186800F090FB09
:100A280000283DD1DDED007AF8EEE77A9DED017AF8
:100A3800B8EEC78A9DED027AF8EEC78AF1EE677ABA
:100A48001D4BD3ED000AB1EE488A1C4B93ED007A9A
:100A580038EE478A1A4B93ED007A78EEC78A9FEDF5
:100A6800149A144CB0EE491A77EEE00A94ED030A92
:100A7800FFF7FFFE84ED030AB0EE491AF0EE480ACC
:100A880094ED040AFFF7F5FE84ED040AB0EE491A66
:100A9800F0EE680A94ED050AFFF7EBFE84ED050A0F
:100AA80006B0BDEC048B10BD704700BF6C01002080
:100AB800CDCC4C3E54010020500100204C010020B8
:100AC8004801002010B586468446054C0FCCACE89A
:100AD8000F0094E803008CE80300704610BD00BFC7
:100AE80054010020DFED2F7AB4EEE70AF1EE10FA98
:100AF80040D9F2EE097AB4EEE70AF1EE10FA3ED9DF
:100B0800F3EE0A7AB4EEE70AF1EE10FA39D9DFED1E
:100B1800267AB4EEE70AF1EE10FA34D9DFED237A3B
:100B2800B4EEE70AF1EE10FA2FD9DFED217AB4EE30
:100B3800E70AF1EE10FA2AD9DFED1E7AB4EEE70AD9
:100B4800F1EE10FA25D9DFED1C7AB4EEE70AF1EEE2
:100B580010FA20D9DFED197AB4EEE70AF1EE10FAAF
:100B68001BD9DFED177AB4EEE70AF1EE10FA16D8C2
:100B7800092300E00B2380F833300020704701235D
:100B8800F9E70223F7E70323F5E70423F3E705234F
:100B9800F1E70623EFE70723EDE70823EBE70A234E
:100BA800E9E700BFCDCCCC3F000050420000D04266
:100BB800000050430080D043004050440060D044BF
:100BC80000505045F2EE097AB4EEE70AF1EE10FA59
:100BD80039D9F3EE0A7AB4EEE70AF1EE10FA37D90A
:100BE800DFED237AB4EEE70AF1EE10FA32D9DFED41
:100BF800217AB4EEE70AF1EE10FA2DD9DFED1E7A6C
:100C0800B4EEE70AF1EE10FA28D9DFED1C7AB4EE5B
:100C1800E70AF1EE10FA23D9DFED197AB4EEE70A04
:100C2800F1EE10FA1ED9DFED177AB4EEE70AF1EE0D
:100C380010FA19D9DFED147AB4EEE70AF1EE10FADA
:100C480014D8092300E0012380F8343000207047CD
:100C58000223F9E70323F7E70423F5E70523F3E77E
:100C68000623F1E70723EFE70823EDE70A23EBE77D
:100C7800000050420000D042000050430080D043A2
:100C8800004050440060D0440050504510B54469BD
:100C9800007BA04710BD10B50469007BA04710BDBC
:100CA80090F83130012B0BD010B5044690F8331072
:100CB800203000F051FF28B9012384F8313010BDED
:100CC800002070474FF0FF30F9E7000008B5DFED6E
:100CD800317AB4EEE70AF1EE10FA40D9F2EE097A69
:100CE800B4EEE70AF1EE10FA3FD9F3EE0A7AB4EE61
:100CF800E70AF1EE10FA3AD9DFED277AB4EEE70AFF
:100D0800F1EE10FA35D9DFED257AB4EEE70AF1EE07
:100D180010FA30D9DFED227AB4EEE70AF1EE10FAD4
:100D28002BD9DFED207AB4EEE70AF1EE10FA26D9D6
:100D3800DFED1D7AB4EEE70AF1EE10FA21D9DFED06
:100D48001B7AB4EEE70AF1EE10FA1CD9DFED187A37
:100D5800B4EEE70AF1EE10FA17D8092100E00B21EA
:100D6800203000F0F9FE90B908BD0121F8E7022112
:100D7800F6E70321F4E70421F2E70521F0E706216D
:100D8800EEE70721ECE70821EAE70A21E8E74FF058
:100D9800FF30E9E7CDCCCC3F000050420000D04204
:100DA800000050430080D043004050440060D044CD
:100DB8000050504508B5022905DD042909DD082938
:100DC80009DC032100E00021203000F057FC20B9A5
:100DD80008BD0221F8E70121F6E74FF0FF30F7E7F9
:100DE80090F83230012B0BD010B5044690F834102F
:100DF800203000F036FF28B9012384F8323010BDC6
:100E0800002070474FF0FF30F9E7000008B5F2EE18
:100E1800097AB4EEE70AF1EE10FA39D9F3EE0A7A54
:100E2800B4EEE70AF1EE10FA38D9DFED267AB4EE1F
:100E3800E70AF1EE10FA33D9DFED237AB4EEE70AC8
:100E4800F1EE10FA2ED9DFED217AB4EEE70AF1EED1
:100E580010FA29D9DFED1E7AB4EEE70AF1EE10FA9E
:100E680024D9DFED1C7AB4EEE70AF1EE10FA1FD9A7
:100E7800DFED197AB4EEE70AF1EE10FA1AD9DFEDD0
:100E8800177AB4EEE70AF1EE10FA15D8092100E056
:100E98000121203000F0E5FE80B908BD0221F8E705
:100EA8000321F6E70421F4E70521F2E70621F0E73C
:100EB8000721EEE70821ECE70A21EAE74FF0FF30C7
:100EC800EBE700BF000050420000D0420000504352
:100ED8000080D043004050440060D044005050454A
:100EE80038B5054600F120048021204600F0A2FD17
:100EF80060BB0121204600F0F3FC50BB01212046D5
:100F080000F071FC40BB0021204600F0C8FD30BB5A
:100F1800042385F833300021204600F01DFE08BB6D
:100F28000021204600F0AAFBF8B9042385F83430E4
:100F38000021204600F095FED0B90621204600F099
:100F4800D8FBC0B9012385F8303038BD4FF0FF30E9
:100F5800FBE74FF0FF30F8E74FF0FF30F5E74FF0D1
:100F6800FF30F2E74FF0FF30EFE74FF0FF30ECE7EC
:100F78004FF0FF30E9E74FF0FF30E6E708B57D298D
:100F880009DDFA290DDDB1F5FA7F0CDDB1F57A7FBF
:100F98000BDC042100E00121203000F0AAFB30B96D
:100FA80008BD0021F8E70221F6E70621F4E74FF033
:100FB800FF30F5E708B5203000F08BFC00B908BD1C
:100FC8004FF0FF30FBE7000010B582B00C460DF182
:100FD8000701203000F06BFBA0B99DF80730032B08
:100FE80013D8DFE803F0020C0609094B236002B0AE
:100FF80010BD084B2360FAE7074B2360F7E7074B60
:101008002360F4E74FF0FF30F1E74FF0FF30EEE7F1
:1010180023DB793D23DBF93D23DB793E23DBF93EF6
:1010280030B585B005460C460023019302A920304F
:1010380000F014FC60BB01A92846FFF7C5FF50BBB0
:10104800BDF9083007EE103AB8EEC77ADDED017A3F
:1010580027EE277ABDEEC77A84ED007ABDF90A300B
:1010680007EE103AB8EEC77A27EE277ABDEEC77AB0
:1010780084ED017ABDF90C3007EE103AB8EEC77A64
:1010880067EE877AFDEEE77AC4ED027A05B030BDE7
:101098004FF0FF30FAE74FF0FF30F7E738B590F838
:1010A80032300BB9002038BD044600F1200500F1AC
:1010B8003401284600F05DFB38B90021284600F0CD
:1010C800D0FD28B984F83200EDE74FF0FF30EAE7A9
:1010D8004FF0FF30E7E7000010B582B00C460DF185
:1010E8000701203000F01EFBC0B99DF80730062B21
:1010F80017D8DFE803F007040A160D1610000B4B8B
:10110800236010E00A4B23600DE00A4B23600AE0DD
:10111800094B236007E0094B236004E04FF0FF30E0
:1011280001E04FF0FF3002B010BD00BF00008C405E
:1011380000000C4100008C4100000C4200008C4271
:1011480030B585B005460C4602A9203000F064FB96
:1011580060BB01A92846FFF7BFFF50BBBDF90830A7
:1011680007EE103AB8EEC77ADDED017A27EE277A56
:10117800BDEEC77A84ED007ABDF90A3007EE103A61
:10118800B8EEC77A27EE277ABDEEC77A84ED017AE2
:10119800BDF90C3007EE103AB8EEC77A67EE877AD9
:1011A800FDEEE77AC4ED027A05B030BD4FF0FF30AE
:1011B800FAE74FF0FF30F7E730B52DED028B83B03B
:1011C8000446B0EE408A012960D0022900F0A980C7
:1011D800002940F0048100F1200501236A4614210A
:1011E800284600F041FA00284AD19DF90030002B2A
:1011F80010DA94F83130012B2DD09DF8003023F00F
:1012080080038DF8003001236A461421284600F037
:1012180030FAA8BB012301AA1521284600F024FAB8
:1012280070BB9DF8043013F0100F1BD1F2EE097A51
:10123800B4EEE78AF1EE10FA25D494F83130012B98
:1012480000F0C780B0EE480A2046FFF74BFC03B019
:10125800BDEC028B30BD0021284600F07DFC002843
:10126800CBD00DE09DF8043023F010038DF8043046
:10127800012301AA1521284600F0FBF90028D5D042
:101288004FF0FF30E3E7B2EE098AD6E700F1200518
:1012980001236A461421284600F0E6F900283DD1CA
:1012A8009DF90030002B10DA94F83130012B22D050
:1012B8009DF8003023F080038DF8003001236A4642
:1012C8001421284600F0D5F940BB012301AA1521B5
:1012D800284600F0C9F908BB9DF8043013F0100F38
:1012E80010D0DFED407AB4EEE78AF1EE10FAA4DD13
:1012F8009FED3C8AA1E70021284600F02DFC00283C
:10130800D6D00BE043F010038DF80430012301AA76
:101318001521284600F0ADF90028E2D04FF0FF3043
:1013280095E700F12005012301AA1521284600F0C0
:101338009BF9002843D19DF8043013F0100F2AD1EF
:1013480094F83230012B35D001236A4614212846FF
:1013580000F08AF998BB9DF90030002B10DB94F857
:101368003130012B2ED09DF8003043F080038DF8EA
:10137800003001236A461421284600F07AF9F0B9B2
:10138800DFED187AB4EEE78AF1EE10FA7FF755AF81
:101398009FED148A51E79DF8043023F010038DF86F
:1013A8000430012301AA1521284600F062F900281B
:1013B800C6D004E02046FFF771FE0028C4D04FF0E5
:1013C800FF3044E70021284600F0C6FB0028CAD0B9
:1013D800F5E7B0EE480A2046FFF778FC37E74FF00C
:1013E800FF3034E70000504308B50021FFF7E4FE62
:1013F80008BD000030B52DED028B83B00446B0EE79
:10140800408A21B101292DD04FF0FF3015E000F1BD
:101418002005012301AA1621284600F025F9F0B974
:101428009DF90430002B0CDB94F83230012B41D0AD
:10143800B0EE480A2046FFF7C5FB03B0BDEC028BAF
:1014480030BD9DF8043023F080038DF8043001236B
:1014580001AA1621284600F00CF90028E4D04FF024
:10146800FF30EAE700F12005012301AA16212846EA
:1014780000F0FAF8D8B99DF90430002B09DADFED4D
:10148800107AB4EEE78AF1EE10FACDDD9FED0C8A02
:10149800CAE79DF8043043F080038DF80430012337
:1014A80001AA1621284600F0E4F80028E7D04FF0FA
:1014B800FF30C2E7B0EE480A2046FFF7A7FCBCE7BA
:1014C8000000504308B50021FFF794FF08BD00B5A0
:1014D80083B08DF8072001230DF10702203000F0BA
:1014E800C8F810B903B05DF804FB4FF0FF30F9E716
:1014F80000282BD010B504460B6803604A68426088
:101508008A6882600A7B02730A6902614A694261D9
:101518008A698261124A4262124A0262CA69826216
:10152800C062B3B19847B8B9A368022B00D010BD08
:1015380094F83030002BFAD10C2212212046FFF704
:10154800C6FF0028F3D04FF0FF30F0E74FF0FF3030
:1015580070474FF0FF30EAE74FF0FF30E7E700BF92
:10156800950C00089F0C000838B5372A36D8DFE8F4
:1015780002F01C1C1C1C1C1C1C1C35353535353553
:1015880035351C1C1C1C1C1C1C1C353535353535CB
:1015980035353535353535353535353535353535F3
:1015A8003535351C1C1C1C1C1C1C144671B900F15B
:1015B80020050121284600F0ACF990B921462846BB
:1015C80000F0F2F960B14FF0FF3009E01146203029
:1015D80000F0EAF920B14FF0FF3001E04FF0FF30A2
:1015E80038BD4FF0FF30FBE738B51446A1B9072ADC
:1015F80028D8DFE802F0040404040404040400F119
:1016080020050121284600F09DF9F0B92146284619
:1016180000F0B1F9E0B938BD5AB1832A1BD8802A45
:101628001CD3A2F18003032B1BD8DFE803F00202CE
:1016380002022146203000F0DEF90028EBD04FF0FE
:10164800FF30E8E74FF0FF30E5E74FF0FF30E2E723
:101658004FF0FF30DFE74FF0FF30DCE74FF0FF30AF
:10166800D9E74FF0FF30D6E710B54468C068A04707
:1016780010BD10B50468C068A04710BD30B583B070
:1016880004460D46012301AA1021FFF7EDFF08B11A
:1016980003B030BD9DF8043065F383038DF8043042
:1016A800012301AA10212046FFF7E3FFF0E710B558
:1016B80082B00C46012301AA1021FFF7D5FF9DF83F
:1016C8000430C3F38103032B10D8DFE803F00206CC
:1016D800090C0023237002B010BD01232370FAE720
:1016E80002232370F7E703232370F4E70023237012
:1016F800F1E730B583B004460D46012301AA112154
:10170800FFF7B2FF08B103B030BD9DF8043065F3B0
:1017180043038DF80430012301AA11212046FFF765
:10172800A8FFF0E710B582B00C46012301AA1121E9
:10173800FFF79AFF9DF80430C3F34203062B14D831
:10174800DFE803F004070A130D13100000232370C9
:101758000DE0012323700AE00223237007E004232D
:10176800237004E00623237001E00023237002B0F5
:1017780010BD10B582B00C46012301AA1121FFF754
:1017880073FF9DF804301B090A2B29D8DFE803F002
:10179800060A0D101316191C1F222500002323709A
:1017A80002B010BD01232370FAE702232370F7E784
:1017B80003232370F4E704232370F1E70523237040
:1017C800EEE706232370EBE707232370E8E70823F7
:1017D8002370E5E709232370E2E70A232370DFE794
:1017E80000232370DCE730B583B004460D4601239F
:1017F80001AA1221FFF738FF08B103B030BD9DF8E8
:10180800043065F386138DF80430012301AA1221F0
:101818002046FFF72EFFF0E710B582B00C460623EE
:101828006A462221FFF720FF9DF8012022809DF8BB
:10183800003003EB022323809DF8032062809DF88B
:10184800023003EB022363809DF80520A2809DF8F7
:10185800043003EB0223A38002B010BD10B582B0A0
:101868000C4606236A462821FFF7FEFE9DF8012054
:1018780022809DF8003003EB022323809DF803208B
:1018880062809DF8023003EB022363809DF80520F7
:10189800A2809DF8043003EB0223A38002B010BDA0
:1018A80030B583B004460D46012301AA1946FFF757
:1018B800DBFE08B103B030BD9DF8043065F3871333
:1018C8008DF80430012301AA19462046FFF7D1FEFE
:1018D800F0E708B50A4601230F21FFF7C5FE08BD4A
:1018E80030B583B004460D46012301AA1221FFF743
:1018F800BBFE08B103B030BD9DF8043065F3820328
:101908008DF80430012301AA12212046FFF7B1FE09
:10191800F0E730B583B004460D46012301AA102133
:10192800FFF7A2FE08B103B030BD9DF8043065F39F
:1019380041038DF80430012301AA10212046FFF746
:1019480098FEF0E730B583B004460D46012301AA9E
:101958001321FFF789FE08B103B030BD9DF80430AC
:1019680065F341038DF80430012301AA13212046B1
:10197800FFF77FFEF0E730B583B004460D4601233C
:1019880001AA1521FFF770FE08B103B030BD9DF81C
:10199800043065F302038DF80430012301AA1521F0
:1019A8002046FFF766FEF0E730B583B005460C46E3
:1019B800012301AA1721FFF757FE08B103B030BD74
:1019C800C4F300129DF8043062F382038DF80430EA
:1019D800C4F34012DBB262F304138DF80430DBB2B7
:1019E80064F347138DF80430012301AA1721284610
:1019F800FFF73FFEE2E730B583B005460C4601230A
:101A080001AA1621FFF730FE08B103B030BDE20984
:101A18009DF8043062F386138DF80430DBB264F36A
:101A280005138DF80430012301AA16212846FFF773
:101A380020FEEAE730B583B005460C4601236A4626
:101A48001821FFF711FE034618B1D3B1184603B0A9
:101A580030BDE3099DF8002063F341028DF80020B2
:101A680001236A4618212846FFF703FE034600288B
:101A7800ECD1012301AA62212846FFF7F5FD0346B0
:101A8800E3E79DF8043064F3C4038DF804300123C0
:101A980001AA62212846FFF7ECFD0346D6E730B5D8
:101AA80083B004460D46012301AA0A21FFF7DCFD95
:101AB80008B103B030BD9DF8043065F302038DF81A
:101AC8000430012301AA0A212046FFF7D2FDF0E7DE
:101AD80038B504460D460221FFF7E2FE00B138BDD5
:101AE80002232A4646212046FFF7BEFD0028F6D1EC
:101AF80000212046FFF7D4FEF1E730B583B0054654
:101B08000C460221FFF7CCFE08B103B030BD01231B
:101B180001AA5F212846FFF7A7FD0028F5D19DF807
:101B28000430C3F3C103032B13D8DFE803F0020921
:101B38000C0F0023237000212846FFF7B1FEE4E7CD
:101B480001232370F7E702232370F4E703232370AC
:101B5800F1E700232370EEE730B583B004460D4665
:101B680001A9FFF7B5FF0246C8BB9DF8041001F0B4
:101B78000103C1F340000343C1F380000343C1F3F1
:101B8800C0000343C1F300100343C1F340100343F3
:101B9800C1F38010034343EAD1139DF8051001F007
:101BA80001000343C1F340000343C1F38000034332
:101BB800C1F3C0000343C1F300100343C1F3401055
:101BC8000343C1F38010034353EAD1130CD142B944
:101BD80001236A4610212046FFF746FD0246002AE7
:101BE80031D0104603B030BD0DF103012046FFF798
:101BF80084FF02460028F4D19DF80330032BE6D871
:101C0800DFE803F002060B13002DE0D10125DEE723
:101C18008DB1012DDBD10225D9E7012D0DD0022D83
:101C28000DD0002DD3D10325D1E7032DCFD8DFE880
:101C380005F0080808080225C9E70325C7E70325B2
:101C4800C5E70425C3E79DF8003065F307138DF851
:101C5800003001236A4610212046FFF70AFD02469C
:101C6800BFE730B583B004460D4601A9FFF730FF42
:101C78000246C8BB9DF8041001F00103C1F34000FF
:101C88000343C1F380000343C1F3C0000343C1F31E
:101C980000100343C1F340100343C1F38010034312
:101CA80043EAD1139DF8051001F001000343C1F385
:101CB80040000343C1F380000343C1F3C000034362
:101CC800C1F300100343C1F340100343C1F3801074
:101CD800034353EAD1130CD142B901236A461121B7
:101CE8002046FFF7C1FC0246002A31D0104603B057
:101CF80030BD0DF103012046FFF7FFFE0246002824
:101D0800F4D19DF80330032BE6D8DFE803F0020690
:101D18000B13002DE0D10125DEE78DB1012DDBD1BC
:101D28000225D9E7012D0DD0022D0DD0002DD3D1DC
:101D38000325D1E7032DCFD8DFE805F00808080808
:101D48000225C9E70325C7E70325C5E70425C3E737
:101D58009DF8003065F307138DF8003001236A46BB
:101D680011212046FFF785FC0246BFE70020704797
:101D78000020704708B500F077FD08BD2DE9F04F49
:101D88008BB005AD00240594069407940894099433
:101D98000094524B1A6B42F004021A631A6B02F059
:101DA80004020092009A01941A6B42F080021A63AE
:101DB8001A6B02F080020192019A02941A6B42F0A7
:101DC80001021A631A6B02F001020292029A03944A
:101DD8001A6B42F002021A631A6B02F002020392B3
:101DE800039A04941A6B42F008021A631B6B03F0FF
:101DF80008030493049BDFF8F080224640F289111F
:101E0800404601F06DFA01223021404601F068FA9F
:101E1800334F22462121384601F062FA01224FF45D
:101E28008051384601F05CFA224604212D4801F021
:101E380057FA40F2891305930126069607940894E9
:101E48002946404601F056F9302305930696079433
:101E58004FF0030BCDF820B02946404601F04AF96F
:101E680005960696079408942946384601F042F9E3
:101E780002230593069407942946384601F03AF957
:101E88004FF00409CDF814904FF4881ACDF818A033
:101E980007942946384601F02DF94FF481530593EC
:101EA80006960794CDF820B02946384601F022F965
:101EB80040230593CDF818A007942946404601F021
:101EC80019F9CDF814900696079408942946054800
:101ED80001F010F90BB0BDE8F08F00BF00380240E8
:101EE80000040240000C02400008024000B583B024
:101EF80000210191094B1A6B42F400121A631B6B03
:101F080003F400130193019B0A460F2000F0A4FE7E
:101F18000F2000F0B1FE03B05DF804FB003802406A
:101F280030B5C1B01C460133B3F5807F2BD80846C5
:101F3800114600F07F008DF8000022460DF10100E7
:101F480008F004FA00224FF48051104801F0C8F953
:101F5800621C4FF0FF3392B269460D4803F079FED8
:101F680040B901224FF48051084801F0B9F9002026
:101F780041B030BD01224FF48051044801F0B0F95E
:101F88004FF0FF30F4E74FF0FF30F1E70004024074
:101F9800E803002030B583B014461D4661F07F0188
:101FA8008DF8071000224FF48051174801F098F976
:101FB8004FF0FF3301220DF10701144803F049FEE9
:101FC80080B94FF0FF332A462146104804F04CF8F8
:101FD80088B901224FF480510B4801F081F90020A3
:101FE80003B030BD01224FF48051074801F078F961
:101FF8004FF0FF30F4E701224FF48051024801F01E
:102008006FF94FF0FF30EBE700040240E8030020CF
:1020180008B500F023FC08BD72B6FEE700B585B030
:10202800002300930193029303931348134A026019
:10203800436083600361037680F82030C362104AEE
:102048008262C3600122C26180F83030426100F0D0
:10205800B9FC68B904230093012301930023029378
:102068006946054800F0DAFC20B905B05DF804FBC4
:10207800FFF7D2FFFFF7D0FFBC050020002001408A
:102088000100000F08B50A480A4B03600A4B436079
:1020980000238360C3604FF480420261436183611F
:1020A800C361036201F0ACFB00B908BDFFF7B4FFE0
:1020B8006005002000540040801A060008B50A4850
:1020C8000A4B03600A4B436000238360C3604FF4EC
:1020D8008042026143618361C361036201F090FB46
:1020E80000B908BDFFF798FF0C0500200058004014
:1020F800801A060008B50A480A4B03600A4B436079
:1021080000238360C3604FF48042026143618361AE
:10211800C361036201F074FB00B908BDFFF77CFFDF
:10212800B8040020005C0040A086010008B50948FA
:10213800094B0360002343607F228260FF22C26054
:1021480003614361836103F0EBFB00B908BDFFF74E
:1021580063FF00BF980400200028004008B50D4820
:102168000D4B03604FF48273436000238360C360A8
:10217800036143614FF400728261C3610362436289
:1021880083620A23C36203F005FD00B908BDFFF7A7
:1021980043FF00BF400400200030014008B50E484E
:1021A8000E4B03604FF48273436000238360C36067
:1021B80002220261012242614FF400728261082208
:1021C800C2610362436283620A23C36203F0E2FCD2
:1021D80000B908BDFFF720FFE803002000380040E1
:1021E80008B50D480D4B03604FF48273436000231C
:1021F8008360C360036143614FF480228261C361DD
:102208000362436283620A23C36203F0C3FC00B91A
:1022180008BDFFF701FF00BF90030020003C00400D
:1022280000B58FB000230A930B930C930D9308937A
:1022380009930193029303930493059306930793D9
:102248001D481E4A0260436083605922C2600361D0
:10225800836104F037FA20BB4FF480530A930AA92C
:10226800154804F095FBF0B9134804F083FAE0B977
:1022780000230893099308A90F4804F055FEB0B944
:1022880060230193002202920392059201A90A4851
:1022980004F003FB68B9084802F012F80FB05DF8C3
:1022A80004FBFFF7B9FEFFF7B7FEFFF7B5FEFFF730
:1022B800B3FEFFF7B1FE00BF480300200004004052
:1022C80000B58FB000230A930B930C930D930893DA
:1022D8000993019302930393049305930693079339
:1022E8002348244A026040F24F224260836040F64D
:1022F8007E12C2600361836104F0E4F958BB4FF4B5
:1023080080530A930AA91A4804F042FB28BB1848CC
:1023180004F030FA18BB00230893099308A914485D
:1023280004F002FEE8B960230193002302930393AB
:102338000593082201A90E4804F0AFFA98B90C22B7
:1023480001A90B4804F0A9FA78B9094801F0B8FFC7
:102358000FB05DF804FBFFF75FFEFFF75DFEFFF7C8
:102368005BFEFFF759FEFFF757FEFFF755FE00BF6C
:10237800000300200008004000B58FB000230A9336
:102388000B930C930D930893099301930293039372
:1023980004930593069307933148324A026040F24A
:1023A8004F224260836040F67E12C26003618361FF
:1023B80004F088F9002840D14FF480530A930AA901
:1023C800274804F0E5FA002839D1254804F0D2F965
:1023D800002836D1224804F0A1F9002833D100237F
:1023E8000893099308A91E4804F09EFD68BB602362
:1023F8000193002202920392059201A9184804F061
:102408004CFA20BB04220DEB0201154804F045FAF2
:10241800F8B9082201A9124804F03FFAD8B90023F4
:1024280001930C2201A90E4804F008FAA8B90C4837
:1024380001F046FF0FB05DF804FBFFF7EDFDFFF775
:10244800EBFDFFF7E9FDFFF7E7FDFFF7E5FDFFF718
:10245800E3FDFFF7E1FDFFF7DFFDFFF7DDFD00BF5F
:10246800B8020020000C004008B50A480A4B036077
:102478004FF4E133436000238360C36003610C229F
:1024880042618361C36104F01FFE00B908BDFFF714
:10249800C3FD00BF100200200010014008B5044829
:1024A800044B036000F000FC00B908BDFFF7B4FD61
:1024B800B40500200030024010B594B008AC3022BA
:1024C8000021204607F015FF00230393049305938A
:1024D800069307930193214A116C41F080511164CE
:1024E800126C02F080520192019A02931C4B1A68F6
:1024F80042F480421A601B6803F480430293029BF3
:10250800092308934FF48033099301230D93022381
:102518000E934FF480020F9204221092902211928F
:10252800129306231393204602F0BEFD90B90F23A1
:10253800039302230493002305934FF4A0530693B7
:102548004FF480530793042103A803F017F818B930
:1025580014B010BDFFF760FDFFF75EFD00380240C4
:102568000070004000B5ADF5057D00F051F9FFF7AA
:10257800A3FFFFF703FCFFF7B9FCFFF74FFDFFF7D9
:1025880081FDFFF79BFDFFF7B5FDFFF7CFFDFFF7D7
:10259800E5FDFFF703FEFFF723FEFFF741FEFFF718
:1025A8008FFEFFF7E9FEFFF75FFF05F0ADFBFFF7D2
:1025B80075FFFEF721F93F4C01220821204600F063
:1025C8008FFE4FF4967000F04FF900220821204644
:1025D80000F086FE01228021204600F081FE0122C3
:1025E8004FF48071204600F07BFE3348334B036084
:1025F800FEF7E9F870B300238DF803323049012261
:102608008A600B732F4B0B602F4B4B602F4B4B612A
:102618002F4B0B612F4B8B612F4BCB612F48FEF754
:1026280067FF90B300222E492E4800F0C2F84FF4FD
:1026380000720021684607F05CFE00F055F80022A1
:102648004021104600F088F800F054F8052000F00A
:102658000BF9F9E7052000F007F9174C032120468C
:10266800FDF7F0FE03212046FDF7F8FE0221204683
:10267800FDF7FFFE02212046FDF703FF81AB82AA8A
:1026880083A92046FEF718F8B5E71448FEF728FC9A
:102698000028C7D1114C0DF203212046FEF78AFC11
:1026A8002046FEF7EDF8642000F0DEF8C820FEF7BB
:1026B80021F9B7E700080240780100200C05002046
:1026C800B8010020751D0008791D00089D1F00082D
:1026D800291F0008192000087D1D0008D8010020C6
:1026E800B802002070010020014B00221A707047C8
:1026F8000406002010B586B0FEF752F96846FEF7CA
:10270800E1F9124B1B7833B1012B02D00F4B002299
:102718001A7006B010BD9DED017ADFED0D7AB4EEAA
:10272800E77AF1EE10FAF4DD0122084B1A70094C31
:102738000821204600F0D4FD642000F095F800221E
:102748000821204600F0CCFDE3E700BF0406002086
:1027580000803B450008024008B5104B58701A70BD
:10276800997017230E4904E01E220A600431013BC8
:102778005BB2002B08DB094A1268DA4012F0010F3D
:10278800F2D03C220A60F1E7054A0021C2F8241180
:102798004A23044804F008FA08BD00BF30070020A7
:1027A800080600204803002008B5002104F042FB79
:1027B80008BD08B503460846114618605A6004F07B
:1027C80075F908BD10B504460E4B1A784FF47A73A4
:1027D800B3FBF2F30C4A1068B0FBF3F000F050FAC8
:1027E80068B90F2C01D901200AE0002221464FF0D8
:1027F800FF3000F031FA054B1C60002000E001209A
:1028080010BD00BF000000200800002004000020C8
:1028180008B50B4B1A6842F400721A601A6842F441
:1028280080621A601A6842F480721A60032000F00D
:1028380001FA0F20FFF7C6FF01F0ECFA002008BDEF
:10284800003C0240034A1168034B1B780B44136099
:10285800704700BF3407002000000020014B1868B3
:10286800704700BF3407002038B50446FFF7F6FF6D
:102878000546B4F1FF3F02D0044B1B781C44FFF718
:10288800EDFF401BA042FAD338BD00BF0000002076
:102898004A4B5A6822F440325A605A6841680A43DF
:1028A8005A600268536823F480735360026853685F
:1028B800016943EA012353600268536823F04073B7
:1028C80053600268536881680B43536002689368D9
:1028D80023F40063936002689368C1680B439360B4
:1028E800826A374B9A4257D00268936823F0706324
:1028F800936002689368816A0B43936002689368E7
:1029080023F04053936002689368C16A0B43936055
:102918000268936823F00203936002689368017E5B
:1029280043EA4103936090F82030002B3FD00268BF
:10293800536843F4006353600268536823F46043A8
:10294800536001684B68426A013A43EA42334B607C
:102958000268D36A23F47003D3620168CB6AC26940
:10296800013A43EA0253CB620268936823F4007386
:1029780093600268936890F8301043EA41239360AB
:102988000268936823F480639360026893684169DE
:1029980043EA8123936070470268936823F0706369
:1029A80093600268936823F040539360B0E702682D
:1029B800536823F400635360CAE700BF0023014053
:1029C8000100000F38B310B50446036C43B1236C03
:1029D80013F0100F0BD00120002384F83C3010BDF9
:1029E80001F034FA0023636484F83C30EFE7236C89
:1029F80023F4885323F0020343F0020323642046A0
:102A0800FFF746FF00206064236C23F0030343F0C4
:102A180001032364E0E701207047000030B482B06E
:102A28000022019290F83C20012A00F0B68003466B
:102A3800012280F83C200A68092A40D90468E06825
:102A480092B202EB42021E3A4FF0070C0CFA02F265
:102A580020EA0202E2601C68E0680A8802EB42028F
:102A68001E3A8D6805FA02F20243E2604A68062AB5
:102A78003CD81C68606B02EB8202053A4FF01F0CD1
:102A88000CFA02F220EA020262631C68606B4A6870
:102A980002EB8202053AB1F800C00CFA02F20243D6
:102AA800626318683E4A904250D018683C4A904287
:102AB80055D0002083F83C0002B030BC7047046851
:102AC800206992B202EB42024FF0070C0CFA02F2B4
:102AD80020EA020222611C6820690A8802EB42028D
:102AE8008D6805FA02F202432261BFE70C2A16D864
:102AF8001D68286B02EB8202233A1F2404FA02F2B3
:102B080020EA02022A631D68286B4A6802EB8202E7
:102B1800233A0C8804FA02F202432A63C1E71D68CB
:102B2800E86A02EB8202413A1F2404FA02F220EA20
:102B38000202EA621D68E86A4A6802EB8202413AC8
:102B48000C8804FA02F20243EA62AAE70A68122A27
:102B5800ABD11448426842F480024260A5E70A6893
:102B6800103A012AA5D80F48426842F40002426090
:102B78000A68102A9DD10C4A12680C49A1FB02125E
:102B8800920C02EB82025200019202E0019A013A91
:102B98000192019A002AF9D18BE702208CE700BF45
:102BA80000200140002301400800002083DE1B4371
:102BB800002807DB00F01F02400901239340024A66
:102BC80042F82030704700BF00E100E0002808DB31
:102BD8000901C9B200F1604000F5614080F80013B6
:102BE800704700F00F000901C9B2014B1954704732
:102BF80014ED00E000B500F00700C0F1070CBCF1CF
:102C0800040F28BF4FF0040C031D062B0FD9C31E59
:102C18004FF0FF3E0EFA0CF021EA000199400EFA3F
:102C280003FE22EA0E0241EA02005DF804FB0023DB
:102C3800EEE70000074AD36823F4E0631B041B0C8B
:102C4800000200F4E060034343F0BF6343F4003341
:102C5800D360704700ED00E010B50446054BD86816
:102C6800C0F30220FFF7C6FF01462046FFF7AEFF7C
:102C780010BD00BF00ED00E008B5FFF799FF08BDE3
:102C88000138B0F1807F0BD24FF0E0235861054A3C
:102C9800F02182F823100020986107221A617047FA
:102CA8000120704700ED00E058B110B504464379A3
:102CB8001BB101236371002010BD037101F0FAF804
:102CC800F7E70120704730B405682C6824F48024A5
:102CD8002C60046863608368402B05D003689960A2
:102CE8000368DA6030BC704703689A600368D9608B
:102CF800F8E7000010B40368D9B210390A4AA2FBF9
:102D080001421209094CA25CC2655F2907D96FF319
:102D1800090304338365806D5DF8044B70476FF3D6
:102D280009038365F7E700BFABAAAAAA80A6000833
:102D3800836A826992B9012B0AD0022B02D00BB1A7
:102D480000207047C36A13F0807F28D100207047A5
:102D5800C36AB3F1C07F24D000207047B2F5005F8A
:102D680009D0022B25D9032B25D1C36A13F0807F04
:102D780023D100207047032B03D8DFE803F01404A5
:102D8800140A00207047C36A13F0807F0DD1002019
:102D98007047C36AB3F1C07F09D000207047012093
:102DA80070470120704701207047012070470120BB
:102DB80070470120704700207047012070470000CD
:102DC80070B50446FFF74AFD002C5BD00546022388
:102DD80084F83530002384F834302268136823F0EF
:102DE8000103136023681A6812F0010F0AD0FFF775
:102DF80035FD431B052BF5D920236365032084F893
:102E0800350070BD1A68204911406268A068024305
:102E1800E06802432069024360690243A0690243F3
:102E2800E0690243206A02430A43616A04291ED00A
:102E38001A602668756925F00705636A1D43042B27
:102E480007D1A36A1D43E36A1BB12046FFF770FF51
:102E580090B975612046FFF74DFFE26D3F2393401F
:102E6800836000206065012384F83530C9E7E16A92
:102E7800206B01430A43DBE740236365012084F8A4
:102E88003500BEE70120BCE73F8010F038B50446A6
:102E9800856D90F8340001282AD0012084F8340088
:102EA80094F83500012804D0002384F83430022037
:102EB80038BD022084F83500002060652046FFF701
:102EC80002FFE26D3F239340AB602268136843F032
:102ED80016031360236C23B12268136843F00803B8
:102EE80013602268136843F0010313600020DFE7D2
:102EF8000220DDE790F83530022B03D080234365AC
:102F080001207047052380F835300268136823F0E4
:102F18000103136000207047F0B583B00446002316
:102F28000193724B1D68724BA3FB0535AD0A876D83
:102F38003E68C26D08239340334210D003681A6874
:102F480012F0040F0BD01A6822F004021A60C26D46
:102F580008239340BB60436D43F001034365E26D72
:102F680001239340334209D02268526912F0800F3E
:102F780004D0BB60636D43F002036365E26D042314
:102F88009340334209D02268126812F0020F04D02D
:102F9800BB60636D43F004036365E26D10239340E7
:102FA800334224D02268126812F0080F1FD0BB6089
:102FB80023681A6812F4802F0DD01B6813F4002FB1
:102FC80004D1236C9BB12046984710E0A36C73B1E1
:102FD800204698470BE01A6812F4807F03D11A68DC
:102FE80022F008021A60236C0BB120469847E26D64
:102FF80020239340334254D02268126812F0100FF5
:103008004FD0BB6094F83530052B0ED023681A6872
:1030180012F4802F33D01B6813F4002F2AD1636C6D
:10302800002B3ED0204698473BE02268136823F0E7
:10303800160313602268536923F080035361236CDD
:10304800A3B12268136823F008031360E26D3F23DD
:103058009340BB60012384F83530002384F8343072
:10306800236D002B3FD0204698473CE0A36C002BF3
:10307800E7D1EBE7E36BA3B12046984711E01A6864
:1030880012F4807F09D11A6822F010021A60012315
:1030980084F83530002384F83430E36B0BB12046D4
:1030A8009847636DFBB1636D13F0010F17D00523CB
:1030B80084F835302268136823F001031360019BFC
:1030C80001330193AB4204D823681B6813F0010F46
:1030D800F5D1012384F83530002384F83430E36CCB
:1030E8000BB12046984703B0F0BD00BF0800002090
:1030F800B5814E1B00230F2B00F2E98070B582B01A
:1031080065E085684FEA430E032404FA0EF425EAC5
:103118000405CC6804FA0EF42C438460446824EA5D
:1031280002044A68C2F300129A40224342605CE0FB
:10313800DC08083450F8242003F00705AD004FF0F0
:103148000F0E0EFA05FE22EA0E0E0A69AA4042EA9E
:103158000E0240F824205CE0072200E0002202FA78
:103168000EF22A4302345A4D45F82420594A9468ED
:103178006FEA0C0224EA0C054E6816F4801F01D091
:103188004CEA0405534CA560E46802EA04054E685D
:1031980016F4001F01D04CEA04054E4CE560646843
:1031A80002EA04054E6816F4003F01D04CEA040513
:1031B800484C6560246822404D6815F4803F01D072
:1031C8004CEA0402434C226001330F2B7DD80122C4
:1031D8009A400C6804EA020C32EA0404F4D14C6800
:1031E80004F00304013C012C8BD94A6802F0030265
:1031F800032A09D0C4685D000322AA4024EA020415
:103208008A68AA402243C2604A6802F00302022A7E
:103218008ED004684FEA430E032202FA0EF224EA23
:1032280002044A6802F0030202FA0EF22243026024
:103238004A6812F4403FC7D000220192264A546CD3
:1032480044F480445464526C02F480420192019A1E
:103258009C08A51C1E4A52F8255003F0030E4FEA9D
:103268008E0E0F2202FA0EF225EA02051B4A904240
:103278003FF474AF02F5806290421AD002F5806282
:10328800904218D002F58062904216D002F5806212
:10329800904214D002F58062904212D002F580620A
:1032A800904210D002F5806290423FF455AF082258
:1032B80055E7012253E7022251E703224FE7042290
:1032C8004DE705224BE7062249E702B070BD70477B
:1032D80000380140003C0140003802400000024034
:1032E8000AB18161704709048161704703685A69AE
:1032F80012F4806F01D1002070476FF480625A6128
:1033080000230363202280F83D2080F83E30026CC1
:1033180042F00402026480F83C30012070472DE935
:10332800F04106460C46174698463BE0FFF796FAEA
:10333800069BC01A404502D8B8F1000F32D1012DC2
:1033480018D033689B6924EA03039BB2B3FA83F36A
:103358005B099F4226D100233363202286F83D2053
:1033680086F83E30326C42F02002326486F83C30F7
:10337800012027E033685B6924EA03039BB2B3FAB0
:1033880083F35B09E5E733685B6924EA030C1FFAFA
:103398008CFCBCFA8CFC4FEA5C1C674511D1B8F177
:1033A800FF3FC3D1C4F30745012DECD033689B69B7
:1033B80024EA030C1FFA8CFCBCFA8CFC4FEA5C1C58
:1033C800EBE70020BDE8F0812DE9F84305460E46FD
:1033D8009046994653E01A6842F400721A602B68C6
:1033E8006FF480625A6100232B63202285F83D2008
:1033F80085F83E302A6C42F004022A6485F83C3095
:1034080001204AE0FFF72AFAA0EB0900404502D85C
:10341800B8F1000F33D1012F17D02B689B6926EA2A
:1034280003039BB2003B18BF012343B300232B6364
:10343800202285F83D2085F83E302A6C42F0200293
:103448002A6485F83C30012027E02B685B6926EA6E
:1034580003039BB2003B18BF0123E6E72B689C6976
:1034680026EA0404A4B2003C18BF0124A4B12B68C6
:103478005A6912F4806FAED1B8F1FF3FC2D1C6F3DA
:103488000747012FEAD12B685C6926EA0404A4B235
:10349800003C18BF0124E9E70020BDE8F88370B5B7
:1034A80004460D46164623685B6913F0800F21D148
:1034B8002046FFF71BFFF8B9B5F1FF3FF3D0FFF740
:1034C800CDF9801BA84201D8002DECD123685B6997
:1034D80013F0800FE7D100232363202284F83D20D6
:1034E80084F83E30226C42F02002226484F83C309A
:1034F800012000E0002070BD0120FCE72DE9F04329
:1035080085B004460D4691461F46DDF830800D9E75
:103518000368196841F480711960009643460022D7
:103528004FF00111FFF7FBFE60B9236805F0FE05B7
:103538001D613346424626492046FFF745FF68B1DC
:10354800012008E023681B6813F4807F02D04FF441
:1035580000732364032005B0BDE8F08300230393C0
:1035680023685A6903929B690393039B3246414639
:103578002046FFF794FF30B9012F0FD123685FFA77
:1035880089F61E61E7E7236C042B01D00120E2E7EE
:103598002268136843F400731360F7E723684FEA5F
:1035A80019221A61324641462046FFF778FF20B9B2
:1035B80023685FFA89F61E61CDE7236C042B01D0DE
:1035C8000120C8E72268136843F400731360F7E723
:1035D800020001002DE9F04784B004460D46164666
:1035E80099460C9FDDF834800268136843F48063C1
:1035F80013600368196841F480711960CDF8008080
:103608003B4600224FF00111FFF789FE70B95FFABF
:1036180085FA236805F0FE051D6143463A4641498F
:103628002046FFF7D1FE68B1012008E023681B6837
:1036380013F4807F02D04FF400732364032004B096
:10364800BDE8F0870023039323685A6903929B69B6
:103658000393039B424639462046FFF720FF80B973
:10366800B9F1010F18D12368F6B21E6142463946F6
:103678002046FFF714FF68B3236C042B24D00120E5
:10368800DDE7236C042B01D00120D8E722681368FA
:1036980043F400731360F7E72368320A1A6142465D
:1036A80039462046FFF7FBFE18B92368F6B21E61BB
:1036B800DCE7236C042B01D00120C0E722681368E3
:1036C80043F400731360F7E72268136843F4007348
:1036D8001360D4E72268136843F480731360CDF84D
:1036E80000803B4600224FF001112046FFF717FEED
:1036F80068B922684AF00103136143463A4609490A
:103708002046FFF761FE002899D0012097E723683B
:103718001B6813F4807F02D04FF4007323640320E6
:103728008DE700BF0200010070B504460D4616463D
:1037380023685B6913F0040F21D12046FFF7D6FDFB
:10374800F8B9B5F1FF3FF3D0FFF788F8801BA8421E
:1037580001D8002DECD123685B6913F0040FE7D181
:1037680000232363202284F83D2084F83E30226C15
:1037780042F02002226484F83C30012000E000205E
:1037880070BD0120FCE770B504460D46164614E0EE
:103798006FF010025A6100232363202284F83D2031
:1037A80084F83E30226C226484F83C30012025E005
:1037B80023685B6913F0400F10D02368586910F034
:1037C800400F1AD1586910F0100FE1D1FFF746F8F1
:1037D800801BA842ECD8002DEFD1E9E70023236332
:1037E800202284F83D2084F83E30226C42F02002EA
:1037F800226484F83C30012000E0002070BD000005
:10380800002800F0CC8070B5044690F83D30002BBD
:1038180077D0242384F83D302268136823F001030D
:1038280013602268136843F4004313602268136826
:1038380023F40043136001F057FF62685A4B9A4221
:1038480064D85A4B98428CBF00230123002B40F0C8
:10385800A8805749A1FB00318B0C25686A6822F0C3
:103868003F0242EA91426A6021680A6A22F03F02F6
:1038780066684D4DAE424FD8013313430B62216841
:10388800CA6922F44F4222F0FF026568464B9D4206
:103898004CD8431E6D00B3FBF5F3013340F6FC70C2
:1038A800034278D0C3F30B031A43CA6121680B683B
:1038B80023F0C003E269206A024313430B602168C6
:1038C8008B6823F4034323F0FF032269E068024373
:1038D80013438B602168CB6823F0FF036269A069FA
:1038E80002431343CB602268136843F0010313605B
:1038F80000202064202384F83D30206384F83E00B3
:1039080070BD80F83C3000F0EDFA82E7294B984210
:103918008CBF0023012399E74FF4967505FB03F349
:10392800254DA5FB03539B090133A6E7A668BEB93D
:10393800431E05EB450CB3FBFCF30133C3F30B0348
:10394800B3FA83F35B0943BBC6B9431E05EB4505D0
:10395800B3FBF5F30133C3F30B0343F40043A3E7CD
:10396800431E05EB850C0CEB8C0CB3FBFCF301330D
:10397800C3F30B03B3FA83F35B09E4E7431E05EBD8
:10398800850505EB8505B3FBF5F30133C3F30B039D
:1039980043F4404388E7042386E7012384E70120B2
:1039A80070470120ACE700BFA08601007F841E009D
:1039B80083DE1B43FF083D00D34D62102DE9F04321
:1039C80083B004460F46904699460C9EFEF746FF84
:1039D80094F83D20202A03D0022003B0BDE8F083EC
:1039E80005460090192301224A492046FFF797FC13
:1039F800002840F0898094F83C30012B00F0868044
:103A0800012384F83C3023681A6812F0010F03D1AF
:103A18001A6842F001021A602268136823F40063EE
:103A28001360212384F83D30402384F83E3000237E
:103A380023640A9B6362BDF82C306385638D2385FC
:103A4800354BE362019500964B464246394620467F
:103A5800FFF754FD00285BD1238D002B35D02A4673
:103A680031462046FFF71BFD20BB626A23681278A7
:103A78001A61626A531C6362218D013989B22185FA
:103A8800638D9BB2013B9BB263852368586910F034
:103A9800040FE1D00029DFD052781A61636A01333C
:103AA8006362238D013B2385638D9BB2013B9BB2EF
:103AB8006385D1E7236C042B01D001208DE72268B0
:103AC800136843F400731360F7E72A46314620462B
:103AD800FFF72AFE50B1236C042B01D001207CE7AC
:103AE8002268136843F400731360F7E722681368C9
:103AF80043F400731360202384F83D30002384F8D6
:103B08003E3084F83C3068E7022066E7022064E72C
:103B1800012062E7020010000000FFFF2DE9F043DA
:103B280087B004460F4690469946109EFEF796FECB
:103B380094F83D20202A04D00227384607B0BDE873
:103B4800F083054600901923012289492046FFF792
:103B5800E6FB002840F04E8194F83C30012B00F041
:103B68004B81012384F83C3023681A6812F0010F56
:103B780003D11A6842F001021A602268136823F41C
:103B880000631360222384F83D30402384F83E30DC
:103B9800002323640E9B6362BDF83C306385638D0C
:103BA8002385744BE362019500964B46424639469D
:103BB8002046FFF70FFD0746002840F01F81238DA0
:103BC8005BB9029323685A6902929A690292029A2F
:103BD8001A6842F400721A6075E0012B0AD0022BB1
:103BE8001AD00023059323685A6905929B690593A7
:103BF800059B68E02268136823F480631360002340
:103C0800039323685A6903929A690392039A1A687C
:103C180042F400721A6056E02268136823F4806345
:103C280013602268136843F400631360002304934D
:103C380023685A6904929B690493049B43E02A46CB
:103C480031462046FFF79FFD002840F0D9802368C1
:103C58001A69636A1A70636A01336362238D013BD0
:103C68002385638D9BB2013B9BB263852BE0009556
:103C78003346002240492046FFF751FB002840F018
:103C8800C1802268136843F40073136023681A69BB
:103C9800636A1A70626A531C6362238D013B238531
:103CA800638D9BB2013B9BB2638523681B6953708C
:103CB800636A01336362238D013B2385638D9BB265
:103CC800013B9BB26385238D002B00F08A80032B78
:103CD80054D8012BB3D0022BC9D00095334600220B
:103CE80025492046FFF71BFB002840F08D802268FD
:103CF800136823F48063136023681A69636A1A706F
:103D0800636A01336362238D013B2385638D9BB214
:103D1800013B9BB263850095334600221649204635
:103D2800FFF7FDFA002871D12268136843F4007385
:103D3800136023681A69636A1A70626A531C6362A3
:103D4800238D013B2385638D9BB2013B9BB2638529
:103D580023681B695370636A01336362238D013BD7
:103D68002385638D9BB2013B9BB26385ABE700BFA4
:103D7800020010000000FFFF040001002A4631463F
:103D88002046FFF700FD002842D123681A69636ABC
:103D98001A70636A01336362228D013A92B22285F6
:103DA800638D9BB2013B9BB263852368596911F00F
:103DB800040F88D0032A0FD023681A69636A1A701F
:103DC800636A01336362238D013B2385638D9BB254
:103DD800013B9BB2638576E71A6822F480621A6019
:103DE800EAE7202384F83D30002384F83E3084F845
:103DF8003C30A2E60227A0E602279EE601279CE6C1
:103E080001279AE6012798E6012796E6012794E616
:103E1800012792E682B0002100910B4B5A6C42F4C4
:103E280080425A645A6C02F480420092009A0191CE
:103E38001A6C42F080521A641B6C03F08053019391
:103E4800019B02B0704700BF0038024000B589B03E
:103E5800002303930493059306930793026803F1E1
:103E6800804303F590339A4202D009B05DF804FB11
:103E78000021019103F58C335A6C42F480725A6424
:103E88005A6C02F480720192019A02911A6B42F004
:103E980001021A631B6B03F001030293029B1023B8
:103EA80003930323049303A90148FFF723F9DCE7ED
:103EB800000002400268094B9A4200D0704782B065
:103EC80000230193064B1A6B42F480521A631B6B52
:103ED80003F480530193019B02B070470030024005
:103EE800003802402DE9F0478CB00023079308936F
:103EF80009930A930B9303684D4A934208D04D4A9D
:103F080093422AD04C4A93424DD00CB0BDE8F0877A
:103F180000250095494C236B43F002032363236B70
:103F280003F002030093009BC02307931223089316
:103F38000123099303230A9304230B9307A94048F9
:103F4800FFF7D8F80195236C43F400132364236C1E
:103F580003F400130193019BD7E700250295374C22
:103F6800236B43F002032363236B03F002030293E2
:103F7800029B4FF44063079312230893012309938C
:103F880003230A9304230B9307A92D48FFF7B2F8DC
:103F98000395236C43F480032364236C03F48003A8
:103FA8000393039BB1E700250495244C236B43F04E
:103FB80004032363236B03F004030493049B059514
:103FC800236B43F001032363236B03F00103059381
:103FD800059B4FF4007307934FF0120ACDF820A009
:103FE8004FF00109CDF824904FF00308CDF8288050
:103FF80004270B9707AE31461248FFF77BF84FF4BA
:1040080080730793CDF820A0CDF82490CDF82880B0
:104018000B9731460C48FFF76DF80695236C43F46F
:1040280000032364236C03F400030693069B6CE7E8
:104038000054004000580040005C00400038024036
:1040480000040240000802400000024000B585B0AC
:104058000023009301930293039302680B4B9A4247
:1040680002D005B05DF804FB022300934FF40073FF
:104078000393684601F058FB20B9054B0122C3F8A9
:104088003C2EEEE7FDF7C8FFF7E700BF0028004029
:10409800000047422DE9F0418CB0002307930893B4
:1040A80009930A930B930368474A934208D0474AF7
:1040B800934228D0464A934249D00CB0BDE8F081DB
:1040C80000210091434B5A6C42F480525A645A6C56
:1040D80002F480520092009A01911A6B42F0010298
:1040E8001A631B6B03F001030193019BE023079301
:1040F8000223089303230A9305230B9307A9364841
:10410800FEF7F8FFD9E700210291324B1A6C42F40E
:1041180080421A641A6C02F480420292029A039155
:104128001A6B42F002021A631B6B03F0020303933B
:10413800039B4FF4604307930223089303230A93D6
:1041480005230B9307A92548FEF7D4FFB5E70024FC
:104158000494204B1A6C42F400421A641A6C02F45C
:1041680000420492049A05941A6B42F001021A6301
:104178001A6B02F001020592059A06941A6B42F036
:1041880004021A631B6B03F004030693069B4FF4A7
:10419800004307934FF00208CDF8208003270A97C1
:1041A80006260B9607AD29460B48FEF7A3FF4FF4EA
:1041B800E0530793CDF8208009940A970B96294677
:1041C8000748FEF797FF78E70030014000380040C5
:1041D800003C004000380240000002400004024059
:1041E8000008024010B584B003682F4A934207D0F4
:1041F8002E4A93423DD02E4A934247D004B010BD78
:1042080004460023019302F50D32116C41F00201BE
:104218001164126C02F002020192019A2548264AA2
:1042280002604FF02062426040228260C3604FF417
:10423800806202614FF4805242614FF48042826191
:10424800C3614FF4403202624362FEF7B9FD68B9B8
:10425800184B63629C63A3639C63002211461D2074
:10426800FEF7FAFC1D20FEF707FDC7E7FDF7D4FEB1
:10427800EEE700230293114B1A6C42F004021A6411
:104288001B6C03F004030293029BB7E7002303931C
:104298000A4B1A6C42F008021A641B6C03F00803FC
:1042A8000393039BAAE700BF0004004000080040F6
:1042B800000C0040580200207060024000380240A4
:1042C80000B589B0002303930493059306930793DD
:1042D8000368274A934208D0264A93421BD0264AAD
:1042E80093422FD009B05DF804FB00230093234BC1
:1042F8001A6B42F002021A631B6B03F0020300936D
:10430800009B1023039302230493079303A91C48DB
:10431800FEF7F0FEE6E700230193184B1A6B42F014
:1043280002021A631B6B03F002030193019B4FF413
:104338004073039302230493079303A91048FEF7DD
:10434800D9FECFE7002302930C4B1A6B42F001020F
:104358001A631B6B03F001030293029B0F23039361
:1043680002230493079303A90648FEF7C3FEB9E79F
:104378000004004000080040000C004000380240E3
:10438800000402400000024000B589B000230393F6
:104398000493059306930793026803F1804303F59A
:1043A80088339A4202D009B05DF804FB00210191DC
:1043B80003F594335A6C42F010025A645A6C02F0B6
:1043C80010020192019A02911A6B42F001021A63DB
:1043D8001B6B03F001030293029B4FF4C06303932A
:1043E80002230493032306930723079303A9024890
:1043F800FEF780FED7E700BF000002402DE9F0433A
:1044080083B0D0F8008001EBC10300EB83039A6A04
:104418005B6A9A4254D807460C469B1A01EBC102C4
:1044280000EB8202D2699A4200D31A4602F10309CC
:104438004FEA990915E006F103094FEA9909BB7992
:1044480004EBC40507EB8505296A0093B3B2E2B211
:10445800404603F0CAF92B6A33442B62AB6A3344F3
:10446800AB6208EB441303F510639B699BB24B45A1
:1044780012D304EBC40307EB83039A6A5B6A9A427C
:104488000AD24BB19B1A04EBC40207EB8202D6692D
:104498009E42D0D31E46CEE704EBC40307EB830746
:1044A8007A6ABB6A9A420FD804F00F040122A2402C
:1044B800D8F8343823EA0203C8F83438002000E07A
:1044C800012003B0BDE8F0830020FAE730B583B0DF
:1044D80000287AD00446056890F89534C3B10323C0
:1044E80084F89534B5F1A04F17D0206802F02EFF5C
:1044F800237C8DF80030231D0ECB206802F064FE6B
:1045080070B1022384F895340125284603B030BDE4
:1045180080F8943403F022FCE1E70023A371E4E778
:104528000021206803F077FB0246B8B903462079DA
:10453800984218D903EBC30104EB810101204875A7
:104548000B75CB8500200876C861086203EBC301B0
:1045580004EB810148620133DBB2E8E7022384F807
:1045680095340125D1E7904217D902EBC20304EB39
:104578008303002183F8551283F8542283F85812D4
:10458800C3F85C12C3F8601202EBC20304EB8303A6
:10459800C3F864120132D2B2E5E7237C8DF800300B
:1045A800231D0ECB206802F027FF054620B1022309
:1045B80084F895340125A8E700236374012384F85F
:1045C8009534206803F0E6FA9FE701259DE7036824
:1045D80090F89424012A1AD010B50446012280F8D4
:1045E8009424DA6812F0400F02D0427B012A09D0E5
:1045F800206802F0A5FE206803F0BEFA002084F8C7
:10460800940410BD9A6B42F480329A63F0E702205A
:104618007047000070B504460D460068066C00EB54
:10462800411303F530639A68A179012911D03849FB
:104638008E4256D03DB905EBC50304EB8303D3F88E
:104648006432002B5ED0E9B2204603F0D3FB002091
:1046580070BD12F0080F09D02E498E42F7D912F416
:10466800004FF4D04FF400429A60F0E712F0200FA8
:1046780002D020229A60EAE712F0280FE7D12549F4
:104688008E4206D912F4004F03D04FF400429A60CC
:10469800DDE705EBC50204EB8202D2F874121B6950
:1046A800C3F31203CB1AC2F868327DB905EBC50211
:1046B80004EB8202D2F864226AB105EBC50204EB6E
:1046C8008202D2F860121944C2F86012E9B2204698
:1046D80003F090FBBBE704F29C42012103F0DAFAF5
:1046E800F4E712F4004F03D04FF400429A60AEE7AB
:1046F80012F0200F01D020229A60E9B2204603F080
:1047080079FBA4E704F29C42002103F0C3FA9AE77C
:104718000A31544F0A30544F38B5044603681D6CAB
:1047280003EB4113D3F8081B0E4A954207D903F54A
:10473800306311F4004F02D04FF400429A602046D3
:1047480003F050FB074B9D4202D9A379012B01D0FE
:10475800002038BD04F29C420121206803F09AFA37
:10476800F6E700BF0A30544F90F89434012B0CD070
:1047780010B50446012380F894344174006803F0AE
:10478800EBF9002084F8940410BD0220704738B576
:1047980005468C4611F0800F2BD101F00F0E0EEB61
:1047A800CE04A40004F514740444211D0EEBCE0EAF
:1047B80000EB8E0E00208EF855020CF00F0C81F8DD
:1047C80000C0C2F30A028A600B714A780AB1A1F8E4
:1047D8001AC0022B1CD095F89434012B1BD001234E
:1047E80085F89434286802F0E4FE002085F89404E3
:1047F80038BD01F00F0000EBC001890010312944D9
:10480800043100EBC00005EB800001244475D4E7B7
:1048180000234B71DFE70220EAE710B504460A4699
:1048280011F0800F20D101F00F0000EBC0039B00B6
:1048380003F514732344191D00EBC00004EB80003A
:10484800002380F8553202F00F020A7094F894346D
:10485800012B18D0012384F89434206802F0F6FE66
:10486800002084F8940410BD01F00F0000EBC00391
:104878009B0010332344191D00EBC00004EB80009B
:1048880001234375DFE70220EDE710B5144601F078
:104898000F0C0CEBCC01890001F5147101440431B3
:1048A8000CEBCC0E00EB8E0ECEF86022CEF8643204
:1048B8000023CEF868328EF855328EF854C28279C9
:1048C800012A04D0006802F0A7FF002010BDCEF82E
:1048D8007042F7E701F00F0101EBC10100EB810025
:1048E800D0F86802704710B5144601F00F0C0CEBB5
:1048F800CC0189001031014404310CEBCC0E00EBE3
:104908008E0ECEF82020CEF824300023CEF82830A2
:1049180001238EF815308EF814C082799A4204D09B
:10492800006802F079FF002010BDCEF83040F7E7AC
:1049380038B501F00F050279AA4238D304460B4670
:1049480011F0800F1FD101EBC101890001F514712D
:104958000144043103EBC30300EB8303002283F813
:10496800552201238B700D7094F89434012B20D0BC
:10497800012384F89434206803F093F885B100206B
:1049880084F8940438BD05EBC50189001031014451
:10499800043105EBC50300EB830301225A75E0E7F8
:1049A80004F29C42A179206803F074F9E7E701203A
:1049B800E8E70220E6E701F00F0302799A4230D3D4
:1049C80010B5044611F0800F1ED103EBC301890016
:1049D80001F514710144043103EBC30200EB8202B8
:1049E800002082F8550200228A700B7094F89434E3
:1049F800012B18D0012384F89434206803F07EF842
:104A0800002084F8940410BD03EBC3018900103121
:104A18000144043103EBC30200EB8202012050750C
:104A2800E1E7012070470220EDE708B511F0800F9B
:104A38000CD101F00F0101EBC101890001F51471DE
:104A480001440431006802F071FE08BD01F00F0155
:104A580001EBC1018900103101440431F2E72DE96D
:104A6800F04F83B004460568284603F0D0F810B12B
:104A780003B0BDE8F08F0646206803F099F80028D7
:104A8800F6D005F50067BB68C3F30D23C4F8D4342A
:104A9800206803F08DF810F0020F04D022685369E3
:104AA80003F002035361206803F082F810F0100F3E
:104AB80015D02268936923F010039361D5F82080FC
:104AC80008F00F0908F4F013B3F5802F4CD0B3F5B4
:104AD800402F6FD02268936943F0100393612068D8
:104AE80003F066F810F4002F76D1206803F060F820
:104AF80010F4802F40F0E080206803F059F8002877
:104B0800C0F26181206803F053F810F4006F09D0F7
:104B1800BB6813F0010F40F06E812268536903F4FB
:104B280000635361206803F043F810F4805F40F09D
:104B38006681206803F03CF810F4005F40F0B38110
:104B4800206803F035F810F0080F40F0C4812068A1
:104B580003F02EF810F0800F00F0D781AB6923F036
:104B68008003AB610126C0E147F6F07318EA030F32
:104B7800B0D04FEA181A4FEAC903019309EBC90BE1
:104B880004EB8B0BC8F30A12DBF86012284602F01C
:104B980065FFDBF86032CAF30A0A5344CBF8603287
:104BA800DBF86832019A4A4404EB82025344C2F8A3
:104BB80068328FE7082204F29C41284602F04EFF33
:104BC80009EBC90304EB8303D3F86822C8F30A1876
:104BD8004244C3F868227DE7206802F0EDFF804672
:104BE800B14635E005EB49130122C3F8082B4946C5
:104BF8002046FFF70FFD3CE005EB49130822C3F8F8
:104C0800082B49462046FFF787FD35E009EBC90325
:104C180004EB830393F85732012B41D005EB49137A
:104C28000222C3F8082B1AF0200F04D005EB491311
:104C38002022C3F8082B1AF4005F05D005EB4913AE
:104C48004FF40052C3F8082B09F101094FEA58083C
:104C5800B8F1000F3FF449AF18F0010FF4D05FFA34
:104C680089FB5946206802F0B7FF824610F0010F11
:104C7800B8D11AF0080FBFD11AF0100F04D005EB05
:104C880049131022C3F8082B1AF0020FCBD06B6916
:104C980013F0800FBAD07B6843F480637B60B5E77C
:104CA80009EBC90304EB8303002283F85722594612
:104CB800204603F0EFF8B1E7206802F085FF804650
:104CC800B14625E05946204603F0A0F81AF0080F2F
:104CD80004D005EB49130822C3F808291AF0100F6D
:104CE80004D005EB49131022C3F808291AF0400F25
:104CF80004D005EB49134022C3F808291AF0020F23
:104D080040D11AF0800F59D109F101094FEA58082A
:104D1800B8F1000F3FF4F0AE18F0010FF4D05FFACD
:104D280089FB5946206802F060FF824610F0010FA7
:104D3800CCD009F00F02012101FA02F27B6B23EAC1
:104D480002037B6305EB4913C3F80819A3798B4267
:104D5800B8D109EBC90304EB83031A6AD9690A4479
:104D68001A62B9F1000FADD109EBC90304EB830353
:104D78005B6A002BA6D104F29C420121206802F054
:104D880089FF9FE74946284602F0E6FA09EBC9037E
:104D980004EB8303DB7D012B05D005EB49130222CD
:104DA800C3F80829ADE709EBC90304EB8303002224
:104DB800DA755946204603F073F8EEE7494620466F
:104DC800FFF71CFBA0E77B6823F001037B6094F8E6
:104DD800CC34012B08D0204603F056F822685369DA
:104DE80003F0004353618DE6002184F8CC1420467B
:104DF80000F059F9F2E7204603F02EF88DE67B68BB
:104E080023F001037B601021206802F0A5FA1AE064
:104E180005EB46134FF67F31C3F80819D3F800297C
:104E280022F40012C3F80029C3F8081BD3F8002B9A
:104E380022F40012C3F8002BD3F8002B42F00062D2
:104E4800C3F8002B01362379B342E1D8FB6943F05C
:104E58000113FB61E37BDBB1D7F8843043F00B032C
:104E6800C7F884307B6C43F00B037B64D5F80038BB
:104E780023F4FE63C5F8003804F29C42A179206847
:104E880002F008FF2268536903F48053536150E627
:104E98007B6943F4005343F02B037B613B6943F088
:104EA8000B033B61E2E7206802F0E6FE206802F0AF
:104EB8006FFBE071266800F011FC0146E27930468C
:104EC80002F0CCF9204602F0B2FF2268536903F4DD
:104ED8000053536134E6204602F0A3FF2268536969
:104EE80003F00803536132E601362379B3420CD943
:104EF80006EBC60304EB830393F85732012BF3D177
:104F0800F1B22046FFF791FDEEE7206802F050FE6F
:104F180010F4801F25D1206802F04AFE10F4001F0B
:104F280058D0012326E001362379B3421BD905EB7B
:104F38004613D3F8002906EBC60304EB83031B7E54
:104F4800012BF0D1002AEEDA06EBC60304EB83034B
:104F58000122DA7566F07F01C9B22046FFF765FDC8
:104F6800E1E70126E0E72268536903F480135361FF
:104F7800D1E7013322799A4227D905EB4312D2F8B7
:104F8800001B03EBC30204EB820292F85822012AA9
:104F9800EFD10029EDDAD4F8D42482EA114212F0D4
:104FA800010FE6D103EBC30204EB8202012182F870
:104FB8005712AA6942F08002AA616A6912F0800F4A
:104FC800D7D17B6843F400737B602268536903F48C
:104FD80000135361206802F0EBFD10F0804F10D1F0
:104FE800206802F0E5FD10F0040F3FF441AD23689E
:104FF8005D6815F0040F0DD1226853682B43536088
:1050080036E5204602F052FF2268536903F08043D8
:105018005361E5E7204602F04FFFEDE790F894343E
:10502800012B14D010B50446012380F8943411F0F4
:10503800800F06D1006802F0B4F9002084F89404C7
:1050480010BD01F00F01006802F086F9F5E70220B3
:10505800704710B40468606A31B940EA0240A0623F
:1050680000205DF8044B70478C46A36A00EB1340A0
:10507800002308E003F1400104EB8101496800EBDB
:1050880011400133DBB20CF1FF318B42F2D340EA1D
:1050980002400CF13F0104EB81046060E0E7036823
:1050A8005962002070477047002800F0E08170B511
:1050B80082B00446036813F0010F3BD09F4B9B68F6
:1050C80003F00C03042B2CD09C4B9B6803F00C03BF
:1050D800082B21D06368B3F5803F4FD0B3F5A02FDC
:1050E80052D0964B1A6822F480321A601A6822F459
:1050F80080221A606368002B50D0FDF7AFFB05468D
:105108008E4B1B6813F4003F14D1FDF7A7FB401B1F
:105118006428F5D90320B1E1884B5B6813F4800F4C
:10512800D8D0864B1B6813F4003F03D06368002B6C
:1051380000F09F81236813F0020F54D07F4B9B68C7
:1051480013F00C0F3ED07D4B9B6803F00C03082B2B
:1051580033D0E368002B68D0794B01221A60FDF741
:105168007DFB0546754B1B6813F0020F54D1FDF704
:1051780075FB401B0228F5D903207FE16F4A1368AD
:1051880043F480331360B5E76C4B1A6842F480220D
:105198001A601A6842F480321A60ABE7FDF75EFBCA
:1051A8000546664B1B6813F4003FC3D0FDF756FB5A
:1051B800401B6428F5D9032060E1604B5B6813F459
:1051C800800FC6D15D4B1B6813F0020F03D0E36854
:1051D800012B40F05081594A136823F0F8032169E4
:1051E80043EAC1031360236813F0080F42D06369D0
:1051F8006BB3534B0122C3F8802EFDF72FFB0546F6
:105208004E4B5B6F13F0020F34D1FDF727FB401BA9
:105218000228F5D9032031E1484A136823F0F8033E
:10522800216943EAC1031360DDE7454B00221A6098
:10523800FDF714FB0546414B1B6813F0020FD2D053
:10524800FDF70CFB401B0228F5D9032016E13C4B67
:105258000022C3F8802EFDF701FB0546374B5B6F34
:1052680013F0020F06D0FDF7F9FA401B0228F5D912
:10527800032003E1236813F0040F77D02F4B1B6C36
:1052880013F0805F33D1002301932C4B1A6C42F04A
:1052980080521A641B6C03F080530193019B012513
:1052A800284B1B6813F4807F23D0A368012B34D0CC
:1052B800052B38D0214B1A6F22F001021A671A6F9A
:1052C80022F004021A67A368002B3DD0FDF7C6FA46
:1052D80006461A4B1B6F13F0020F46D1FDF7BEFAB4
:1052E800801B41F288339842F3D90320C6E0002599
:1052F800D6E7144A136843F480731360FDF7AEFAD7
:105308000646104B1B6813F4807FCED1FDF7A6FA32
:10531800801B0228F5D90320B0E0084A136F43F038
:1053280001031367CFE7054B1A6F42F004021A67AF
:105338001A6F42F001021A67C5E700BF0038024041
:105348000000474200700040FDF788FA0646524BBD
:105358001B6F13F0020F08D0FDF780FA801B41F293
:1053680088339842F3D9032088E0EDB9A369002B6C
:1053780000F08380484A926802F00C02082A51D053
:10538800022B17D0454B00221A66FDF767FA044630
:10539800414B1B6813F0007F42D0FDF75FFA001BFA
:1053A8000228F5D9032069E03B4A136C23F08053A7
:1053B8001364DBE7394B00221A66FDF74FFA0546FE
:1053C800354B1B6813F0007F06D0FDF747FA401BEA
:1053D8000228F5D9032051E0E369226A1343626A7F
:1053E80043EA8213A26A5208013A43EA0243E26A94
:1053F80043EA0263284A5360284B01221A66FDF7E4
:105408002DFA0446244B1B6813F0007F06D1FDF7E4
:1054180025FA001B0228F5D903202FE000202DE0F3
:1054280000202BE0012B2BD01B4B5B6803F4800181
:10543800E269914226D103F03F02216A8A4223D1D0
:10544800616A47F6C0721A40B2EB811F1ED103F49D
:105458004031A26A5208013AB1EB024F18D103F069
:105468007063E26AB3EB026F14D1002006E00120FA
:105478007047012002E0012000E0002002B070BD6A
:105488000120FBE70120F9E70120F7E70120F5E714
:105498000120F3E70120F1E700380240000047420D
:1054A80008B5334B9B6803F00C03042B5BD0082B27
:1054B8005BD12F4B5A6802F03F025B6813F4800FF0
:1054C8002CD02B4B5868C0F388104FEA401CBCEB1B
:1054D800000C6EEB0E0E4FEA8E1343EA9C634FEA04
:1054E8008C11B1EB0C0163EB0E03DB0043EA517343
:1054F800C90011EB000C43F10003590200234FEAE5
:105508004C2041EADC51FAF73BFE194B5B68C3F3C8
:10551800014301335B00B0FBF3F008BD144B58683E
:10552800C0F388104FEA401CBCEB000C6EEB0E0E6B
:105538004FEA8E1343EA9C634FEA8C11B1EB0C01DE
:1055480063EB0E03DB0043EA5173C90011EB000C57
:1055580043F10003990200234FEA8C2041EA9C5151
:10556800FAF70EFED1E70348D7E70348D5E700BFAF
:105578000038024000127A000024F400002800F0ED
:105588009B8070B50D4604464F4B1B6803F007031C
:105598008B4208D2CBB24C4A1370136803F007034E
:1055A8008B4240F08B80236813F0020F17D013F062
:1055B800040F04D0454A936843F4E053936023688A
:1055C80013F0080F04D0414A936843F46043936092
:1055D8003E4A936823F0F003A1680B439360236865
:1055E80013F0010F32D06368012B21D09A1E012AD3
:1055F80025D9364A126812F0020F61D033498A68F9
:1056080022F0030213438B60FDF728F906462F4B5F
:105618009B6803F00C036268B3EB820F16D0FDF7AA
:105628001DF9801B41F288339842F0D9032042E0EB
:10563800264A126812F4003FE0D101203BE0234AD9
:10564800126812F0007FD9D1012034E01E4B1B688C
:1056580003F00703AB4207D9EAB21B4B1A701B6869
:1056680003F00703AB422DD1236813F0040F06D0D3
:10567800164A936823F4E053E1680B439360236868
:1056880013F0080F07D0114A936823F46043216987
:1056980043EAC1039360FFF703FF0C4B9B68C3F316
:1056A80003130B4AD35CD8400A4B18600A4B18689E
:1056B800FDF788F8002070BD012070470120FAE747
:1056C8000120F8E70120F6E7003C024000380240DC
:1056D80090A600080800002004000020014B18686C
:1056E800704700BF0800002008B5FFF7F7FF044B1C
:1056F8009B68C3F38223034AD35CD84008BD00BF2C
:105708000038024088A6000808B5FFF7E7FF044BF9
:105718009B68C3F34233034AD35CD84008BD00BF3B
:105728000038024088A6000830B583B004460368F4
:1057380013F0050F06D1236813F0020F2ED10020B5
:1057480003B030BD4A4B00229A66FDF787F805463C
:10575800484B1B6813F0006F06D0FDF77FF8431B1A
:10576800022BF5D90320EBE76268A3681B0743EA1D
:105778008213404AC2F884303D4B01229A66FDF7F5
:105788006DF805463B4B1B6813F0006FD3D1FDF74E
:1057980065F8431B022BF5D90320D1E700230193B9
:1057A800344B1A6C42F080521A641B6C03F080531D
:1057B8000193019B304A136843F480731360FDF72B
:1057C8004DF805462C4B1B6813F4807F06D1FDF776
:1057D80045F8431B022BF5D90320B1E7254B1B6F76
:1057E80013F4407314D0E26802F440729A420FD066
:1057F800204B1A6F22F440721D490120C1F8400E57
:105808000020C1F8400E1A671B6F13F0010F13D167
:10581800E36803F44072B2F5407F1ED0154A9368DE
:1058280023F4F813936013490B6FE268C2F30B0279
:1058380013430B67002083E7FDF710F805460D4B6F
:105848001B6F13F0020FE3D1FDF708F8401B41F27C
:1058580088339842F3D9032072E706498A6822F40C
:10586800F81223F0704323F4407313438B60DAE794
:1058780000004742003802400070004038B5044636
:1058880003680A4ADA60FCF7E9FF05462368DB6823
:1058980013F0200F07D1FCF7E1FF401BB0F57A7F2A
:1058A800F4D9032000E0002038BD00BF5F7F01006D
:1058B80070B50368DA6812F0400F02D00025284658
:1058C80070BD0446DA6842F08002DA60FCF7C6FF71
:1058D800064600252368DB6813F0400FEFD1002D42
:1058E800EDD1FCF7BBFF831BB3F57A7FF2D9042314
:1058F80063770125EEE70268D36823F08003D3605D
:1059080003689B6813F0200F01D00020704710B582
:105918000446FFF7B3FF10B104236377012010BDDD
:1059280000284AD010B50446437F53B10223637759
:105938002368DA6812F0100F07D00020012363777C
:1059480010BD0377FEF782FBF0E7CA225A6223688C
:1059580053225A622046FFF7ABFF28B12368FF2283
:105968005A620028ECD1E9E72268936823F4E0033F
:1059780023F04003936021688A68636820690343C1
:105988006069034313438B602368E2681A612268E5
:105998001369A16843EA014313612046FFF7ABFF8F
:1059A8000028DBD12268136C23F480231364226857
:1059B800136CA1690B431364D0E701207047000002
:1059C8002DE9F04782B00546884617461E46FCF783
:1059D80045FF0A9B1B1A03EB0609FCF73FFF8246AB
:1059E800284B1B68C3F3CB3309FB03F301932B68E4
:1059F8009C6838EA04040CBF01230023BB423DD055
:105A0800B6F1FF3FF3D0FCF729FFA0EB0A004845A9
:105A180003D2019B73BB9946E9E72A68536823F0D0
:105A2800E00353606B68B3F5827F0BD0AB6AB3F5C4
:105A3800005F14D0012385F85130002385F85030D9
:105A480003201CE0AB68B3F5004F02D0B3F5806FBC
:105A5800ECD12A68136823F040031360E6E72A684C
:105A6800136823F4005313602A68136843F400533F
:105A78001360DFE7019B013B0193B8E7002002B008
:105A8800BDE8F0870800002070B584B004460D46D4
:105A9800164600920B4601220221FFF791FFD0B96A
:105AA800174B1B68174AA2FB03235B0D4FF47A724E
:105AB80002FB03F303936368B3F5827F11D0039B62
:105AC8003BB1039B013B039323689B6813F0800F52
