:020000040800F2
:100000000000022089690008993900089B3900081E
:100010009D3900089F390008A13900080000000040
:10002000000000000000000000000000A3390008EC
:10003000A539000800000000A7390008A939000808
:10004000D9690008D9690008D9690008D969000888
:10005000D9690008D9690008D9690008D969000878
:10006000D9690008D9690008D9690008D969000868
:10007000D9690008D9690008D9690008B1390008B0
:10008000D9690008D9690008D9690008D969000848
:10009000D9690008D9690008D9690008D969000838
:1000A000D9690008D9690008D9690008D969000828
:1000B000D9690008D9690008D9690008D969000818
:1000C000D9690008D9690008D9690008D969000808
:1000D000D9690008D9690008D9690008D9690008F8
:1000E000D9690008D9690008D9690008D9690008E8
:1000F000D9690008D9690008D9690008D9690008D8
:10010000D9690008D9690008D9690008D9690008C7
:10011000D9690008D9690008D9690008D9690008B7
:10012000D9690008D9690008D9690008D9690008A7
:10013000D96900080000000000000000D96900082B
:10014000D9690008D9690008D9690008C1390008CF
:10015000D9690008D9690008D9690008D969000877
:10016000D9690008D9690008D9690008D969000867
:10017000D9690008D96900080000000000000000EB
:08018000D9690008D9690008E3
:1001880053B94AB9002908BF00281CBF4FF0FF31F6
:100198004FF0FF3000F00CB8ADF1080C6DE904CE5B
:1001A80006F044FCDDF804E0DDE9022304B0704702
:1001B800704700BF0348044B834202D0034B03B18E
:1001C80018477047000100200001002000000000CF
:1001D8000548064B1B1AD90F01EBA301491002D0A1
:1001E800034B03B1184770470001002000010020AD
:1001F8000000000010B5064C237843B9FFF7DAFF7A
:10020800044B13B10448AFF300800123237010BDE1
:1002180000010020000000002C6D000808B5054B07
:100228001BB105490548AFF30080BDE80840FFF75A
:10023800CFBF00BF00000000040100202C6D0008A3
:100248002DE9F04F8BB005AD002405940694079472
:100258000894099400944A4B1A6B42F004021A63FA
:100268001A6B02F004020092009A01941A6B42F091
:1002780080021A631A6B02F080020192019A0294BA
:100288001A6B42F001021A631A6B02F00102029221
:10029800029A03941A6B42F002021A631A6B02F074
:1002A80002020392039A04941A6B42F008021A633A
:1002B8001B6B03F008030493049B324E224640F262
:1002C8008911304601F056F801223021304601F0FC
:1002D80051F8DFF8B48022462121404601F04AF85F
:1002E800DFF8A89022460421484601F043F840F27E
:1002F80089130593012706970794089429463046E1
:1003080000F042FF302305930697079403230893D0
:100318002946304600F038FF2123059306970794B5
:1003280008942946404600F02FFF022305930694BF
:1003380007942946404600F027FF4FF0040ACDF8FD
:1003480014A04FF4881BCDF818B0079429464046EE
:1003580000F01AFF40230593CDF818B007942946FA
:10036800304600F011FFCDF814A0069707940894C2
:100378002946484600F008FF0BB0BDE8F08F00BFE3
:10038800003802400008024000040240000C02400D
:1003980000B583B000210191094B1A6B42F4001299
:1003A8001A631B6B03F400130193019B0A460F2089
:1003B80000F008FD0F2000F015FD03B05DF804FB08
:1003C8000038024072B6FEE700B585B000230093FE
:1003D8000193029303931348134A026043608360B6
:1003E8000361037680F82030C362104A8262C360DA
:1003F8000122C26180F83030426100F099FB68B98F
:1004080004230093012301930023029369460548BE
:1004180000F0BAFB20B905B05DF804FBFFF7D2FF86
:10042800FFF7D0FFC0040020002001400100000FAA
:1004380008B50A480A4B03600A4B436000238360EF
:10044800C3604FF48042026143618361C361036208
:1004580000F096FF00B908BDFFF7B4FF6C04002058
:1004680000540040801A060008B50A480A4B036089
:100478000A4B436000238360C3604FF480420261EB
:1004880043618361C361036200F07AFF00B908BD6C
:10049800FFF798FF1804002000580040801A060053
:1004A80008B50A480A4B03600A4B4360002383607F
:1004B800C3604FF48042026143618361C361036298
:1004C80000F05EFF00B908BDFFF77CFFC403002001
:1004D800005C0040A086010008B50948094B03608C
:1004E800002343607F228260FF22C2600361436170
:1004F800836102F089FD00B908BDFFF763FF00BF03
:10050800A40300200028004008B50D480D4B0360E7
:100518004FF48273436000238360C36003614361C7
:100528004FF400728261C3610362436283620A23EB
:10053800C36202F0B8FD00B908BDFFF743FF00BF72
:100548004C0300200030014008B50D480D4B0360F6
:100558004FF48273436000238360C3600361436187
:100568004FF4802282610822C2610362436283627F
:100578000A23C36202F097FD00B908BDFFF722FF06
:10058800F40200200038004008B50D480D4B036008
:100598004FF48273436000238360C3600361436147
:1005A8004FF480228261C3610362436283620A233B
:1005B800C36202F078FD00B908BDFFF703FF00BF72
:1005C8009C020020003C004000B58FB000230A9335
:1005D8000B930C930D930893099301930293039340
:1005E80004930593069307931D481E4A02604360CF
:1005F80083605922C2600361836102F0E5FE20BB7B
:100608004FF480530A930AA9154803F043F8F0B948
:10061800134802F031FFE0B900230893099308A9B1
:100628000F4803F0B7F8B0B9602301930022029293
:100638000392059201A90A4802F0B1FF68B9084877
:1006480001F0B2F90FB05DF804FBFFF7BBFEFFF74E
:10065800B9FEFFF7B7FEFFF7B5FEFFF7B3FE00BF21
:10066800540200200004004000B58FB000230A9314
:100678000B930C930D93089309930193029303939F
:1006880004930593069307932248234A0260436024
:1006980083604FF6FF72C2600361836102F094FECB
:1006A80058BB4FF480530A930AA91A4802F0F2FF84
:1006B80028BB184802F0E0FE18BB002308930993F2
:1006C80008A9144803F066F8E8B9602301930023E9
:1006D800029303930593082201A90E4802F05FFFD5
:1006E80098B90C2201A90B4802F059FF78B90948BA
:1006F80001F05AF90FB05DF804FBFFF763FEFFF74E
:1007080061FEFFF75FFEFFF75DFEFFF75BFEFFF799
:1007180059FE00BF0C0200200008004000B58FB051
:1007280000230A930B930C930D9308930993019359
:100738000293039304930593069307933048314A31
:100748000260436083604FF0FF32C26003618361DF
:1007580002F03AFE002840D14FF480530A930AA9C8
:10076800274802F097FF002839D1254802F084FE77
:10077800002836D1224802F053FE002833D1002346
:100788000893099308A91E4803F004F868BB60237E
:100798000193002202920392059201A9184802F0DF
:1007A800FEFE20BB04220DEB0201154802F0F7FE05
:1007B800F8B9082201A9124802F0F1FED8B90023BD
:1007C80001930C2201A90E4802F0BAFEA8B90C4800
:1007D80001F0EAF80FB05DF804FBFFF7F3FDFFF74F
:1007E800F1FDFFF7EFFDFFF7EDFDFFF7EBFDFFF77D
:1007F800E9FDFFF7E7FDFFF7E5FDFFF7E3FD00BFC4
:10080800C4010020000C004008B50A480A4B0360E8
:100818004FF4E133436000238360C36003610C221B
:1008280042618361C36103F083F800B908BDFFF733
:10083800C9FD00BF1C0100200010014010B594B094
:1008480008AC30220021204606F0C3F800230393A9
:1008580004930593069307930193214A116C41F081
:1008680080511164126C02F080520192019A029335
:100878001C4B1A6842F480421A601B6803F48043D8
:100888000293029B092308934FF4803309930123B1
:100898000D9302230E934FF480020F9204221092BC
:1008A80090221192129306231393204601F070FFB1
:1008B80090B90F23039302230493002305934FF465
:1008C800A05306934FF480530793042103A802F022
:1008D800C9F918B914B010BDFFF774FDFFF772FD20
:1008E800003802400070004008B500F047F8FFF7F4
:1008F800A5FFFFF7A5FCFFF74BFDFFF765FDFFF729
:1009080097FDFFF7B1FDFFF7CBFDFFF7E5FDFFF71B
:10091800FBFDFFF719FEFFF737FEFFF755FEFFF760
:10092800A3FEFFF7FBFEFFF76FFF03F019FEFEE7DC
:1009380010B504460E4B1A784FF47A73B3FBF2F3F2
:100948000C4A1068B0FBF3F000F050FA68B90F2CAD
:1009580001D901200AE0002221464FF0FF3000F0C3
:1009680031FA054B1C60002000E0012010BD00BFDB
:1009780000000020080000200400002008B50B4BF0
:100988001A6842F400721A601A6842F480621A60A7
:100998001A6842F480721A60032000F001FA0F20EE
:1009A800FFF7C6FF00F0CAFD002008BD003C02406A
:1009B800034A1168034B1B780B441360704700BF50
:1009C8000805002000000020014B1868704700BF90
:1009D8000805002038B50446FFF7F6FF0546B4F1D0
:1009E800FF3F02D0044B1B781C44FFF7EDFF401B70
:1009F800A042FAD338BD00BF000000204A4B5A6815
:100A080022F440325A605A6841680A435A600268C0
:100A1800536823F48073536002685368016943EA9A
:100A2800012353600268536823F0407353600268DF
:100A3800536881680B4353600268936823F400632A
:100A4800936002689368C1680B439360826A374B6E
:100A58009A4257D00268936823F0706393600268E3
:100A68009368816A0B4393600268936823F040534C
:100A7800936002689368C16A0B4393600268936845
:100A880023F00203936002689368017E43EA4103FE
:100A9800936090F82030002B3FD00268536843F4ED
:100AA800006353600268536823F46043536001682D
:100AB8004B68426A013A43EA42334B600268D36AA0
:100AC80023F47003D3620168CB6AC269013A43EA2E
:100AD8000253CB620268936823F400739360026840
:100AE800936890F8301043EA412393600268936852
:100AF80023F48063936002689368416943EA812321
:100B0800936070470268936823F07063936002688B
:100B1800936823F040539360B0E70268536823F466
:100B280000635360CAE700BF002301400100000FC3
:100B380038B310B50446036C43B1236C13F0100F9F
:100B48000BD00120002384F83C3010BD00F012FDCA
:100B58000023636484F83C30EFE7236C23F4885364
:100B680023F0020343F0020323642046FFF746FF05
:100B780000206064236C23F0030343F00103236423
:100B8800E0E701207047000030B482B000220192F3
:100B980090F83C20012A00F0B6800346012280F834
:100BA8003C200A68092A40D90468E06892B202EB3E
:100BB80042021E3A4FF0070C0CFA02F220EA020237
:100BC800E2601C68E0680A8802EB42021E3A8D68FF
:100BD80005FA02F20243E2604A68062A3CD81C6819
:100BE800606B02EB8202053A4FF01F0C0CFA02F21E
:100BF80020EA020262631C68606B4A6802EB8202A8
:100C0800053AB1F800C00CFA02F2024362631868B0
:100C18003E4A904250D018683C4A904255D0002035
:100C280083F83C0002B030BC70470468206992B277
:100C380002EB42024FF0070C0CFA02F220EA020221
:100C480022611C6820690A8802EB42028D6805FA55
:100C580002F202432261BFE70C2A16D81D68286BEE
:100C680002EB8202233A1F2404FA02F220EA02026B
:100C78002A631D68286B4A6802EB8202233A0C88B3
:100C880004FA02F202432A63C1E71D68E86A02EB2C
:100C98008202413A1F2404FA02F220EA0202EA62BE
:100CA8001D68E86A4A6802EB8202413A0C8804FA35
:100CB80002F20243EA62AAE70A68122AABD1144890
:100CC800426842F480024260A5E70A68103A012AA5
:100CD800A5D80F48426842F4000242600A68102A08
:100CE8009DD10C4A12680C49A1FB0212920C02EB2E
:100CF80082025200019202E0019A013A0192019A9D
:100D0800002AF9D18BE702208CE700BF00200140C0
:100D1800002301400800002083DE1B43002807DB76
:100D280000F01F02400901239340024A42F8203094
:100D3800704700BF00E100E0002808DB0901C9B2E4
:100D480000F1604000F5614080F80013704700F042
:100D58000F000901C9B2014B1954704714ED00E0A6
:100D680000B500F00700C0F1070CBCF1040F28BF64
:100D78004FF0040C031D062B0FD9C31E4FF0FF3E86
:100D88000EFA0CF021EA000199400EFA03FE22EA5D
:100D98000E0241EA02005DF804FB0023EEE70000C2
:100DA800074AD36823F4E0631B041B0C000200F419
:100DB800E060034343F0BF6343F40033D3607047FC
:100DC80000ED00E010B50446054BD868C0F30220DA
:100DD800FFF7C6FF01462046FFF7AEFF10BD00BF74
:100DE80000ED00E008B5FFF799FF08BD0138B0F144
:100DF800807F0BD24FF0E0235861054AF02182F83A
:100E080023100020986107221A617047012070475B
:100E180000ED00E010B40368D9B210390A4AA2FB09
:100E280001421209094CA25CC2655F2907D96FF318
:100E3800090304338365806D5DF8044B70476FF3D5
:100E480009038365F7E700BFABAAAAAA446D0008A7
:100E5800836A826992B9012B0AD0022B02D00BB1A6
:100E680000207047C36A13F0807F28D100207047A4
:100E7800C36AB3F1C07F24D000207047B2F5005F89
:100E880009D0022B25D9032B25D1C36A13F0807F03
:100E980023D100207047032B03D8DFE803F01404A4
:100EA800140A00207047C36A13F0807F0DD1002018
:100EB8007047C36AB3F1C07F09D000207047012092
:100EC80070470120704701207047012070470120BA
:100ED80070470120704700207047012070470000CC
:100EE80070B50446FFF770FD002C5BD00546022361
:100EF80084F83530002384F834302268136823F0EE
:100F08000103136023681A6812F0010F0AD0FFF773
:100F18005BFD431B052BF5D920236365032084F86B
:100F2800350070BD1A68204911406268A068024304
:100F3800E06802432069024360690243A0690243F2
:100F4800E0690243206A02430A43616A04291ED009
:100F58001A602668756925F00705636A1D43042B26
:100F680007D1A36A1D43E36A1BB12046FFF770FF50
:100F780090B975612046FFF74DFFE26D3F2393401E
:100F8800836000206065012384F83530C9E7E16A91
:100F9800206B01430A43DBE740236365012084F8A3
:100FA8003500BEE70120BCE73F8010F0F0B583B004
:100FB800044600230193724B1D68724BA3FB053551
:100FC800AD0A876D3E68C26D08239340334210D046
:100FD80003681A6812F0040F0BD01A6822F0040292
:100FE8001A60C26D08239340BB60436D43F0010350
:100FF8004365E26D01239340334209D02268526968
:1010080012F0800F04D0BB60636D43F00203636588
:10101800E26D04239340334209D02268126812F02B
:10102800020F04D0BB60636D43F004036365E26D97
:1010380010239340334224D02268126812F0080F1C
:101048001FD0BB6023681A6812F4802F0DD01B686C
:1010580013F4002F04D1236C9BB12046984710E06D
:10106800A36C73B1204698470BE01A6812F4807F8E
:1010780003D11A6822F008021A60236C0BB12046CB
:101088009847E26D20239340334254D02268126877
:1010980012F0100F4FD0BB6094F83530052B0ED0EE
:1010A80023681A6812F4802F33D01B6813F4002FBA
:1010B8002AD1636C002B3ED0204698473BE022683B
:1010C800136823F0160313602268536923F0800322
:1010D8005361236CA3B12268136823F008031360DB
:1010E800E26D3F239340BB60012384F83530002331
:1010F80084F83430236D002B3FD0204698473CE0DD
:10110800A36C002BE7D1EBE7E36BA3B1204698472C
:1011180011E01A6812F4807F09D11A6822F01002CF
:101128001A60012384F83530002384F83430E36BE7
:101138000BB120469847636DFBB1636D13F0010F47
:1011480017D0052384F835302268136823F001038B
:101158001360019B01330193AB4204D823681B68D9
:1011680013F0010FF5D1012384F83530002384F8FA
:101178003430E36C0BB12046984703B0F0BD00BF94
:1011880008000020B5814E1B00230F2B00F2E980D8
:1011980070B582B065E085684FEA430E032404FA0F
:1011A8000EF425EA0405CC6804FA0EF42C43846096
:1011B800446824EA02044A68C2F300129A402243AF
:1011C80042605CE0DC08083450F8242003F007058E
:1011D800AD004FF00F0E0EFA05FE22EA0E0E0A6958
:1011E800AA4042EA0E0240F824205CE0072200E010
:1011F800002202FA0EF22A4302345A4D45F82420FE
:10120800594A94686FEA0C0224EA0C054E6816F4F1
:10121800801F01D04CEA0405534CA560E46802EA3B
:1012280004054E6816F4001F01D04CEA04054E4C24
:10123800E560646802EA04054E6816F4003F01D0D0
:101248004CEA0405484C6560246822404D6815F452
:10125800803F01D04CEA0402434C226001330F2B3B
:101268007DD801229A400C6804EA020C32EA040490
:10127800F4D14C6804F00304013C012C8BD94A6872
:1012880002F00302032A09D0C4685D000322AA40C1
:1012980024EA02048A68AA402243C2604A6802F02B
:1012A8000302022A8ED004684FEA430E032202FA90
:1012B8000EF224EA02044A6802F0030202FA0EF26D
:1012C800224302604A6812F4403FC7D000220192CC
:1012D800264A546C44F480445464526C02F48042AC
:1012E8000192019A9C08A51C1E4A52F8255003F049
:1012F800030E4FEA8E0E0F2202FA0EF225EA0205BD
:101308001B4A90423FF474AF02F5806290421AD0B3
:1013180002F58062904218D002F58062904216D0A1
:1013280002F58062904214D002F58062904212D099
:1013380002F58062904210D002F5806290423FF43C
:1013480055AF082255E7012253E7022251E703224D
:101358004FE704224DE705224BE7062249E702B092
:1013680070BD704700380140003C01400038024021
:10137800000002400AB18161704709048161704729
:10138800002800F0CC8070B5044690F83D30002B62
:1013980077D0242384F83D302268136823F00103B2
:1013A80013602268136843F40043136022681368CB
:1013B80023F40043136001F00BFD62685A4B9A4214
:1013C80064D85A4B98428CBF00230123002B40F06D
:1013D800A8805749A1FB00318B0C25686A6822F068
:1013E8003F0242EA91426A6021680A6A22F03F029B
:1013F80066684D4DAE424FD8013313430B622168E6
:10140800CA6922F44F4222F0FF026568464B9D42AA
:101418004CD8431E6D00B3FBF5F3013340F6FC7066
:10142800034278D0C3F30B031A43CA6121680B68DF
:1014380023F0C003E269206A024313430B6021686A
:101448008B6823F4034323F0FF032269E068024317
:1014580013438B602168CB6823F0FF036269A0699E
:1014680002431343CB602268136843F001031360FF
:1014780000202064202384F83D30206384F83E0057
:1014880070BD80F83C3000F0A9F882E7294B9842FB
:101498008CBF0023012399E74FF4967505FB03F3EE
:1014A800254DA5FB03539B090133A6E7A668BEB9E2
:1014B800431E05EB450CB3FBFCF30133C3F30B03ED
:1014C800B3FA83F35B0943BBC6B9431E05EB450575
:1014D800B3FBF5F30133C3F30B0343F40043A3E772
:1014E800431E05EB850C0CEB8C0CB3FBFCF30133B2
:1014F800C3F30B03B3FA83F35B09E4E7431E05EB7D
:10150800850505EB8505B3FBF5F30133C3F30B0341
:1015180043F4404388E7042386E7012384E7012056
:1015280070470120ACE700BFA08601007F841E0041
:1015380083DE1B43FF083D00D34D621082B00021BB
:1015480000910B4B5A6C42F480425A645A6C02F474
:1015580080420092009A01911A6C42F080521A64FB
:101568001B6C03F080530193019B02B0704700BFCE
:101578000038024000B589B0002303930493059313
:1015880006930793026803F1804303F590339A4268
:1015980002D009B05DF804FB0021019103F58C33FA
:1015A8005A6C42F480725A645A6C02F48072019246
:1015B800019A02911A6B42F001021A631B6B03F045
:1015C80001030293029B102303930323049303A9AB
:1015D8000148FFF7D9FDDCE7000002402DE9F0479C
:1015E8008CB000230793089309930A930B9303681D
:1015F8004D4A934208D04D4A93422AD04C4A9342CE
:101608004DD00CB0BDE8F08700250095494C236B00
:1016180043F002032363236B03F002030093009B50
:10162800C0230793122308930123099303230A93E2
:1016380004230B9307A94048FFF7A6FD0195236CE7
:1016480043F400132364236C03F400130193019BF8
:10165800D7E700250295374C236B43F00203236339
:10166800236B03F002030293029B4FF4406307933A
:10167800122308930123099303230A9304230B934A
:1016880007A92D48FFF780FD0395236C43F48003D9
:101698002364236C03F480030393039BB1E70025C1
:1016A8000495244C236B43F004032363236B03F05A
:1016B80004030493049B0595236B43F00103236300
:1016C800236B03F001030593059B4FF40073079305
:1016D8004FF0120ACDF820A04FF00109CDF8249060
:1016E8004FF00308CDF8288004270B9707AE314642
:1016F8001248FFF749FD4FF480730793CDF820A0F7
:10170800CDF82490CDF828800B9731460C48FFF788
:101718003BFD0695236C43F400032364236C03F418
:1017280000030693069B6CE70054004000580040F5
:10173800005C0040003802400004024000080240FB
:101748000000024000B585B0002300930193029386
:10175800039302680B4B9A4202D005B05DF804FB74
:10176800022300934FF400730393684601F050FB83
:1017780020B9054B0122C3F83C2EEEE7FEF722FE06
:10178800F7E700BF00280040000047422DE9F0417C
:101798008CB000230793089309930A930B9303686B
:1017A800474A934208D0474A934228D0464A934230
:1017B80049D00CB0BDE8F08100210091434B5A6C30
:1017C80042F480525A645A6C02F480520092009A91
:1017D80001911A6B42F001021A631B6B03F00103BB
:1017E8000193019BE02307930223089303230A93A1
:1017F80005230B9307A93648FFF7C6FCD9E7002154
:101808000291324B1A6C42F480421A641A6C02F448
:1018180080420292029A03911A6B42F002021A6302
:101828001B6B03F002030393039B4FF4704307936E
:101838000223089303230A9305230B9307A925483A
:10184800FFF7A2FCB5E700240494204B1A6C42F47D
:1018580000421A641A6C02F400420492049A059435
:101868001A6B42F001021A631A6B02F00102059228
:10187800059A06941A6B42F004021A631B6B03F074
:1018880004030693069B4FF4004307934FF00208A6
:10189800CDF8208003270A9706260B9607AD294620
:1018A8000B48FFF771FC4FF4E0530793CDF8208005
:1018B80009940A970B9629460748FFF765FC78E7CD
:1018C8000030014000380040003C00400038024031
:1018D80000000240000402400008024010B584B035
:1018E80003682B4A934207D02A4A934235D02A4AA2
:1018F80093423FD004B010BD04460023019302F583
:101908000D32116C41F002011164126C02F00202F6
:101918000192019A2148224A02604FF020624260F7
:1019280040228260C3604FF4806202614FF48052AB
:1019380042614FF480428261C3614FF440320262D7
:101948004362FFF7CDFA28B9144B63629C63A36323
:101958009C63CFE7FEF736FDF6E700230293114BB1
:101968001A6C42F004021A641B6C03F0040302931D
:10197800029BBFE7002303930A4B1A6C42F008024C
:101988001A641B6C03F008030393039BB2E700BFC0
:101998000004004000080040000C004064010020E2
:1019A800706002400038024000B589B000230393FC
:1019B80004930593069307930368274A934208D034
:1019C800264A93421BD0264A93422FD009B05DF88D
:1019D80004FB00230093234B1A6B42F002021A63A4
:1019E8001B6B03F002030093009B10230393022355
:1019F8000493079303A91C48FFF7C6FBE6E70023F7
:101A08000193184B1A6B42F002021A631B6B03F026
:101A180002030193019B4FF4407303930223049341
:101A2800079303A91048FFF7AFFBCFE70023029302
:101A38000C4B1A6B42F001021A631B6B03F0010393
:101A48000293029B0F23039302230493079303A992
:101A58000648FFF799FBB9E700040040000800407A
:101A6800000C004000380240000402400000024020
:101A780000B589B000230393049305930693079355
:101A8800026803F1804303F588339A4202D009B013
:101A98005DF804FB0021019103F594335A6C42F080
:101AA80010025A645A6C02F010020192019A0291D3
:101AB8001A6B42F001021A631B6B03F001030293D5
:101AC800029B4FF4C06303930223049303230693FA
:101AD8000723079303A90248FFF756FBD7E700BF80
:101AE800000002402DE9F04383B0D0F8008001EBFC
:101AF800C10300EB83039A6A5B6A9A4254D807468B
:101B08000C469B1A01EBC10200EB8202D2699A4291
:101B180000D31A4602F103094FEA990915E006F1C4
:101B280003094FEA9909BB7904EBC40507EB85055E
:101B3800296A0093B3B2E2B2404602F082FA2B6AF5
:101B480033442B62AB6A3344AB6208EB441303F5AE
:101B580010639B699BB24B4512D304EBC40307EB9C
:101B680083039A6A5B6A9A420AD24BB19B1A04EBC6
:101B7800C40207EB8202D6699E42D0D31E46CEE746
:101B880004EBC40307EB83077A6ABB6A9A420FD84F
:101B980004F00F040122A240D8F8343823EA0203E3
:101BA800C8F83438002000E0012003B0BDE8F08315
:101BB8000020FAE730B583B000287AD004460568DB
:101BC80090F89534C3B1032384F89534B5F1A04F48
:101BD80017D0206801F0E6FF237C8DF80030231D24
:101BE8000ECB206801F01CFF70B1022384F89534F5
:101BF8000125284603B030BD80F8943402F0DAFCA1
:101C0800E1E70023A371E4E70021206802F02FFC3C
:101C18000246B8B903462079984218D903EBC301A4
:101C280004EB8101012048750B75CB8500200876EF
:101C3800C861086203EBC30104EB81014862013308
:101C4800DBB2E8E7022384F895340125D1E7904216
:101C580017D902EBC20304EB8303002183F8551262
:101C680083F8542283F85812C3F85C12C3F8601240
:101C780002EBC20304EB8303C3F864120132D2B24D
:101C8800E5E7237C8DF80030231D0ECB206801F09A
:101C9800DFFF054620B1022384F895340125A8E723
:101CA80000236374012384F89534206802F09EFBB6
:101CB8009FE701259DE7036890F89424012A1AD02C
:101CC80010B50446012280F89424DA6812F0400F17
:101CD80002D0427B012A09D0206801F05DFF20680C
:101CE80002F076FB002084F8940410BD9A6B42F44D
:101CF80080329A63F0E702207047000070B504460E
:101D08000D460068066C00EB411303F530639A68D2
:101D1800A179012911D038498E4256D03DB905EB39
:101D2800C50304EB8303D3F86432002B5ED0E9B219
:101D3800204602F08BFC002070BD12F0080F09D07D
:101D48002E498E42F7D912F4004FF4D04FF40042D6
:101D58009A60F0E712F0200F02D020229A60EAE79A
:101D680012F0280FE7D125498E4206D912F4004F08
:101D780003D04FF400429A60DDE705EBC50204EB9F
:101D88008202D2F874121B69C3F31203CB1AC2F889
:101D980068327DB905EBC50204EB8202D2F86422F1
:101DA8006AB105EBC50204EB8202D2F8601219444D
:101DB800C2F86012E9B2204602F048FCBBE704F220
:101DC8009C42012102F092FBF4E712F4004F03D089
:101DD8004FF400429A60AEE712F0200F01D02022A3
:101DE8009A60E9B2204602F031FCA4E704F29C4272
:101DF800002102F07BFB9AE70A31544F0A30544F16
:101E080038B5044603681D6C03EB4113D3F8081B6F
:101E18000E4A954207D903F5306311F4004F02D0FA
:101E28004FF400429A60204602F008FC074B9D429E
:101E380002D9A379012B01D0002038BD04F29C42BD
:101E48000121206802F052FBF6E700BF0A30544F28
:101E580090F89434012B0CD010B50446012380F877
:101E680094344174006802F0A3FA002084F89404C2
:101E780010BD0220704738B505468C4611F0800F1A
:101E88002BD101F00F0E0EEBCE04A40004F5147450
:101E98000444211D0EEBCE0E00EB8E0E00208EF8B2
:101EA80055020CF00F0C81F800C0C2F30A028A60D8
:101EB8000B714A780AB1A1F81AC0022B1CD095F808
:101EC8009434012B1BD0012385F89434286801F041
:101ED8009CFF002085F8940438BD01F00F0000EB4A
:101EE800C001890010312944043100EBC00005EB22
:101EF800800001244475D4E700234B71DFE70220FA
:101F0800EAE710B504460A4611F0800F20D101F027
:101F18000F0000EBC0039B0003F514732344191D45
:101F280000EBC00004EB8000002380F8553202F07B
:101F38000F020A7094F89434012B18D0012384F806
:101F48009434206801F0AEFF002084F8940410BD9A
:101F580001F00F0000EBC0039B0010332344191D50
:101F680000EBC00004EB800001234375DFE702208B
:101F7800EDE710B5144601F00F0C0CEBCC0189000D
:101F880001F51471014404310CEBCC0E00EB8E0EFC
:101F9800CEF86022CEF864320023CEF868328EF88C
:101FA80055328EF854C28279012A04D0006802F0B2
:101FB8005FF8002010BDCEF87042F7E701F00F017E
:101FC80001EBC10100EB8100D0F86802704710B541
:101FD800144601F00F0C0CEBCC01890010310144C0
:101FE80004310CEBCC0E00EB8E0ECEF82020CEF890
:101FF80024300023CEF8283001238EF815308EF8CF
:1020080014C082799A4204D0006802F031F80020A6
:1020180010BDCEF83040F7E738B501F00F0502796A
:10202800AA4238D304460B4611F0800F1FD101EBAA
:10203800C101890001F514710144043103EBC303A4
:1020480000EB8303002283F8552201238B700D7067
:1020580094F89434012B20D0012384F89434206818
:1020680002F04BF985B1002084F8940438BD05EBE3
:10207800C501890010310144043105EBC50300EBAB
:10208800830301225A75E0E704F29C42A179206893
:1020980002F02CFAE7E70120E8E70220E6E701F082
:1020A8000F0302799A4230D310B5044611F0800F1D
:1020B8001ED103EBC301890001F5147101440431F9
:1020C80003EBC30200EB8202002082F855020022D3
:1020D8008A700B7094F89434012B18D0012384F87B
:1020E8009434206802F036F9002084F8940410BD76
:1020F80003EBC301890010310144043103EBC3022F
:1021080000EB820201205075E1E7012070470220B0
:10211800EDE708B511F0800F0CD101F00F0101EBCC
:10212800C101890001F5147101440431006801F00E
:1021380029FF08BD01F00F0101EBC1018900103131
:1021480001440431F2E72DE9F04F83B004460568F5
:10215800284602F088F910B103B0BDE8F08F0646B2
:10216800206802F051F90028F6D005F50067BB6831
:10217800C3F30D23C4F8D434206802F045F910F0F5
:10218800020F04D02268536903F0020353612068E8
:1021980002F03AF910F0100F15D02268936923F075
:1021A80010039361D5F8208008F00F0908F4F013A4
:1021B800B3F5802F4CD0B3F5402F6FD022689369C8
:1021C80043F010039361206802F01EF910F4002F09
:1021D80076D1206802F018F910F4802F40F0E080E2
:1021E800206802F011F90028C0F26181206802F02D
:1021F8000BF910F4006F09D0BB6813F0010F40F021
:102208006E812268536903F400635361206802F009
:10221800FBF810F4805F40F06681206802F0F4F863
:1022280010F4005F40F0B381206802F0EDF810F080
:10223800080F40F0C481206802F0E6F810F0800F23
:1022480000F0D781AB6923F08003AB610126C0E1C0
:1022580047F6F07318EA030FB0D04FEA181A4FEA9E
:10226800C903019309EBC90B04EB8B0BC8F30A12E2
:10227800DBF86012284602F01DF8DBF86032CAF37A
:102288000A0A5344CBF86032DBF86832019A4A44B0
:1022980004EB82025344C2F868328FE7082204F242
:1022A8009C41284602F006F809EBC90304EB8303B6
:1022B800D3F86822C8F30A184244C3F868227DE7B5
:1022C800206802F0A5F88046B14635E005EB4913D1
:1022D8000122C3F8082B49462046FFF70FFD3CE0D2
:1022E80005EB49130822C3F8082B49462046FFF797
:1022F80087FD35E009EBC90304EB830393F85732F4
:10230800012B41D005EB49130222C3F8082B1AF020
:10231800200F04D005EB49132022C3F8082B1AF428
:10232800005F05D005EB49134FF40052C3F8082BA2
:1023380009F101094FEA5808B8F1000F3FF449AF15
:1023480018F0010FF4D05FFA89FB5946206802F0B3
:102358006FF8824610F0010FB8D11AF0080FBFD1FC
:102368001AF0100F04D005EB49131022C3F8082BFC
:102378001AF0020FCBD06B6913F0800FBAD07B68CC
:1023880043F480637B60B5E709EBC90304EB83037F
:10239800002283F857225946204602F0A7F9B1E7F0
:1023A800206802F03DF88046B14625E059462046AF
:1023B80002F058F91AF0080F04D005EB4913082267
:1023C800C3F808291AF0100F04D005EB491310229E
:1023D800C3F808291AF0400F04D005EB491340222E
:1023E800C3F808291AF0020F40D11AF0800F59D10A
:1023F80009F101094FEA5808B8F1000F3FF4F0AEAF
:1024080018F0010FF4D05FFA89FB5946206802F0F2
:1024180018F8824610F0010FCCD009F00F02012104
:1024280001FA02F27B6B23EA02037B6305EB491393
:10243800C3F80819A3798B42B8D109EBC90304EB97
:1024480083031A6AD9690A441A62B9F1000FADD137
:1024580009EBC90304EB83035B6A002BA6D104F2E2
:102468009C420121206802F041F89FE7494628462E
:1024780001F09EFB09EBC90304EB8303DB7D012B11
:1024880005D005EB49130222C3F80829ADE709EB8B
:10249800C90304EB83030022DA755946204602F08B
:1024A8002BF9EEE749462046FFF71CFBA0E77B68BF
:1024B80023F001037B6094F8CC34012B08D020462C
:1024C80002F00EF92268536903F0004353618DE668
:1024D800002184F8CC14204600F059F9F2E7204690
:1024E80002F0E6F88DE67B6823F001037B6010219B
:1024F800206801F05DFB1AE005EB46134FF67F31CB
:10250800C3F80819D3F8002922F40012C3F80029E7
:10251800C3F8081BD3F8002B22F40012C3F8002BD1
:10252800D3F8002B42F00062C3F8002B0136237960
:10253800B342E1D8FB6943F00113FB61E37BDBB1F4
:10254800D7F8843043F00B03C7F884307B6C43F032
:102558000B037B64D5F8003823F4FE63C5F8003814
:1025680004F29C42A179206801F0C0FF22685369F7
:1025780003F48053536150E67B6943F4005343F0FE
:102588002B037B613B6943F00B033B61E2E7206867
:1025980001F09EFF206801F027FCE071266800F03A
:1025A80011FC0146E279304601F084FA204602F037
:1025B8006AF82268536903F40053536134E62046ED
:1025C80002F05BF82268536903F00803536132E6AE
:1025D80001362379B3420CD906EBC60304EB830317
:1025E80093F85732012BF3D1F1B22046FFF791FD52
:1025F800EEE7206801F008FF10F4801F25D120685D
:1026080001F002FF10F4001F58D0012326E0013624
:102618002379B3421BD905EB4613D3F8002906EBFF
:10262800C60304EB83031B7E012BF0D1002AEEDAEC
:1026380006EBC60304EB83030122DA7566F07F011B
:10264800C9B22046FFF765FDE1E70126E0E7226809
:10265800536903F480135361D1E7013322799A4215
:1026680027D905EB4312D2F8001B03EBC30204EB96
:10267800820292F85822012AEFD10029EDDAD4F823
:10268800D42482EA114212F0010FE6D103EBC3020F
:1026980004EB8202012182F85712AA6942F08002F3
:1026A800AA616A6912F0800FD7D17B6843F400737E
:1026B8007B602268536903F400135361206801F0BA
:1026C800A3FE10F0804F10D1206801F09DFE10F09D
:1026D800040F3FF441AD23685D6815F0040F0DD178
:1026E800226853682B43536036E5204602F00AF807
:1026F8002268536903F080435361E5E7204602F0FE
:1027080007F8EDE790F89434012B14D010B504467F
:10271800012380F8943411F0800F06D1006801F08D
:102728006CFA002084F8940410BD01F00F010068D1
:1027380001F03EFAF5E70220704710B40468606AB9
:1027480031B940EA0240A06200205DF8044B7047AE
:102758008C46A36A00EB1340002308E003F1400114
:1027680004EB8101496800EB11400133DBB20CF145
:10277800FF318B42F2D340EA02400CF13F0104EBF7
:1027880081046060E0E70368596200207047704781
:10279800002800F0E08170B582B00446036813F0A9
:1027A800010F3BD09F4B9B6803F00C03042B2CD0EC
:1027B8009C4B9B6803F00C03082B21D06368B3F58E
:1027C800803F4FD0B3F5A02F52D0964B1A6822F411
:1027D80080321A601A6822F480221A606368002B1B
:1027E80050D0FEF7F1F805468E4B1B6813F4003FF6
:1027F80014D1FEF7E9F8401B6428F5D90320B1E1AC
:10280800884B5B6813F4800FD8D0864B1B6813F491
:10281800003F03D06368002B00F09F81236813F00A
:10282800020F54D07F4B9B6813F00C0F3ED07D4BAA
:102838009B6803F00C03082B33D0E368002B68D0A7
:10284800794B01221A60FEF7BFF80546754B1B68E5
:1028580013F0020F54D1FEF7B7F8401B0228F5D940
:1028680003207FE16F4A136843F480331360B5E7B0
:102878006C4B1A6842F480221A601A6842F480325B
:102888001A60ABE7FEF7A0F80546664B1B6813F421
:10289800003FC3D0FEF798F8401B6428F5D9032001
:1028A80060E1604B5B6813F4800FC6D15D4B1B6819
:1028B80013F0020F03D0E368012B40F05081594A0E
:1028C800136823F0F803216943EAC10313602368FE
:1028D80013F0080F42D063696BB3534B0122C3F85E
:1028E800802EFEF771F805464E4B5B6F13F0020F12
:1028F80034D1FEF769F8401B0228F5D9032031E1ED
:10290800484A136823F0F803216943EAC1031360B6
:10291800DDE7454B00221A60FEF756F80546414BA5
:102928001B6813F0020FD2D0FEF74EF8401B0228A6
:10293800F5D9032016E13C4B0022C3F8802EFEF7A0
:1029480043F80546374B5B6F13F0020F06D0FEF7CE
:102958003BF8401B0228F5D9032003E1236813F054
:10296800040F77D02F4B1B6C13F0805F33D10023FB
:1029780001932C4B1A6C42F080521A641B6C03F0C2
:1029880080530193019B0125284B1B6813F4807F1A
:1029980023D0A368012B34D0052B38D0214B1A6FD4
:1029A80022F001021A671A6F22F004021A67A3685C
:1029B800002B3DD0FEF708F806461A4B1B6F13F0A4
:1029C800020F46D1FEF700F8801B41F28833984287
:1029D800F3D90320C6E00025D6E7144A136843F468
:1029E80080731360FDF7F0FF0646104B1B6813F465
:1029F800807FCED1FDF7E8FF801B0228F5D90320A0
:102A0800B0E0084A136F43F001031367CFE7054BA3
:102A18001A6F42F004021A671A6F42F001021A672D
:102A2800C5E700BF00380240000047420070004080
:102A3800FDF7CAFF0646524B1B6F13F0020F08D072
:102A4800FDF7C2FF801B41F288339842F3D9032077
:102A580088E0EDB9A369002B00F08380484A9268AA
:102A680002F00C02082A51D0022B17D0454B002245
:102A78001A66FDF7A9FF0446414B1B6813F0007F57
:102A880042D0FDF7A1FF001B0228F5D9032069E019
:102A98003B4A136C23F080531364DBE7394B002265
:102AA8001A66FDF791FF0546354B1B6813F0007F4A
:102AB80006D0FDF789FF401B0228F5D9032051E015
:102AC800E369226A1343626A43EA8213A26A5208DC
:102AD800013A43EA0243E26A43EA0263284A53603E
:102AE800284B01221A66FDF76FFF0446244B1B682A
:102AF80013F0007F06D1FDF767FF001B0228F5D908
:102B080003202FE000202DE000202BE0012B2BD00C
:102B18001B4B5B6803F48001E269914226D103F004
:102B28003F02216A8A4223D1616A47F6C0721A407D
:102B3800B2EB811F1ED103F44031A26A5208013A58
:102B4800B1EB024F18D103F07063E26AB3EB026F86
:102B580014D1002006E001207047012002E0012086
:102B680000E0002002B070BD0120FBE70120F9E77A
:102B78000120F7E70120F5E70120F3E70120F1E75D
:102B8800003802400000474208B5334B9B6803F009
:102B98000C03042B5BD0082B5BD12F4B5A6802F037
:102BA8003F025B6813F4800F2CD02B4B5868C0F39E
:102BB80088104FEA401CBCEB000C6EEB0E0E4FEA7F
:102BC8008E1343EA9C634FEA8C11B1EB0C0163EB63
:102BD8000E03DB0043EA5173C90011EB000C43F10B
:102BE8000003590200234FEA4C2041EADC51FDF76B
:102BF800C7FA194B5B68C3F3014301335B00B0FBB1
:102C0800F3F008BD144B5868C0F388104FEA401C15
:102C1800BCEB000C6EEB0E0E4FEA8E1343EA9C637E
:102C28004FEA8C11B1EB0C0163EB0E03DB0043EAB6
:102C38005173C90011EB000C43F100039902002302
:102C48004FEA8C2041EA9C51FDF79AFAD1E70348F4
:102C5800D7E70348D5E700BF0038024000127A00E2
:102C68000024F400002800F09B8070B50D4604464F
:102C78004F4B1B6803F007038B4208D2CBB24C4A78
:102C88001370136803F007038B4240F08B802368AE
:102C980013F0020F17D013F0040F04D0454A9368BD
:102CA80043F4E0539360236813F0080F04D0414ABB
:102CB800936843F4604393603E4A936823F0F003BB
:102CC800A1680B439360236813F0010F32D0636847
:102CD800012B21D09A1E012A25D9364A126812F0F2
:102CE800020F61D033498A6822F0030213438B60D4
:102CF800FDF76AFE06462F4B9B6803F00C036268DB
:102D0800B3EB820F16D0FDF75FFE801B41F28833CC
:102D18009842F0D9032042E0264A126812F4003F94
:102D2800E0D101203BE0234A126812F0007FD9D19C
:102D3800012034E01E4B1B6803F00703AB4207D9A0
:102D4800EAB21B4B1A701B6803F00703AB422DD184
:102D5800236813F0040F06D0164A936823F4E0534F
:102D6800E1680B439360236813F0080F07D0114AFA
:102D7800936823F46043216943EAC1039360FFF732
:102D880003FF0C4B9B68C3F303130B4AD35CD84077
:102D98000A4B18600A4B1868FDF7CAFD002070BD81
:102DA800012070470120FAE70120F8E70120F6E743
:102DB800003C024000380240546D00080800002022
:102DC80004000020014B1868704700BF080000206D
:102DD80008B5FFF7F7FF044B9B68C3F38223034A48
:102DE800D35CD84008BD00BF003802404C6D0008D5
:102DF80008B5FFF7E7FF044B9B68C3F34233034A68
:102E0800D35CD84008BD00BF003802404C6D0008B4
:102E180030B583B00446036813F0050F06D1236864
:102E280013F0020F2ED1002003B030BD4A4B002210
:102E38009A66FDF7C9FD0546484B1B6813F0006FFD
:102E480006D0FDF7C1FD431B022BF5D90320EBE7A4
:102E58006268A3681B0743EA8213404AC2F88430B9
:102E68003D4B01229A66FDF7AFFD05463B4B1B68BB
:102E780013F0006FD3D1FDF7A7FD431B022BF5D943
:102E88000320D1E700230193344B1A6C42F080529F
:102E98001A641B6C03F080530193019B304A13683A
:102EA80043F480731360FDF78FFD05462C4B1B68B8
:102EB80013F4807F06D1FDF787FD431B022BF5D95C
:102EC8000320B1E7254B1B6F13F4407314D0E2685D
:102ED80002F440729A420FD0204B1A6F22F44072CB
:102EE8001D490120C1F8400E0020C1F8400E1A67A4
:102EF8001B6F13F0010F13D1E36803F44072B2F5AE
:102F0800407F1ED0154A936823F4F8139360134941
:102F18000B6FE268C2F30B0213430B67002083E7D1
:102F2800FDF752FD05460D4B1B6F13F0020FE3D161
:102F3800FDF74AFD401B41F288339842F3D903203C
:102F480072E706498A6822F4F81223F0704323F4E2
:102F5800407313438B60DAE70000474200380240B1
:102F68000070004038B5044603680A4ADA60FDF785
:102F78002BFD05462368DB6813F0200F07D1FDF70A
:102F880023FD401BB0F57A7FF4D9032000E0002030
:102F980038BD00BF5F7F010070B50368DA6812F0C2
:102FA800400F02D00025284670BD0446DA6842F07A
:102FB8008002DA60FDF708FD064600252368DB6815
:102FC80013F0400FEFD1002DEDD1FDF7FDFC831B71
:102FD800B3F57A7FF2D9042363770125EEE7026817
:102FE800D36823F08003D36003689B6813F0200F35
:102FF80001D00020704710B50446FFF7B3FF10B1A9
:1030080004236377012010BD00284AD010B5044678
:10301800437F53B1022363772368DA6812F0100FF5
:1030280007D000200123637710BD0377FEF78AFBE2
:10303800F0E7CA225A62236853225A622046FFF7F1
:10304800ABFF28B12368FF225A620028ECD1E9E7D8
:103058002268936823F4E00323F040039360216817
:103068008A686368206903436069034313438B607C
:103078002368E2681A6122681369A16843EA014378
:1030880013612046FFF7ABFF0028DBD12268136CE1
:1030980023F4802313642268136CA1690B4313641F
:1030A800D0E70120704700285AD010B50446436A7B
:1030B80033B94368B3F5827F05D00023C36102E0CA
:1030C8000023036143610023A36294F85130002B6D
:1030D80040D0022384F851302268136823F040035B
:1030E8001360636803F48273A26802F40442134312
:1030F800E26802F400621343226902F002021343F9
:10310800626902F001021343A26902F400721343D8
:10311800E26902F038021343226A02F08002134384
:10312800A26A02F40052216813430B60638B03F018
:103138000403626A02F01002216813434B6022689C
:10314800D36923F40063D36100206065012384F808
:10315800513010BD84F850302046FEF717FBB8E711
:103168000120704730B4036A026A22F00102026249
:103178004268846924F0730C0C6844EA0C0423F058
:10318800020C8B6843EA0C03114DA84203D005F5E5
:103198008065A84205D123F00803CD682B4323F0AE
:1031A80004030B4DA84203D005F58065A84207D15A
:1031B80022F440724D6945EA020C8A6942EA0C021F
:1031C800426084614A684263036230BC704700BF52
:1031D8000000014030B4036A026A22F4807202627D
:1031E8004268C46924F0730C0C6844EA0C0523F4A3
:1031F80000738C6843EA0423114CA04203D004F501
:103208008064A04206D123F40063CC6843EA042317
:1032180023F480630A4CA04203D004F58064A042E2
:1032280007D122F440524C6942EA04128C6942EAFE
:1032380004124260C5614A68C263036230BC7047C9
:103248000000014030B4036A026A22F4805202622C
:103258004468C26922F4E6420D6842EA052223F472
:1032680000538D6843EA0533094DA84203D005F59C
:103278008065A84204D124F480444D6944EA851449
:103288004460C2614A680264036230BC704700BF90
:103298000000014010B4036A046A24F001040462C7
:1032A800846924F0F00C4CEA021223F00A030B4361
:1032B800826103625DF8044B704710B4036A046AC4
:1032C80024F010040462846924F4704C4CEA02323D
:1032D80023F0A00343EA0113826103625DF8044B03
:1032E8007047836823F070030B4343F00703836040
:1032F80070477047704700000368324A904212D006
:10330800B0F1804F0FD0A2F57C4290420BD002F56D
:103318008062904207D002F58062904203D002F5A5
:103328007842904203D123F070034A681343254A38
:1033380090422AD0B0F1804F27D0A2F57C4290422B
:1033480023D002F5806290421FD002F5806290423D
:103358001BD002F57842904217D002F57052904285
:1033680013D002F5806290420FD002F5806290423D
:103378000BD0A2F59832904207D002F580629042B5
:1033880003D002F58062904203D123F44073CA68E7
:10339800134323F080034A6913438A68C2620A68A8
:1033A8008262084A904203D002F58062904201D1BD
:1033B8000A690263026842F0040202600122426163
:1033C800036070470000014040B310B5044690F810
:1033D8003D30F3B1022384F83D30214651F8040B07
:1033E800FFF78AFF012384F8463084F83E3084F8DA
:1033F8003F3084F8403084F8413084F8423084F813
:10340800433084F8443084F8453084F83D30002057
:1034180010BD80F83C30FEF761FADBE70120704709
:1034280040B310B5044690F83D30F3B1022384F858
:103438003D30214651F8040BFFF75EFF012384F865
:10344800463084F83E3084F83F3084F8403084F8C1
:10345800413084F8423084F8433084F8443084F8AA
:10346800453084F83D30002010BD80F83C30FFF72F
:1034780040FFDBE70120704740B310B5044690F8E1
:103488003D30F3B1022384F83D30214651F8040B56
:10349800FFF732FF012384F8463084F83E3084F881
:1034A8003F3084F8403084F8413084F8423084F862
:1034B800433084F8443084F8453084F83D300020A7
:1034C80010BD80F83C30FFF715FFDBE7012070479F
:1034D80030B4036A026A22F0100202624468826908
:1034E80022F4E6420D6842EA052223F020038D68A3
:1034F80043EA0513114DA84203D005F58065A8429B
:1035080006D123F08003CD6843EA051323F0400376
:103518000A4DA84203D005F58065A84207D124F4D6
:1035280040644D6944EA85048D6944EA8504446031
:1035380082614A688263036230BC704700000140C0
:1035480090F83C30012B28D010B50446012380F8B0
:103558003C300C2A1CD8DFE802F0071B1B1B0C1B95
:103568001B1B111B1B1B16000068FFF7FBFD00202F
:103578000FE00068FFF7ACFF00200AE00068FFF7E3
:1035880029FE002005E00068FFF75CFE002000E04F
:103598000120002384F83C3010BD0220704738B564
:1035A80090F83C30012B66D004460D46012380F884
:1035B8003C300C2A5AD8DFE802F0075959591B59F0
:1035C80059593059595944000068FFF7CBFD226812
:1035D800936943F0080393612268936923F0040315
:1035E80093612268936929690B43936100203EE047
:1035F8000068FFF76DFF2268936943F400639361E5
:103608002268936923F48063936122689369296926
:1036180043EA01239361002029E00068FFF7DAFDFF
:103628002268D36943F00803D3612268D36923F081
:103638000403D3612268D36929690B43D36100204D
:1036480015E00068FFF7FEFD2268D36943F40063C4
:10365800D3612268D36923F48063D3612268D36974
:10366800296943EA0123D361002000E001200023F7
:1036780084F83C3038BD0220FCE710B4846824F498
:103688007F4C42EA03220A4342EA0C0282605DF858
:10369800044B704790F83C30012B78D010B50446A5
:1036A800012380F83C30022380F83D30026893689B
:1036B80023F47F4323F0770393600B68602B4CD08F
:1036C80023D8402B54D011D8202B03D00AD80BB1C3
:1036D800102B05D119462068FFF703FE002028E0CB
:1036E800012026E0302BF5D0012022E0502B0AD112
:1036F800CA6849680068FFF7CDFD50212068FFF7C8
:10370800F0FD002015E0012013E0B3F5805F3AD00A
:10371800B3F5005F14D0702B37D1CB684A6889683D
:103728000068FFF7AAFF2268936843F07703936065
:103738000020012384F83D30002384F83C3010BD7C
:10374800CB684A6889680068FFF797FF2268936822
:1037580043F4804393600020EBE7CA684968006837
:10376800FFF7ABFD60212068FFF7BBFD0020E0E715
:10377800CA6849680068FFF78DFD40212068FFF797
:10378800B0FD0020D5E70020D3E70120D1E70220D3
:103798007047000090F83C20012A3DD010B4034641
:1037A800012280F83C20022280F83D2002685068FF
:1037B800946820F0700C086840EA0C0050601A68A1
:1037C800164882421AD0B2F1804F17D0A0F57C403B
:1037D800824213D000F5806082420FD000F58060ED
:1037E80082420BD000F57840824207D000F5705035
:1037F800824203D0A0F59430824204D124F08004A0
:10380800496821439160012283F83D20002083F814
:103818003C005DF8044B70470220704700000140EF
:1038280010B504460268136923F44053C1680B437A
:103838001361836802691A4343691A43C3691A43C7
:103848000168CB6823F4164323F00C031343CB60C1
:103858000268536923F4407381690B435361036819
:10386800314A934206D002F58062934202D0FFF7B4
:10387800AFFA01E0FFF7BCFAE369B3F5004F29D0CE
:103888000021031849411B1841F10001C90041EA10
:103898005371DB00181863684FEA83024FEA937389
:1038A80041F10001FCF76CFC204AA2FB00314909F8
:1038B800642303FB11031B013233A2FB03235B09BF
:1038C80003F0F00202EB011203F00F032168134426
:1038D8008B6010BD0023021843EB0301121841F15D
:1038E8000001C90041EA5271D200101841F10001EB
:1038F800626892185B41FCF743FC0C4AA2FB00315A
:103908004909642303FB1103DB003233A2FB0323C1
:103918005B095A0002F4F87202EB011203F0070384
:10392800216813448B60D4E7001001401F85EB51D8
:1039380060B310B5044690F8413013B3242384F8DB
:1039480041302268D36823F40053D3602046FFF740
:1039580067FF2268136923F490431361226853694F
:1039680023F02A0353612268D36843F40053D360D9
:1039780000206064202384F8413084F8423060637A
:1039880010BD80F84030FEF773F8D7E70120704784
:10399800FEE7FEE7FEE7FEE7FEE770477047704781
:1039A80008B5FDF705F808BD08B50248FDF7FEFAA9
:1039B80008BD00BF6401002008B50248FEF7C3FB3C
:1039C80008BD00BF700A002082B000230193019B4C
:1039D80001330193019BB3F1706F1CD80369002B6D
:1039E800F5DA0A23019302E0019B013B0193019B55
:1039F800002BF9D1036943F001030361019B0133F3
:103A08000193019BB3F1706F08D8036913F0010F9C
:103A1800F4D1002000E0032002B070470320FBE748
:103A280084B010B5044603A880E80E009DF8113054
:103A3800012B21D1A36B23F48033A363E36823F420
:103A4800840323F04003E360E36823F44013E36056
:103A58009DF81830012B0AD02046FFF7B5FF9DF8D6
:103A68000E30012B1CD0BDE8104004B07047E3684D
:103A780043F48013E360EFE7E36843F04003E36057
:103A88002046FFF7A1FF9DF8153023B9A36B43F437
:103A98008033A363E3E7A36B23F48033A363DEE7F8
:103AA800A36843F00603A360A36843F02003A36060
:103AB800D9E70000022A0AD00922C36823F4705308
:103AC800C360C36843EA8223C36000207047234B66
:103AD8000B44234A93422FD9224B0B44224A934248
:103AE8002CD9A1F57403A3F51053204A934227D982
:103AF800A1F18373A3F5E7431D4A934222D31D4BDB
:103B08000B441D4A93421FD91C4B0B441C4A934239
:103B18001CD31C4B0B441C4A934219D3A1F1B77315
:103B2800A3F55853194A934214D3194B0B44194A15
:103B3800934211D20722C0E70F22BEE70E22BCE74C
:103B48000D22BAE70C22B8E70B22B6E70A22B4E73F
:103B58000922B2E70822B0E70622AEE7405327FF62
:103B6800FF340C00401E1BFF3F420F007F4F120026
:103B780020D6130060B6E5FE5FE3160000D3CEFE44
:103B880040771B00C05BB3FEC09121002075380050
:103B9800E05459FEE09C4100836843F001038360D0
:103BA80000207047836823F001038360002070477A
:103BB80082B000230193019B01330193019BB3F170
:103BC800706F15D80369002BF5DA0023019389017A
:103BD80041F020010161019B01330193019BB3F185
:103BE800706F08D8036913F0200FF4D1002000E0AB
:103BF800032002B070470320FBE782B00023019343
:103C0800019B01330193019BB3F1706F13D80369D2
:103C1800002BF5DA0023019310230361019B013384
:103C28000193019BB3F1706F08D8036913F0100F6B
:103C3800F4D1002000E0032002B070470320FBE726
:103C4800D0F800381943C0F8001800207047000069
:103C580084B0F8B5044607A880E80E00002306E003
:103C680003F1400204EB82020021516001330E2B64
:103C7800F6D99DF8266006BBD4F8043843F0020351
:103C8800C4F80438A36B43F40013A363A36B23F4B1
:103C98000023A363A36B23F48023A3630023C4F846
:103CA800003E9DF82130012B15D19DF81F306BB9CE
:103CB80000212046FFF7C4FF11E0A36B23F4001393
:103CC800A363A36B43F40023A363E7E70121204622
:103CD800FFF7B6FF03E003212046FFF7B1FF1021ED
:103CE8002046FFF765FF054600B101252046FFF78E
:103CF80084FF00B1012504F5006C0023CCF81030D6
:103D0800CCF81430CCF81C300DE04FF09040C2F8DD
:103D1800000902E00020C2F8000900220A614FF6FB
:103D28007F328A6001339DF81C1099420ED904EB4A
:103D3800431202F51061D2F800090028EADA002BD4
:103D4800E3D14FF00060C2F80009E6E700230AE07B
:103D5800BBB14FF09047C2F8007B002202614FF6DA
:103D68007F3282600133994210D904EB431202F585
:103D78003060D2F8007B002FEADB0027C2F8007B16
:103D8800EBE74FF00067C2F8007BE6E7DCF810309D
:103D980023F48073CCF810300023A3616FF08043C4
:103DA80063619DF81E301BB9A36943F01003A3613A
:103DB800A2690C4B1343A3619DF822301BB1A36980
:103DC80043F00803A361012E04D02846BDE8F8405B
:103DD80004B07047A36943F0804343F00403A36130
:103DE800F3E700BF00383C80D0F8083803F006033A
:103DF800022B04D0062B04D02BB9002070470220D8
:103E08007047022070470F20704710B591F800C026
:103E18004B78012B23D000F5006ED0F81C380CF03D
:103E28000F040122A24043EA0243C0F81C3800EB09
:103E38004C10D0F8003B13F4004F0ED1D0F8003BE3
:103E48008A68C2F30A02097942EA8142134343F0BD
:103E5800805343F40043C0F8003B002010BDD0F865
:103E68001C280CF00F0E03FA0EF39BB21343C0F894
:103E78001C3800EB4C10D0F8003913F4004FECD18B
:103E8800D0F800398A68C2F30A02097942EA814205
:103E980042EA8C52134343F0805343F40043C0F882
:103EA8000039DAE730B40B784A78012A26D000EBDB
:103EB8004313D3F8002B002A52DBD0F83C480A7889
:103EC80002F00F024FF0010C0CFA02F224EA02424F
:103ED800C0F83C28D0F81C28097801F00F010CFA2A
:103EE80001FC22EA0C42C0F81C28D3F8001B234A24
:103EF8000A40C3F8002B002030BC704700EB431386
:103F0800D3F80029002A1EDBD0F83C580A7802F0C2
:103F18000F02012404FA02F292B225EA0202C0F862
:103F28003C28D0F81C28097801F00F018C40A4B275
:103F380022EA0402C0F81C28D3F80019104A0A40E3
:103F4800C3F80029D7E7D3F8002942F00062C3F884
:103F58000029D3F8002942F08042C3F80029D3E7AA
:103F6800D3F8002B42F00062C3F8002BD3F8002BE3
:103F780042F08042C3F8002B9FE700BF0078F3EFC0
:103F8800007833EC10B483B00246002301934878DC
:103F980001280BD00B7802EB4313D3F8000B002851
:103FA8002DDB002003B05DF8044B70470B7802EB63
:103FB8004313D3F80049002C01DB0020F2E7D3F8C3
:103FC800004944F00064C3F800490B7802EB43133E
:103FD800D3F8004944F08044C3F80049019B0133F9
:103FE8000193019C42F210739C42DBD80B7802EBE0
:103FF8004313D3F80039002BF0DB0020D2E7D3F8C5
:10400800000B40F00060C3F8000B0B7802EB431381
:10401800D3F8000B40F08040C3F8000B019B01333C
:104028000193019842F21073984208D80B7802EB7A
:104038004313D3F8003B002BF0DB0020B2E701204C
:10404800B0E710B59DF8084084B903334FEA930EE2
:104058004FF0000C08E000EB023303F5805351F8F1
:10406800044B1C600CF1010CF445F4D3002010BD86
:10407800F0B583B00C784B78012B2DD000EB441CA5
:104088000CF530631D696FF312051D611D696FF32F
:10409800DC451D61002C40F0CE800C690CB18C68A9
:1040A8000C618C680C621D69C4F312042C431C61FA
:1040B8001C6944F400241C61012A00F0DF800B799C
:1040C800012B00F0E180DCF8003B43F00443CCF81E
:1040D800003B002003B0F0BD0B6973BB00EB441339
:1040E800D3F810596FF3DC45C3F81059D3F81059B9
:1040F80045F40025C3F81059D3F810596FF3120589
:10410800C3F81059012A54D000EB4414D4F80039EC
:1041180043F00443C4F800390B79012B72D00B69C2
:10412800002BD6D0D0F83438097801F00F010122DD
:104138008A401343C0F83438CBE700EB441303F547
:1041480010631D696FF312051D611D696FF3DC456E
:104158001D6184B90E698D68AE4200D90D611D6973
:1041680045F400251D611D690E69C6F3120C45EA68
:104178000C051D61C6E70D698E683544013DB5FB28
:10418800F6F51E691FFA85FC494F07EAC545354310
:104198001D610D79012DE6D11D6925F0C0451D6110
:1041A8001D694FEA4C7C0CF0C04C45EA0C051D61BA
:1041B800D9E7CB691BB100EB4412C2F814390B796B
:1041C800012B08D000EB4414D4F8003943F0044321
:1041D800C4F800397DE7D0F8083813F4807F08D197
:1041E80000EB4412D2F8003943F00053C2F800390A
:1041F800E8E700EB4412D2F8003943F08053C2F8E4
:104208000039DFE7D0F8083813F4807F0CD1D4F8F0
:10421800003943F00053C4F8003900920B8A0A7839
:10422800C968FFF70EFF54E7D4F8003943F080530C
:10423800C4F80039F1E70C6954B91C698D68C5F3F5
:1042480012052C431C611C6944F400241C6133E7EB
:104258008D682C44013CB4FBF5F4A4B204FB05F5CD
:104268000D621D69124E06EAC4442C431C611C6988
:104278000D6AC5F312052C431C611DE7CA68002AA4
:104288003FF41DAF5A611AE7D0F8083813F4807F5D
:1042980006D1DCF8003B43F00053CCF8003B12E7B2
:1042A800DCF8003B43F08053CCF8003B0BE700BF41
:1042B8000000F81F10B5844608464FEA920E02F037
:1042C8000302002305E00CF58051096840F8041B3F
:1042D80001337345F7D37AB10CF5805CDCF8004004
:1042E8000021CBB2DB0024FA03F300F8013B0131D3
:1042F800013A92B2002AF4D110BD0B784A78012A0B
:1043080014D000EB4310D0F8002B002A06DB2BB1A9
:10431800D0F8003B23F08043C0F8003BD0F8003BC6
:1043280043F40013C0F8003B0020704700EB431033
:10433800D0F80029002A06DB2BB1D0F8003923F089
:104348008043C0F80039D0F8003943F40013C0F8AE
:104358000039E9E70B784A78012A0ED000EB4310C0
:10436800D0F8003B23F40013C0F8003B0B79023B64
:10437800DBB2012B15D90020704700EB4310D0F8B1
:10438800003923F40013C0F800390B79023BDBB283
:10439800012BF0D8D0F8003943F08053C0F8003929
:1043A800E9E7D0F8003B43F08053C0F8003BE2E770
:1043B800D0F8003823F4FE63C0F80038D0F800388D
:1043C800090101F4FE610B43C0F800380020704772
:1043D800D0F8003E23F00303C0F8003ED0F80438BC
:1043E80023F00203C0F8043800207047D0F8003EDC
:1043F80023F00303C0F8003ED0F8043843F002036A
:10440800C0F804380020704742698069104070473E
:10441800D0F8183800F50060C0691840000C7047E3
:10442800D0F8183800F50060C069184080B27047AD
:1044380000EB4111D1F8082B00F5006040691040ED
:104448007047D0F81028D0F8343801F00F0C23FA50
:104458000CF3DB01DBB2134300EB411000F51060F5
:10446800806818407047406900F00100704738B50F
:104478000546C36823F0C043C360012913D019BBA4
:10448800C36843F08043C36000240A20FCF7A2FA03
:104498000A342846FFF7E7FF08B1C72CF5D9C82C1E
:1044A80014D0002038BDC36843F00053C360002413
:1044B8000A20FCF78FFA0A342846FFF7D4FF0128B0
:1044C800EDD0C72CF4D9EAE70120EBE70120E9E7B2
:1044D800D0F800396FF30A03C0F80039D0F804386F
:1044E80043F48073C0F804380020704710B4046C9B
:1044F800154B9C4203D9D0F8003B002B16DB002457
:10450800C0F8104BD0F8104B44F40024C0F8104BFE
:10451800D0F8104B44F01804C0F8104BD0F8104BEA
:1045280044F0C044C0F8104B012903D000205DF8C6
:10453800044B7047C0F8142BD0F8003B43F080239D
:10454800C0F8003BF2E700BF0A30544F034AD2F8E4
:10455800883043F47003C2F88830704700ED00E0FB
:1045680008B500220F49104800F082F970B90F49C8
:104578000D4800F094F960B90D490B4801F096F91F
:1045880050B9094800F0ABF948B908BDFBF71AFF64
:10459800EDE7FBF717FFEFE7FBF714FFF1E7FBF792
:1045A80011FFF2E7400000200C0500208C000020DD
:1045B800E000002030B589B00023039304930593ED
:1045C800069307930368B3F1A04F01D009B030BD3B
:1045D80003AA00250195174C236B43F001032363BD
:1045E800236B03F001030193019B4FF4C053039322
:1045F80002230493032306930A23079311460E48C4
:10460800FCF7C2FD636B43F0800363630295636C40
:1046180043F480436364636C03F480430293029B16
:104628002A4629464320FCF7CDFB4320FCF7DAFB5A
:10463800CCE700BF003802400000024008B500F295
:104648009C41D0F8E00400F060F908BD08B501EB22
:10465800C10300EB8303D3F86022D0F8E00400F034
:1046680022FA08BD08B501EBC10300EB83031A6AFF
:10467800D0F8E00400F07AFA08BD08B5D0F8E004F4
:1046880000F0BFF908BD10B50446C17911B102297F
:1046980009D10121D4F8E00400F096F9D4F8E00437
:1046A80000F05FF910BDFBF78DFE0121F2E7000075
:1046B80010B50446D0F8E00400F089F92268D2F871
:1046C800003E43F00103C2F8003EE37A23B1034AF7
:1046D800136943F00603136110BD00BF00ED00E04D
:1046E80008B5D0F8E00400F080F908BD08B5D0F8A6
:1046F800E00400F0ACF908BD08B5D0F8E00400F01B
:1047080090F908BD08B5D0F8E00400F0B6F908BD86
:1047180008B5D0F8E00400F0B2F908BD02780AB193
:104728000020704710B503461548C0F8E034C3F8B8
:10473800C8024FF0A0430360042303710222C27130
:104748000023837142728372C37203738373C373CA
:10475800FDF730FA80B90A4C80212046FEF713F89D
:10476800402200212046FDF7E8FF80220121204653
:10477800FDF7E3FF002010BDFBF724FEEBE700BFC9
:10478800700A0020D0F8C83211F0800F08D101F06B
:104798007F0101EBC10103EB810393F856027047D7
:1047A80001F07F0101EBC10103EB8103987D7047A4
:1047B80008B5D0F8C802FDF701FC08BD00487047ED
:1047C800E80700207047032805D8DFE800F0050453
:1047D8000205012070470320704708B5D0F8C802C9
:1047E800FDF769FAFFF7EFFF08BD08B594461A46CA
:1047F8006346D0F8C802FDF73EFBFFF7E4FF08BDAB
:1048080008B5D0F8C802FDF77CFBFFF7DCFF08BD50
:1048180008B5D0F8C802FDF775FFFFF7D4FF08BD4B
:1048280008B5D0F8C802FDF7F7FBFFF7CCFF08BDC5
:1048380008B5D0F8C802FDF732FCFFF7C4FF08BD81
:1048480008B5D0F8C802FDF703FBFFF7BCFF08BDA9
:1048580008B5D0F8C802FDF7BAFBFFF7B4FF08BDEA
:1048680008B5D0F8C802FDF784FBFFF7ACFF08BD18
:1048780098B108B503460020C3F8B802C3F8C402CB
:10488800C3F8D00209B1C3F8B412012183F89C120D
:104898001A701846FFF742FF08BD0320704710B58D
:1048A80082B00023ADF80630B9B10446C0F8B8129A
:1048B800D0F8D422CB6A43B1AE3250F82230DB6A4A
:1048C8000DF106009847C4F8D002D4F8D832013365
:1048D800C4F8D832002002B010BD0320FBE708B5A9
:1048E800FFF77BFF08BD08B5D0F8B83213B11B68D5
:1048F800984708BD0020FCE708B5D0F8B8325B68D7
:10490800984700B908BD0320FCE738B5044600F213
:10491800AA25284600F0C4F90123C4F89432B4F853
:10492800B032C4F8983294F8AA1201F01F03012B90
:1049380007D0022B0AD073B92946204600F084FB21
:1049480038BD2946204600F0BAFBF9E7294620463B
:1049580000F0F7FBF4E701F080012046FFF760FF65
:10496800EEE7F8B50446012380F89C320023C0F82E
:1049780094324360C0F8A43280F8A032D0F8B8323C
:10498800E3B15B68E3B1002198470746D0B94023FB
:10499800002211462046FFF728FF012684F86361AC
:1049A8004025A4F860512B46002280212046FFF7BD
:1049B8001CFF84F8236025843846F8BD0027E6E705
:1049C8000027E4E70327E2E701740020704790F826
:1049D8009C32042B04D090F89C32DBB280F89D32D4
:1049E800042380F89C320020704790F89C32042BF6
:1049F80001D00020704790F89D32DBB280F89C32DD
:104A0800F7E708B590F89C32032B01D0002008BDC9
:104A1800D0F8B832002BF9D0DB69002BF6D09847D4
:104A2800F4E708B5D0F8D432AE3350F8233053B198
:104A380090F89C22032A01D0002008BD1B6A23B1EC
:104A480098470020F9E70320F7E70020F5E708B5C5
:104A5800D0F8D432AE3350F8233053B190F89C22BA
:104A6800032A01D0002008BD5B6A23B198470020C3
:104A7800F9E70320F7E70020F5E70020704708B5BD
:104A8800012380F89C32D0F8B83223B15B680179F1
:104A9800984710B908BD0020FCE70320FAE700207A
:104AA80070470020704738B504460D46002944D1A8
:104AB800D0F89432032B01D0084638BDD0F85831CD
:104AC800B0F86021934209D890F8AA3203F01F0386
:104AD800012B12D0022B1ED0084613E09B1AC0F8F7
:104AE8005831D0F864111144C0F864119A4238BFA3
:104AF8001A4600F017FD2846DFE790F8AE12FFF7D8
:104B0800CEFF18B994F89C32032B09D0204600F048
:104B180011FD2846D1E790F8AE12FFF7C2FFF0E783
:104B280000F1AE0354F823301A69002AEED0C4F815
:104B3800D4021B6920469847E8E701F07F01FFF798
:104B4800B0FF88B994F89C32032BB6D100F1AE03BC
:104B580054F823309A69002AAFD0C4F8D4029B696C
:104B6800294620469847A8E70020A6E738B5044616
:104B78000D4600294BD1D0F89432022B07D094F877
:104B8800A00218B1002384F8A032284638BD8269F3
:104B9800038C9A420DD89A4219D094F89C32032B70
:104BA80029D080212046FFF73BFE204600F0CDFCAF
:104BB800E5E7D21A8261416A1944416200F0AAFC11
:104BC80000231A4619462046FFF74AFED7E74269EE
:104BD8009342E2D8D0F898329A42DED200221146A7
:104BE80000F098FC0021C4F898120B460A462046AB
:104BF800FFF736FEC3E7D4F8B832DA68002AD0D017
:104C08000022C4F8D422DB6820469847C9E741F05F
:104C18008001FFF746FF88B994F89C32032BB5D181
:104C280000F1AE0354F823305A69002AAED0C4F814
:104C3800D4025B69294620469847A7E70020A5E7E4
:104C48000B88027813440B80037818447047428815
:104C580003789A4218D930B583B004460D46ADF8AA
:104C680006306388BDF806209A420AD20DF1060183
:104C7800FFF7E6FF4378052BF3D18378AB42F0D1F9
:104C880000E0002003B030BD00207047034600203C
:104C980002E00130C0B201331A78002AF9D1704716
:104CA8000B7803704B7843708B78CA7843EA0223F9
:104CB80043800B794A7943EA022383808B79CA7946
:104CC80043EA0223C380704710B504468021FFF7EA
:104CD800A7FD00212046FFF7A3FD10BD30B583B026
:104CE80004460D460023ADF806304A88130A013BF6
:104CF800062B00F2AA80DFE803F0041E32A8A88C75
:104D08009900D0F8B4321B680DF10601007C984771
:104D1800EA88002A00F0A380BDF80630002B00F0D6
:104D280099809A4228BF1A46ADF8062001462046C7
:104D380000F0E2FB8CE0037C43B9D0F8B8329B6A00
:104D48000DF10600984702234370E1E7D0F8B83226
:104D5800DB6A0DF10600984702234370D8E7D2B208
:104D6800052A52D8DFE802F003101D2A3744D0F88C
:104D7800B4325B6823B10DF10601007C9847C7E7A0
:104D88002946FFF7A1FF63E0D0F8B4329B6823B14E
:104D98000DF10601007C9847BAE72946FFF794FF12
:104DA80056E0D0F8B432DB6823B10DF10601007C7F
:104DB8009847ADE72946FFF787FF49E0D0F8B432B6
:104DC8001B6923B10DF10601007C9847A0E729462D
:104DD800FFF77AFF3CE0D0F8B4325B6923B10DF1FC
:104DE8000601007C984793E72946FFF76DFF2FE0FF
:104DF800D0F8B4329B6923B10DF10601007C9847C5
:104E080086E72946FFF760FF22E02946FFF75CFFA7
:104E18001EE0037C33B9D0F8B8325B6B0DF10600A5
:104E2800984775E72946FFF74FFF11E0037C43B920
:104E3800D0F8B8321B6B0DF1060098470723437072
:104E480066E72946FFF740FF02E02946FFF73CFFE7
:104E580003B030BD29462046FFF736FFF8E7204665
:104E680000F068FBF4E738B504468B88F3B9CB88C3
:104E7800E3B94B887F2B19D803F07F0590F89C3253
:104E8800032B0CD080F89E522946FFF7D9FC204608
:104E980000F050FB35B1022384F89C3209E0FFF79B
:104EA80013FF06E0012384F89C3202E02046FFF756
:104EB8000BFF38BD70B504460E468D782F4B1D701C
:104EC800012D10D890F89C32DAB2022B0FD0032AA9
:104ED80026D0FFF7F9FE294B19782046FFF70CFD7D
:104EE8000325284670BDFFF7EFFE0325F9E7A5B1B6
:104EF80045602946FFF7F7FC054638B1314620469C
:104F0800FFF7E2FE022384F89C32EAE7204600F02D
:104F180011FB032384F89C32E3E700F00BFBE0E786
:104F2800CDB141688D4225D0C9B2FFF7E5FC134BDE
:104F3800197861602046FFF7D6FC0546B0B13146C6
:104F48002046FFF7C1FE21792046FFF7D5FC022352
:104F580084F89C32C5E7022380F89C3245602946D4
:104F6800FFF7CAFC204600F0E5FABAE7204600F051
:104F7800E1FAB6E700F0DEFA0025B2E7540F0020A8
:104F880008B5CB88012B0BD190F89C32DAB2022BF2
:104F980009D9032A11D10122011D00F0ADFA01E05F
:104FA800FFF792FE08BD52B23AB10146002341F81C
:104FB800083F012200F0A0FAF4E7FFF785FEF1E7C9
:104FC80008B590F89C32013B022B12D8CB88022BF3
:104FD8000CD10123C360D0F8A4320BB10323C36002
:104FE800022200F10C0100F087FA08BDFFF76CFE01
:104FF800FBE7FFF769FEF8E708B54B88012B04D0FB
:10500800022B07D0FFF760FE08BDC0F8A43200F0FD
:1050180091FAF9E78B881B0A80F8A03200F08AFA27
:10502800F2E708B590F89C32013B022B09D84B886F
:10503800012B00D008BD0023C0F8A43200F07AFA92
:10504800F8E7FFF741FEF5E738B50C7804F060049F
:10505800202C06D0402C04D06CB1FFF735FE00247C
:1050680007E0D0F8D432AE3350F823309B68984725
:105078000446204638BD4D78092D1DD8DFE805F0D7
:1050880012191C161C08051C0F0BFFF727FEF0E76A
:10509800FFF7E9FEEDE7FFF70DFF0446E9E7FFF745
:1050A8006FFFE6E7FFF78CFF2C46E2E7FFF7A4FF68
:1050B800DFE7FFF7B6FFDCE7FFF706FED9E770B5D5
:1050C80005460C460B7803F06003202B07D0402BD5
:1050D80005D023B1FFF7F8FD0026304670BD95F8DE
:1050E8009C32013B022B26D82179012905D921467A
:1050F8002846FFF7E9FD0026EFE72846FFF7CFFC33
:1051080068B900F1AE0255F82220916889B1C5F856
:10511800D4029368214628469847064600E00326AD
:10512800E388002BD9D1002ED7D1284600F002FA07
:10513800D3E70326F4E721462846FFF7C5FD0026F6
:10514800CBE72DE9F04106460D468B88DFB20C7897
:1051580004F06004202C08D0402C06D0DCB1FFF706
:10516800B3FD00242046BDE8F08139463046FFF7FC
:1051780098FC0446002840F0FD80C6F8D40200F1EF
:10518800AE0356F823309B68002BEBD029463046F7
:1051980098470446E6E791F80180B8F1010F31D04D
:1051A800B8F1030F05D0B8F1000F67D0FFF78CFDF9
:1051B800D8E790F89C32DAB2022B04D0032A12D036
:1051C800FFF782FDCEE70FB1802F04D12946304684
:1051D800FFF77AFDC6E73946FFF722FB8021304604
:1051E800FFF71EFBBEE74B8823B91FB1802F01D004
:1051F800CB881BB1304600F09DF9B3E73946FFF77D
:105208000FFBF7E790F89C32DAB2022B04D0032A9E
:1052180012D0FFF759FDA5E70FB1802F04D1294619
:105228003046FFF751FD9DE73946FFF7F9FA80212F
:105238003046FFF7F5FA95E74B88002B92D117F027
:105248007F0F17D1304600F075F939463046FFF721
:1052580028FC002886D1C6F8D40200F1AE0256F820
:1052680022209268002A00F087802946304690471D
:10527800044677E73946FFF7DBFAE3E790F89C2224
:10528800D1B2022A06D003292AD02946FFF71CFDED
:10529800444667E70FB1802F14D113F0800F16D161
:1052A80007F07F0707EB8707B90001F5A8713144BC
:1052B8000431002301F80E3F0222304600F01CF9A9
:1052C80044464FE72946FFF7FFFC44464AE707F004
:1052D8007F0707EB8707B900103131440431E8E74D
:1052E8005BB2002B20DB07F00F0202EB820200EB1F
:1052F800820292F863412CB3002B27DB07F07F036F
:1053080003EB83039C0004F5A874344404340FB100
:10531800802F24D10023A373022204F10E0130460A
:1053280000F0EAF844461DE707F00F0202EB82029C
:1053380000EB820292F82340002CDDD12946FFF7CA
:10534800C3FC0FE72946FFF7BFFC0BE707F07F0315
:1053580003EB83039C00103434440434D7E7394604
:105368003046FFF70FFA10B10123A373D4E70023E7
:10537800A373D1E70024F5E60446F3E600B370B55D
:105388000D4616460446FFF781FC01304300B3F58D
:10539800007F06D89BB233802B7003236B700223E7
:1053A8000AE04FF40073F6E7EA5401345A1CD2B20B
:1053B8000021A9540233DBB22278002AF4D170BD4F
:1053C8007047000012230B80004870472C00002013
:1053D80004230B80004870472800002000239342D4
:1053E8001ED200B510E00CF1370C01F813C0000113
:1053F8004FEA430C0CF1010C4FF0000E01F80CE0E1
:105408000133DBB2934209D24FEA107CB0F1204F4E
:10541800E9D20CF1300C01F813C0E8E75DF804FBA1
:105428007047000038B50B4BD3F8100AD3F8144A6C
:10543800D3F8183AC01800D138BD074D08222946BC
:10544800FFF7CCFF042205F110012046FFF7C6FF45
:10545800F2E700BF0070FF1F0E00002008B51A23F6
:105468000B80FFF7DFFF014808BD00BF0C000020DC
:1054780008B50A4628B905490548FFF77FFF0348DC
:1054880008BD02490248FFF779FFF8E7580F0020E6
:10549800646D000810B50A46034C21460348FFF71F
:1054A8006DFF204610BD00BF580F0020786D000822
:1054B80008B50A4628B905490548FFF75FFF0348BC
:1054C80008BD02490248FFF759FFF8E7580F0020C6
:1054D8008C6D000808B50A4628B905490548FFF744
:1054E8004DFF034808BD02490248FFF747FFF8E7A8
:1054F800580F0020986D000808B513460222C0F81E
:1055080094224361416283610A460021FFF7A0F9B2
:10551800002008BD08B513460A460021FFF798F990
:10552800002008BD08B513460A460021FFF798F980
:10553800002008BD08B50422C0F8942200231A46AA
:105548001946FFF785F9002008BD08B50522C0F8FF
:10555800942200231A461946FFF782F9002008BD55
:105568000A230380004870476000002070B5044695
:105578004FF42170FFF722F980B3D4F8D432B03356
:1055880044F82300C4F8BC02237C7BBB284D4FF4AD
:105598000073022229782046FFF727F92B7803F0B9
:1055A8000F0303EB830304EB8303012583F86351A3
:1055B800204E4FF40073022231782046FFF715F988
:1055C800337803F00F0303EB830304EB830383F8BF
:1055D8002350204600F0C4F9002070BDD4F8D4321E
:1055E800B033002244F823200220F6E7104D402370
:1055F800022229782046FFF7F8F82B7803F00F03EA
:1056080003EB830304EB8303012583F86351094EFD
:105618004023022231782046FFF7E7F8337803F079
:105628000F0303EB830304EB830383F82350D0E7D2
:105638005C0000205D00002070B504461A4D2978F2
:10564800FFF7DEF82B7803F00F0303EB830304EB7B
:105658008303002583F86351144E31782046FFF701
:10566800CFF8337803F00F0303EB830304EB8303D2
:1056780083F82350D4F8D432B03354F8233083B1AC
:10568800204600F0BFF9D4F8D432B03354F82300E0
:10569800FFF798F8D4F8D432B03344F82350C4F85C
:1056A800BC52002070BD00BF5C0000205D000020DF
:1056B8002DE9F04182B0D0F8D42202F1B00350F8BD
:1056C80023700023ADF80630002F00F08F800446C9
:1056D8000D460B7813F060063BD0202E7FD1497819
:1056E800FE2906D0FF2923D02946FFF7EDFA032625
:1056F80078E0698811B9E988012905D0294620464A
:10570800FFF7E2FA03266DE013F0800FF6D0B0320F
:1057180000EB820253689B699847022828BF022041
:105728003860012239462046FFF7E6FE002659E098
:105738006A8842B9EA8832B913F0800F03D100F0C1
:105748003FF900264EE029462046FFF7BDFA03261A
:1057580048E091F80180B8F10B0F3CD8DFE808F079
:10576800062D3B3B3B3B3B3B3B3B152290F89C3299
:10577800032B03D0FFF7A8FA032633E002220DF12A
:105788000601FFF7B9FE46462CE090F89C32032B41
:1057980003D0FFF799FA032624E00122391DFFF709
:1057A800ABFE1FE090F89C32032B02D18B787B6014
:1057B80018E0FFF789FA032614E090F89C32032BCF
:1057C80010D14B8873B90979FFF722F82979204657
:1057D80000F0E4F906E0FFF777FA032602E0FFF7A6
:1057E80073FA0326304602B0BDE8F0810326F9E7D4
:1057F80008B500F037F9002008BD08B500F0B0F989
:10580800002008BD70B505460B4E81213046FFF7D4
:105818001EFA044601213046FFF719FA1CB100228E
:1058280022710222627118B10022027102224271B1
:1058380020232B80004870BD6C00002070B5054601
:105848000B4E81213046FFF702FA0446012130460B
:10585800FFF7FDF91CB1402222710022627118B1D4
:10586800402202710022427120232B80004870BD23
:105878006C00002070B505460B4E81213046FFF7BD
:10588800E6F9044601213046FFF7E1F91CB1402250
:1058980022710022627118B1402202710022427105
:1058A80020232B80004870BD6C00002039B1D0F84F
:1058B800D432B03300EB83004160002070470320EE
:1058C8007047000038B5D0F8D442B03450F82440BE
:1058D800A4B11346D4F81852D4F83822D21AC4F80E
:1058E8003822002284F83C2204222272AB4228BFCC
:1058F8002B460A4602490978FEF7AAFF38BD00BFC1
:105908005D00002038B5D0F8D432B03350F82350B9
:1059180085B1044695F81C3223B9D5F818320BB175
:105928006B7A43B10C4B19782046FEF779FF6B7AF6
:10593800022B05D038BD094B1978FEF771FFF1E746
:10594800054B19782046FEF76BFF044B1978204663
:10595800FEF766FFEEE700BF5D0000205C00002058
:1059680070B5D0F8D432B03350F8235015B304468C
:1059780000202872687285F8610285F8600285F84F
:105988006202D4F8D432B03304EB83035B681B683B
:105998009847094E31782046FEF73AFF074B1978A9
:1059A8002046FEF735FF1F2305F50472317820469F
:1059B800FEF756FF70BD00BF5C0000205D000020B0
:1059C80070B5D0F8D432B03350F82350A5B104469E
:1059D80000232B7201236B72084B1978FEF728FFFE
:1059E800074E31782046FEF723FF1F2305F5047282
:1059F80031782046FEF734FF70BD00BF5D000020FF
:105A08005C000020D0F8D432B03350F823300BB10A
:105A180000221A727047000038B5D0F8D432B0337B
:105A280050F82350B5B104460B4BC5F8303285F811
:105A38003C1200232B720D2305F50C7207490978D7
:105A4800FEF706FF1F2305F504720549097820466D
:105A5800FEF706FF38BD00BF555342535D000020D6
:105A68005C000020D0F8D432B03350F82310D1B104
:105A780010B504460B7A022B08D006D3033BDBB2E1
:105A8800012B02D80021FFF7C7FF10BD01F21F222A
:105A980091F81D1200F0D5FE0028F6DA0121204603
:105AA800FFF7BAFFF1E7704738B5D0F8D432B03312
:105AB80050F82350FDB10446D5F81432C5F83432F5
:105AC800D5F81832C5F83832234B1978FEF770FE2E
