:020000040800F2
:1000000000000220B1B10008078000080980000844
:100010000B8000080D8000080F8000080000000021
:100020000000000000000000000000001180000837
:1000300013800008000000001580000817800008E9
:1000400001B2000801B2000801B2000801B20008C4
:1000500001B2000801B2000801B2000801B20008B4
:1000600001B2000801B2000801B2000801B20008A4
:1000700001B2000801B2000801B2000821800008A6
:1000800001B2000801B2000801B2000801B2000884
:1000900001B2000801B2000801B2000801B2000874
:1000A00001B2000801B2000801B2000801B2000864
:1000B00001B200083180000801B2000801B2000856
:1000C00001B2000801B2000801B2000801B2000844
:1000D00001B200084180000801B2000801B2000826
:1000E00001B2000801B2000801B2000801B2000824
:1000F00001B2000801B2000801B2000801B2000814
:1001000001B2000801B2000801B2000801B2000803
:1001100001B2000801B2000801B2000851800008D5
:1001200001B2000801B2000801B2000801B20008E3
:1001300001B20008000000000000000001B2000849
:1001400001B2000801B2000801B200086180000895
:1001500001B2000801B200087180000801B2000875
:1001600001B2000801B2000801B2000801B20008A3
:1001700001B2000801B20008000000000000000009
:0801800001B2000801B2000801
:1001880081F0004102E000BF83F0004330B54FEA40
:1001980041044FEA430594EA050F08BF90EA020FAD
:1001A8001FBF54EA000C55EA020C7FEA645C7FEA40
:1001B800655C00F0E2804FEA5454D4EB5555B8BF63
:1001C8006D420CDD2C4480EA020281EA030382EAD4
:1001D800000083EA010180EA020281EA0303362D66
:1001E80088BF30BD11F0004F4FEA01314FF4801C39
:1001F8004CEA113102D0404261EB410113F0004F4B
:100208004FEA03334CEA133302D0524263EB430301
:1002180094EA050F00F0A780A4F10104D5F1200E9F
:100228000DDB02FA0EFC22FA05F2801841F10001FA
:1002380003FA0EF2801843FA05F359410EE0A5F1CE
:1002480020050EF1200E012A03FA0EFC28BF4CF0FF
:10025800020C43FA05F3C01851EBE37101F00045B5
:1002680007D54FF0000EDCF1000C7EEB00006EEBC2
:100278000101B1F5801F1BD3B1F5001F0CD349084C
:100288005FEA30004FEA3C0C04F101044FEA4452A3
:1002980012F5800F80F09A80BCF1004F08BF5FEA2A
:1002A800500C50F1000041EB045141EA050130BD0A
:1002B8005FEA4C0C404141EB0101013C28BFB1F51C
:1002C800801FE9D291F0000F04BF01460020B1FA67
:1002D80081F308BF2033A3F10B03B3F120020CDA3A
:1002E8000C3208DD02F1140CC2F10C0201FA0CF018
:1002F80021FA02F10CE002F11402D8BFC2F1200C7D
:1003080001FA02F120FA0CFCDCBF41EA0C01904032
:10031800E41AA2BF01EB0451294330BD6FEA04047B
:100328001F3C1CDA0C340EDC04F11404C4F1200266
:1003380020FA04F001FA02F340EA030021FA04F378
:1003480045EA030130BDC4F10C04C4F1200220FACF
:1003580002F001FA04F340EA0300294630BD21FA0D
:1003680004F0294630BD94F0000F83F4801306BFD3
:1003780081F480110134013D4EE77FEA645C18BFC7
:100388007FEA655C29D094EA050F08BF90EA020F5E
:1003980005D054EA000C04BF1946104630BD91EA56
:1003A800030F1EBF0021002030BD5FEA545C05D159
:1003B8004000494128BF41F0004130BD14F5800498
:1003C8003CBF01F5801130BD01F0004545F0FE410C
:1003D80041F470014FF0000030BD7FEA645C1ABF41
:1003E800194610467FEA655C1CBF0B46024650EA78
:1003F800013406BF52EA033591EA030F41F40021A4
:1004080030BD00BF90F0000F04BF0021704730B529
:100418004FF4806404F132044FF000054FF00001FE
:1004280050E700BF90F0000F04BF0021704730B5BF
:100438004FF4806404F1320410F0004548BF404294
:100448004FF000013EE700BF42004FEAE2014FEAE9
:1004580031014FEA02701FBF12F07F4393F07F4FC4
:1004680081F06051704732F07F4208BF704793F0C7
:100478007F4F04BF41F40021704730B54FF46074DA
:1004880001F0004521F000411CE700BF50EA0102DD
:1004980008BF704730B54FF000050AE050EA010286
:1004A80008BF704730B511F0004502D5404261EBF6
:1004B80041014FF4806404F132045FEA915C3FF437
:1004C800D8AE4FF003025FEADC0C18BF03325FEAD4
:1004D800DC0C18BF033202EBDC02C2F1200300FA85
:1004E80003FC20FA02F001FA03FE40EA0E0021FAAA
:1004F80002F11444BDE600BF70B54FF0FF0C4CF498
:10050800E06C1CEA11541DBF1CEA135594EA0C0F49
:1005180095EA0C0F00F0DEF82C4481EA030621EA84
:100528004C5123EA4C5350EA013518BF52EA0335BF
:1005380041F4801143F4801338D0A0FB02CE4FF071
:100548000005E1FB02E506F00042E0FB03E54FF0A1
:100558000006E1FB03569CF0000F18BF4EF0010E99
:10056800A4F1FF04B6F5007F64F5407404D25FEA95
:100578004E0E6D4146EB060642EAC62141EA555148
:100588004FEAC52040EA5E504FEACE2EB4F1FD0C8A
:1005980088BFBCF5E06F1ED8BEF1004F08BF5FEA08
:1005A800500E50F1000041EB045170BD06F00046BA
:1005B80046EA010140EA020081EA0301B4EB5C0467
:1005C800C2BFD4EB0C0541EA045170BD41F480115F
:1005D8004FF0000E013C00F3AB8014F1360FDEBF84
:1005E800002001F0004170BDC4F10004203C35DA60
:1005F8000C341BDC04F11404C4F1200500FA05F3E3
:1006080020FA04F001FA05F240EA020001F0004283
:1006180021F0004110EBD37021FA04F642EB0601F9
:100628005EEA430E08BF20EAD37070BDC4F10C0423
:10063800C4F1200500FA04F320FA05F001FA04F2E7
:1006480040EA020001F0004110EBD37041F10001D3
:100658005EEA430E08BF20EAD37070BDC4F12005DE
:1006680000FA05F24EEA020E20FA04F301FA05F246
:1006780043EA020321FA04F001F0004121FA04F2EE
:1006880020EA020000EBD3705EEA430E08BF20EABE
:10069800D37070BD94F0000F0FD101F000464000F8
:1006A80041EB010111F4801F08BF013CF7D041EA7A
:1006B800060195F0000F18BF704703F0004652007E
:1006C80043EB030313F4801F08BF013DF7D043EA4F
:1006D8000603704794EA0C0F0CEA135518BF95EA05
:1006E8000C0F0CD050EA410618BF52EA4306D1D18C
:1006F80081EA030101F000414FF0000070BD50EAAB
:10070800410606BF1046194652EA430619D094EA34
:100718000C0F02D150EA013613D195EA0C0F05D11E
:1007280052EA03361CBF104619460AD181EA030172
:1007380001F0004141F0FE4141F470014FF000002A
:1007480070BD41F0FE4141F4780170BD70B54FF0C5
:10075800FF0C4CF4E06C1CEA11541DBF1CEA135545
:1007680094EA0C0F95EA0C0F00F0A7F8A4EB050427
:1007780081EA030E52EA03354FEA013100F088801E
:100788004FEA03334FF0805545EA131343EA1263E7
:100798004FEA022245EA111545EA10654FEA00269C
:1007A8000EF000419D4208BF964244F1FD0404F555
:1007B800407402D25B084FEA3202B61A65EB0305B1
:1007C8005B084FEA32024FF480104FF4002CB6EB6E
:1007D800020E75EB030E22BFB61A754640EA0C00EE
:1007E8005B084FEA3202B6EB020E75EB030E22BF2E
:1007F800B61A754640EA5C005B084FEA3202B6EB6F
:10080800020E75EB030E22BFB61A754640EA9C002D
:100818005B084FEA3202B6EB020E75EB030E22BFFD
:10082800B61A754640EADC0055EA060E18D04FEABB
:10083800051545EA16754FEA06164FEAC30343EA5B
:1008480052734FEAC2025FEA1C1CC0D111F4801F28
:100858000BD141EA00014FF000004FF0004CB6E721
:1008680011F4801F04BF01430020B4F1FD0C88BFC0
:10087800BCF5E06F3FF6AFAEB5EB030C04BFB6EBCB
:10088800020C5FEA500C50F1000041EB045170BDBE
:100898000EF0004E4EEA113114EB5C04C2BFD4EBEB
:1008A8000C0541EA045170BD41F480114FF0000E6F
:1008B800013C90E645EA060E8DE60CEA135594EAEB
:1008C8000C0F08BF95EA0C0F3FF43BAF94EA0C0FEE
:1008D8000AD150EA01347FF434AF95EA0C0F7FF463
:1008E80025AF104619462CE795EA0C0F06D152EAB7
:1008F80003353FF4FDAE1046194622E750EA41069B
:1009080018BF52EA43067FF4C5AE50EA41047FF4AB
:100918000DAF52EA43057FF4EBAE12E74FEA41020E
:1009280012F5001215D211D56FF47873B3EB625239
:1009380012D94FEAC12343F0004343EA505311F060
:10094800004F23FA02F018BF404270474FF00000F2
:10095800704750EA013005D111F0004008BF6FF030
:10096800004070474FF00000704700BF4A0011D2A6
:1009780012F5001211D20DD56FF47873B3EB6252F1
:100988000ED44FEAC12343F0004343EA505323FAFD
:1009980002F070474FF00000704750EA013002D172
:1009A8004FF0FF3070474FF00000704753B94AB915
:1009B800002908BF00281CBF4FF0FF314FF0FF305F
:1009C80000F00CB8ADF1080C6DE904CE0AF050FC4B
:1009D800DDF804E0DDE9022304B07047704700BF8A
:1009E8000348044B834202D0034B03B118477047B6
:1009F8001801002018010020000000000548064BDF
:100A08001B1AD90F01EBA301491002D0034B03B104
:100A18001847704718010020180100200000000046
:100A280010B5064C237843B9FFF7DAFF044B13B12E
:100A38000448AFF300800123237010BD1801002083
:100A48000000000070B5000808B5054B1BB105494A
:100A58000548AFF30080BDE80840FFF7CFBF00BFEF
:100A6800000000001C01002070B5000808B50A4607
:100A78004FF4FA630146024805F0EDFC08BD00BFDB
:100A88005809002008B50A4641F288330146024851
:100A980005F0ECFE08BD00BF5809002010B582B073
:100AA80066238DF8043099238DF80530094C00220F
:100AB8001021204602F023FF022101A8FFF7D6FFEC
:100AC80001221021204602F01AFF642002F08AF960
:100AD80002B010BD0008024010B582B006238DF8A0
:100AE8000730094C00221021204602F008FF01219E
:100AF8000DF10700FFF7BAFF01221021204602F08E
:100B0800FEFE02B010BD00BF0008024070B582B002
:100B18000C46154603238DF80430030C8DF8053078
:100B2800030A8DF806308DF807000C4E00221021BC
:100B3800304602F0E4FE04210DEB0100FFF796FFBA
:100B480041F28833AAB22146054805F08FFE0122FA
:100B58001021304602F0D3FE02B070BD00080240FA
:100B68005809002030B583B005238DF8073002F00E
:100B780033F90546114C00221021204602F0BFFE31
:100B880001210DF10700FFF771FF01210DF10600AA
:100B9800FFF778FF01221021204602F0B0FE02F094
:100BA8001BF9401BB0F5FA7F05D89DF8060010F038
:100BB8000100DFD100E0012003B030BD0008024091
:100BC80070B5C2B005460E46FFF786FF2B0201AC92
:100BD80002228DF804202A0A8DF805208DF8065087
:100BE8008DF807304FF48072314602A80AF032FBC4
:100BF800094D00221021284602F081FE4FF482712F
:100C08002046FFF733FF01221021284602F077FE25
:100C1800FFF7A8FF42B070BD0008024010B582B0CF
:100C28000446FFF759FF20238DF80430230C8DF874
:100C38000530230A8DF806308DF80740094C00224C
:100C48001021204602F05BFE04210DEB0100FFF7A6
:100C58000DFF01221021204602F051FEFFF782FF0E
:100C680002B010BD0008024010B582B00446FFF77C
:100C780033FF230120228DF80420C4F30F328DF8AE
:100C88000520C4F317148DF806408DF807300A4C78
:100C980000221021204602F032FE04210DEB010053
:100CA800FFF7E4FE01221021204602F028FEFFF79C
:100CB80059FF02B010BD00BF00080240052907D83F
:100CC800037923F0380343EAC10303710020704716
:100CD80001207047052906D8037923F00703194333
:100CE80001710020704701207047072903D8490087
:100CF80041710020704701207047112902D8817185
:100D0800002070470120704707EE901AF8EE677AC6
:100D180090ED027A77EEC77A90ED037A27EE277A7C
:100D280027EEA70AD0ED047A20EE270A30EE070A4C
:100D380082ED000A704707EE101AD0ED0A4A64EEF9
:100D4800804A90ED0B5A60EE006A25EE265A90ED27
:100D58000C6A66EE805A26EE256AD0ED097A77EE9F
:100D6800A47A77EE857A77EE867A90ED065A25EEA4
:100D7800005A90ED076A26EE866AD0ED086A65EE9D
:100D8800A65AB8EE477AD0ED056A76EE856A76EE11
:100D9800866A76EEA56A67EE266A27EE075A90ED10
:100DA8000D6AD0ED0E5A65EE805A36EE256A25EEAC
:100DB800066A27EE057AD0ED0F5A27EE257A37EE28
:100DC800067A37EEA60A30EE070A82ED000A704767
:100DD80070B582B005460E4611461C4601AAFFF7BB
:100DE80093FF6A4631469DED010A2846FFF7A3FFA7
:100DF800009B2360019A069B1A6002B070BD10B573
:100E080084B00068642402940193009201230A4686
:100E1800EE2103F09BF904B010BD000010B586B0B8
:100E280004466A46002300930193029303930493B4
:100E38008DF8143015233121FFF7E1FF0246002811
:100E480040F0C9809DF801109DF8003043EA012365
:100E580007EE903AF8EE677A9FED607A67EE877A48
:100E6800C4ED027A9DF803109DF8023043EA01238D
:100E780007EE903AF8EE677A9FED597A67EE877A2F
:100E8800C4ED037A9DF9043007EE903AF8EEE77A5C
:100E98009FED547A67EE877AC4ED047A9DF80630A0
:100EA8001B021BB29DF805100B4307EE903AF8EEB3
:100EB800E77ADFED4D6A77EEE67A9FED4C6A67EEEA
:100EC800867AC4ED057A9DF808301B021BB29DF89E
:100ED80007100B4307EE903AF8EEE77A77EEE67ADA
:100EE800DFED436A67EEA67AC4ED067A9DF909300C
:100EF80007EE903AF8EEE77ADFED3E6A67EEA67AFB
:100F0800C4ED077A9DF90A3007EE903AF8EEE77AD1
:100F1800DFED396A67EEA67AC4ED087A9DF80C1001
:100F28009DF80B3043EA012307EE903AF8EE677A12
:100F3800F2EE006A67EEA67AC4ED097A9DF80E1003
:100F48009DF80D3043EA012307EE903AF8EE677AF0
:100F5800DFED2A6A67EEA67AC4ED0A7A9DF90F30AA
:100F680007EE903AF8EEE77ADFED256A67EEA67AA3
:100F7800C4ED0B7A9DF9103007EE903AF8EEE77A57
:100F8800DFED206A67EEA67AC4ED0C7A9DF8123080
:100F98001B021BB29DF811100B4307EE903AF8EEB6
:100FA800E77A67EE877AC4ED0D7A9DF9133007EE7C
:100FB800903AF8EEE77A67EE877AC4ED0E7A9DF9F3
:100FC800143007EE903AF8EEE77A9FED0F7A67EE65
:100FD800877AC4ED0F7A104606B010BD0000804332
:100FE8000000803000008027000080460000803527
:100FF800000000310000802F0000002D0000803C20
:101008000000803B000000380000001F10B584B0CD
:101018000068642402940193009201230A46EE2199
:1010280002F0E4FF04B010BDF0B585B004460F46E9
:1010380016461D4613238DF80F3003798DF80E30B0
:1010480083798DF80D3043798DF80C3001230DF13B
:101058000E021C21FFF7DAFF08B105B0F0BD01232D
:101068000DF10D021D212046FFF7D0FF0028F4D115
:10107800012303AA1F212046FFF7C8FF0028ECD14F
:1010880001230DF10F021B212046FFF7BFFF0028A7
:10109800E3D10B236A4604212046FFF7B0FE00285F
:1010A800DBD19DF802209DF801301B0243EA024380
:1010B8009DF8002013433B609DF805209DF80430FF
:1010C8001B0243EA02439DF80320134333609DF853
:1010D8000A209DF809301B0243EA02439DF80820C4
:1010E80013432B60B9E710B582B00446B6238DF8D8
:1010F800073001230DF106020321FFF780FE20B916
:101108009DF8063013F0100F01D102B010BD012375
:101118000DF107027E212046FFF778FF0028F4D161
:10112800022001F05FFE01230DF105020221204695
:10113800FFF765FEE9E710B582B0044601230DF11B
:1011480007020021FFF75BFE18B99DF80730502B06
:1011580001D002B010BD2046FFF7C5FF0028F8D126
:101168002046FFF75BFEF4E701600023A0F86E302D
:1011780080F8723080F8733080F8743080F87530F9
:1011880080F8763080F877308367C0F88030C0F810
:101198009030C0F89430C0F89C30C0F8A030C0F847
:1011A800A430C0F8AC30704710B504460822054991
:1011B800006806F07FFC11220349206806F00DFF45
:1011C80010BD00BF88B50008A0050020002307E077
:1011D80003F10A01044A0A44117AC2181171013351
:1011E800042BF5DD704700BF9805002000000000C3
:1011F80010B50446664B997C664A117080F87010E9
:10120800D97C517080F871101288A0F86E201A7D70
:1012180080F872205A7D80F873209A7D80F87420B7
:10122800DA7D80F875201A7E80F8762093F82230CF
:1012380080F8773000230AE003F11E01544A0A447B
:10124800127A5549CA54E11881F87C200133032BDE
:10125800F2DD514B1B68A36707EE903AF8EEE77A88
:10126800DFED4E6A87EEA67A84ED227A00230AE043
:1012780003F12201464A0A44127A4749CA54E1183E
:1012880081F884200133032BF2DD434B1B68C4F83B
:10129800803007EE903AF8EEE77ADFED406A87EEA5
:1012A800A67A84ED237A002307E003F12601384A61
:1012B8000A44117A384AD1540133032BF5DD364BF1
:1012C8001B68C4F8903000230AE003F12A01304A71
:1012D8000A44127A3049CA54E11881F89820013337
:1012E800032BF2DD2C4B1B68C4F89430002307E075
:1012F80003F12E01264A0A44117A294AD1540133AE
:10130800032BF5DD264B1B68C4F89C30002307E04F
:1013180003F132011E4A0A44117A214AD154013399
:10132800032BF5DD1E4B1B68C4F8A03000230AE030
:1013380003F14201164A0A44127A1749CA54E118BD
:1013480081F8A8200133032BF2DD134B1B68C4F886
:10135800A430002307E003F146010D4A0A44117A3C
:101368000D4AD1540133032BF5DD0B4B1868FFF7F9
:1013780059F805A3D3E90023FFF7BEF8FFF7CEFA23
:10138800C4F8AC0010BD00BFF168E388B5F8E43ECE
:10139800980500203C010020340100208096184B5D
:1013A800380100200C4B997E0C4A1170D97E51707F
:1013B8001288A0F86E201A7F80F872205A7F80F871
:1013C80073209A7F80F87420DA7F80F8752093F86C
:1013D800203080F876307047980500203C010020C6
:1013E800002307E003F10A01374A0A44117A374A11
:1013F800D1540133032BF5DD344B1B68836707EEAB
:10140800903AF8EEE77ADFED326A87EEA67A80ED59
:10141800227A002307E003F10E012B4A0A44117ACD
:101428002A4AD1540133032BF5DD284B1B68C0F839
:10143800803007EE903AF8EEE77ADFED256A87EE1E
:10144800A67A80ED237A002307E003F112011E4AF1
:101458000A44117A1D4AD1540133032BF5DD1B4B85
:101468001B68C0F89030002307E003F11601164A04
:101478000A44117A154AD1540133032BF5DD134B75
:101488001B68C0F89430002307E003F11A010E4AE4
:101498000A44117A0F4AD1540133032BF5DD0D4B61
:1014A8001B68C0F89C30002307E003F11E01064AC0
:1014B8000A44117A074AD1540133032BF5DD054B51
:1014C8001B68C0F8A0307047980500203401002040
:1014D8008096184B3801002038B50546002408E0EE
:1014E800E21C2A44127A032A13D12846FFF76EFE1B
:1014F8000134642C2EDC2B191B7AB52BF8D1631C14
:101508002B441B7A622BF3D1A31C2B441B7A272B69
:10151800E6D0012B0CD0012B13D0012BE8D1E31C12
:101528002B441B7A022BE3D12846FFF759FFDFE74C
:10153800E21C2A44127A212AEDD12846FFF732FF0D
:10154800D6E7E21C2A44127A072AE6D12846FFF792
:101558004FFECDE738BD000010B504461C220C49EB
:10156800006806F0A7FAFA2001F03CFC1C220949A1
:10157800206806F09FFAFA2001F034FC2C22064974
:10158800206806F097FAFA2001F02CFC10BD00BF85
:10159800D8B50008BCB5000890B5000808B5044BDC
:1015A8000022B3F86410186E02F0A9F908BD00BF54
:1015B8004001002008B5044B0122B3F86410186EEE
:1015C80002F09DF908BD00BF4001002008B505E004
:1015D800074BB3F86C10986E02F08AF9044BB3F815
:1015E8006C10986E02F084F90028F1D108BD00BF94
:1015F800400100202DE9F04182B004460D46164610
:101608001F46BDF82080FFF7E1FFFFF7C7FF0097EF
:1016180033462A462146084804F0FFFF074B187056
:10162800FFF7C8FFB8F1000F02D102B0BDE8F081A2
:10163800404601F0D7FBF8E7400100203E010020BA
:101648002DE9F04F83B080460F46424812230370BD
:10165800FF2343708370C370002300936423042224
:101668003D49FFF7C7FF0CE03A4802230370FF2308
:101678004370837000230093642303223649FFF7E5
:10168800B9FF0121354802F033F90028ECD1314C7B
:10169800142323704FF0FF0984F8019084F8029016
:1016A80084F8039084F804902B4D00260096642358
:1016B800052229462046FFF79DFF1323237084F84F
:1016C800019084F8029084F8039000966423042221
:1016D80029462046FFF78EFF95F80290EB782E708A
:1016E8006E70AE70EE702E716E71AE71EE712E72FC
:1016F8006E721E2222706370A670E6702671667183
:10170800A671FFF763FFFFF749FFDFF858A04FF016
:10171800640BCDF800B003232A462146504604F056
:101728007CFF0F4E3070CDF800B04B462A46E11CC6
:10173800504604F072FF3070FFF73CFFFFF746FF9A
:101748004A462946404609F085FD87F8009003B0CF
:10175800BDE8F08F180500200C05002000040240A9
:101768003E0100204001002000B583B00D481D2334
:10177800037007234370402383700023009364237E
:1017880005220949FFF736FF084B187838B9064B88
:101798001B79142B00D0012003B05DF804FB022054
:1017A800FAE700BF180500200C0500203E010020C4
:1017B80070B582B0124C8C232370002363700C2206
:1017C800A270E370FF2525716371A3710D4E00931C
:1017D8006423072231462046FFF70CFF822323703B
:1017E8006570A570E57032230093642304223146A6
:1017F8002046FFF7FFFE044B01221A7002B070BDAD
:10180800180500200C0500203F0100202DE9F047B5
:1018180082B0494C9D2323704FF0010884F8018061
:10182800464E0A2700976423022231462046FFF7D6
:10183800E1FE8A23237084F8018000976423022242
:1018480031462046FFF7D6FE862323701B2363709C
:101858001023A3700025E5702571009764230522E5
:1018680031462046FFF7C6FE9F2323706570009718
:101878006423022231462046FFF7BCFE8B232370E7
:101888004FF0070A84F801A04FF0050984F8029088
:1018980084F803802571009764234A463146204620
:1018A800FFF7A8FE952323700423637084F802A031
:1018B800E57084F80480009764234A463146204640
:1018C800FFF798FE8E232370162363704FF00208EB
:1018D80084F8028000976423032231462046FFF7EC
:1018E80089FEA02323706570009764234246314621
:1018F8002046FFF77FFE08232370657084F8028076
:10190800FF23E37023716571A571E5712572009756
:101918006423092231462046FFF76CFE9323237087
:101928003023637000976423424631462046FFF710
:1019380061FE02B0BDE8F087180500200C05002004
:1019480010B582B0FFF736FE144C0022B4F85C10D4
:10195800A06D01F0D4FF322001F044FA0122B4F85E
:101968005C10A06D01F0CBFF642001F03BFA0C483D
:1019780097230370002343708370C3700A23009376
:10198800642304220749FFF735FEFFF7EDFE08B18F
:1019980002B010BDFFF73AFFFAE700BF4001002090
:1019A800180500200C05002000B585B0FEF72AFDBB
:1019B80010A3D3E90023FEF7C9FEFEF7D7FF86235D
:1019C8008DF80830030E8DF80930030C8DF80A30B5
:1019D800030A8DF80B308DF80C0000230093642364
:1019E8000522034902A8FFF705FE05B05DF804FBD0
:1019F8000C050020000000008084EE3F08B501F0CF
:101A0800F1F908BD10B5044602E00120FFF7F6FF22
:101A18006379002BF9D10123637110BD0023437151
:101A2800704710B5BDF808C0A8B10446A9B1B3B154
:101A3800016002718360A0F80CC00122614618465B
:101A480001F05DFF642302222179206802F0FAFC8C
:101A580038B1002000E0002010BD0020FCE7002085
:101A6800FAE70120F8E7F0B585B004460E461746B8
:101A78001D46FFF7C7FF0A9B0293ADB20195009779
:101A88001023B2B22179206802F060FB30B1002542
:101A98002046FFF7C3FF284605B0F0BD0125F7E74C
:101AA80008B50349034800F033F8034B187008BD24
:101AB800240500200001002028050020134B5B7A34
:101AC80013BB10B5044603F0FF00104B93F809C090
:101AD8005FFA8CFC4FF0000E03F80CE093F809C095
:101AE80003EB8C0CCCF804405C7A1C4422725A7AC2
:101AF800541CE4B25C7230320A703A234B702F23C4
:101B08008B7081F803E010BD012070472C05002080
:101B180008B50022FFF7D2FF08BD90F83130012B3D
:101B28000BD010B5044690F83310203000F026FA98
:101B380028B9012384F8313010BD002070474FF0D8
:101B4800FF30F9E738B5054600F12004802120462A
:101B580000F082F960BB0121204600F064F950BB17
:101B68000121204600F004F940BB0021204600F086
:101B7800A8F930BB042385F833300021204600F053
:101B8800FDF908BB0021204600F09EF8F8B90423AF
:101B980085F834300021204600F075FAD0B90621C6
:101BA800204600F0CCF8C0B9012385F8303038BDA4
:101BB8004FF0FF30FBE74FF0FF30F8E74FF0FF3012
:101BC800F5E74FF0FF30F2E74FF0FF30EFE74FF067
:101BD800FF30ECE74FF0FF30E9E74FF0FF30E6E782
:101BE80008B5203000F018F900B908BD4FF0FF30F3
:101BF800FBE7000010B582B00C460DF1070120305C
:101C080000F07BF8A0B99DF80730032B13D8DFE864
:101C180003F0020C0609094B236002B010BD084B03
:101C28002360FAE7074B2360F7E7074B2360F4E7E5
:101C38004FF0FF30F1E74FF0FF30EEE723DB793D5F
:101C480023DBF93D23DB793E23DBF93E30B585B054
:101C580005460C460023019302A9203000F0A1F8A4
:101C680060BB01A92846FFF7C5FF50BBBDF9083086
:101C780007EE103AB8EEC77ADDED017A27EE277A3B
:101C8800BDEEC77A84ED007ABDF90A3007EE103A46
:101C9800B8EEC77A27EE277ABDEEC77A84ED017AC7
:101CA800BDF90C3007EE103AB8EEC77A67EE877ABE
:101CB800FDEEE77AC4ED027A05B030BD4FF0FF3093
:101CC800FAE74FF0FF30F7E730B583B004460D462A
:101CD800012301AA102100F08BFB08B103B030BD2D
:101CE8009DF8043065F383038DF80430012301AABD
:101CF8001021204600F04EFBF0E710B582B00C46EC
:101D0800012301AA102100F073FB9DF80430C3F3EE
:101D18008103032B10D8DFE803F00206090C002327
:101D2800237002B010BD01232370FAE70223237049
:101D3800F7E703232370F4E700232370F1E730B5B6
:101D480083B004460D46012301AA112100F050FB7F
:101D580008B103B030BD9DF8043065F343038DF836
:101D68000430012301AA1121204600F013FBF0E7FB
:101D780030B583B004460D46012301AA122100F0B4
:101D880037FB08B103B030BD9DF8043065F3861306
:101D98008DF80430012301AA1221204600F0FAFA36
:101DA800F0E710B582B00C4606236A46282100F0F9
:101DB8001FFB9DF8012022809DF8003003EB0223D1
:101DC80023809DF8032062809DF8023003EB0223F4
:101DD80063809DF80520A2809DF8043003EB022360
:101DE800A38002B010BD30B583B004460D46012370
:101DF80001AA194600F0FCFA08B103B030BD9DF8FD
:101E0800043065F387138DF80430012301AA1946BD
:101E1800204600F0BFFAF0E708B50A4601230F2173
:101E280000F0E6FA08BD30B583B004460D4601233C
:101E380001AA122100F0DCFA08B103B030BD9DF808
:101E4800043065F382038DF80430012301AA1221BE
:101E5800204600F09FFAF0E730B583B005460C46FF
:101E680001236A46182100F0C3FA034618B1D3B11A
:101E7800184603B030BDE3099DF8002063F3410222
:101E88008DF8002001236A461821284600F082FABE
:101E980003460028ECD1012301AA6221284600F05C
:101EA800A7FA0346E3E79DF8043064F3C4038DF80A
:101EB8000430012301AA6221284600F06BFA034688
:101EC800D6E730B583B004460D46012301AA0A219E
:101ED80000F08EFA08B103B030BD9DF8043065F308
:101EE80002038DF80430012301AA0A21204600F0DC
:101EF80051FAF0E738B504460D460221FFF773FFA3
:101F080000B138BD02232A464621204600F070FA67
:101F18000028F6D100212046FFF765FFF1E730B52C
:101F280083B005460C460221FFF75DFF08B103B0F8
:101F380030BD012301AA5F21284600F059FA002884
:101F4800F5D19DF80430C3F3C103032B13D8DFE8A0
:101F580003F002090C0F0023237000212846FFF725
:101F680042FFE4E701232370F7E702232370F4E735
:101F780003232370F1E700232370EEE730B583B025
:101F880004460D4601A9FFF7B5FF0246C8BB9DF8F8
:101F9800041001F00103C1F340000343C1F38000C2
:101FA8000343C1F3C0000343C1F300100343C1F36B
:101FB80040100343C1F38010034343EAD1139DF853
:101FC800051001F001000343C1F340000343C1F3CE
:101FD80080000343C1F3C0000343C1F3001003436F
:101FE800C1F340100343C1F38010034353EAD113F4
:101FF8000CD142B901236A461021204600F0F8F9B5
:102008000246002A31D0104603B030BD0DF103015D
:102018002046FFF784FF02460028F4D19DF80330DC
:10202800032BE6D8DFE803F002060B13002DE0D1FE
:102038000125DEE78DB1012DDBD10225D9E7012D80
:102048000DD0022D0DD0002DD3D10325D1E7032DBE
:10205800CFD8DFE805F0080808080225C9E70325F6
:10206800C7E70325C5E70425C3E79DF8003065F3F6
:1020780007138DF8003001236A461021204600F02E
:1020880089F90246BFE730B583B004460D4601A979
:10209800FFF730FF0246C8BB9DF8041001F00103AA
:1020A800C1F340000343C1F380000343C1F3C00000
:1020B8000343C1F300100343C1F340100343C1F3CA
:1020C8008010034343EAD1139DF8051001F0010085
:1020D8000343C1F340000343C1F380000343C1F34A
:1020E800C0000343C1F300100343C1F3401003438E
:1020F800C1F38010034353EAD1130CD142B9012331
:102108006A461121204600F073F90246002A31D0B0
:10211800104603B030BD0DF103012046FFF7FFFE66
:1021280002460028F4D19DF80330032BE6D8DFE8F7
:1021380003F002060B13002DE0D10125DEE78DB177
:10214800012DDBD10225D9E7012D0DD0022D0DD0AF
:10215800002DD3D10325D1E7032DCFD8DFE805F033
:10216800080808080225C9E70325C7E70325C5E7C6
:102178000425C3E79DF8003065F307138DF8003098
:1021880001236A461121204600F004F90246BFE700
:102198002DE9F04F8BB005AD002405940694079403
:1021A8000894099400945A4B1A6B42F004021A637B
:1021B8001A6B02F004020092009A01941A6B42F022
:1021C80080021A631A6B02F080020192019A02944B
:1021D8001A6B42F001021A631A6B02F001020292B2
:1021E800029A03941A6B42F002021A631A6B02F005
:1021F80002020392039A04941A6B42F008021A63CB
:102208001B6B03F008030493049BDFF81481224638
:1022180040F28911404601F072FB0122302140460C
:1022280001F06DFB3B4F22462121384601F067FB48
:1022380001224FF48051384601F061FB01224FF42E
:102248000041354801F05BFB01220421334801F0CD
:1022580056FB40F2891305930126069607940894C5
:102268002946404601F04EFA302305930696079416
:102278004FF00309CDF820902946404601F042FA74
:1022880005960696079408942946384601F03AFAC6
:1022980002230593069407942946384601F032FA3A
:1022A8004FF0040ACDF814A04FF4881BCDF818B0ED
:1022B80007942946384601F025FA4FF481530593CF
:1022C80006960794CDF820902946384601F01AFA68
:1022D80040230593CDF818B007942946404601F0ED
:1022E80011FA4FF40043059306960794CDF8209011
:1022F8002946094801F006FACDF814A00696079475
:1023080008942946054801F0FDF90BB0BDE8F08FA7
:10231800003802400004024000000240000C024065
:102328000008024010B582B000240094124B1A6BCA
:1023380042F400121A631A6B02F400120092009A17
:1023480001941A6B42F480021A631B6B03F4800336
:102358000193019B224621460F2000F03BFF0F20EE
:1023680000F048FF22462146462000F033FF462071
:1023780000F040FF02B010BD0038024038B50546F5
:102388000C46034804F010FCE4002C6038BD00BF84
:1023980088070020B0B500AF15461A465C1C083304
:1023A800DB086846A0EBC3039D4601F07F0368463F
:1023B80000F8013B294608F04DFF0B4D00224FF471
:1023C8008051284601F09BFA4FF0FF33A2B26946CC
:1023D800064804F040F801224FF48051284601F0E5
:1023E8008EFA0020BD46B0BD00040240000900205E
:1023F800F0B583B014461D468DF80710124E002222
:102408004FF48051304601F07AFA9DF8073063F0B6
:102418007F038DF807300D4F4FF0FF3301220DF188
:102428000701384604F017F84FF0FF332A462146D3
:10243800384604F01BFA01224FF48051304601F06F
:102448005EFA002003B0F0BD00040240000900203D
:1024580008B50B4B834200D008BD0821094801F09C
:1024680054FA094A1368013B1360002BF4D1002287
:102478000821044801F043FA014804F080FBEBE727
:1024880088070020000802404405002072B6FEE7D5
:1024980000B585B00023009301930293039313487A
:1024A800134A0260436083600361037680F820303A
:1024B800C362104A8262C3600122C26180F8303070
:1024C800426100F03DFD68B90423009301230193A4
:1024D800002302936946054800F05EFD20B905B067
:1024E8005DF804FBFFF7D2FFFFF7D0FFD40A002006
:1024F800002001400100000F08B50A480A4B03609C
:102508000A4B436000238360C3604FF4804202613A
:1025180043618361C361036201F08AFC00B908BDAD
:10252800FFF7B4FF780A002000540040801A060024
:1025380008B50A480A4B03600A4B436000238360CE
:10254800C3604FF48042026143618361C3610362E7
:1025580001F06EFC00B908BDFFF798FF240A0020BF
:1025680000580040801A060008B50A480A4B036064
:102578000A4B436000238360C3604FF480420261CA
:1025880043618361C361036201F052FC00B908BD75
:10259800FFF77CFFD0090020005C0040A086010006
:1025A80008B50948094B0360002343607F22826015
:1025B800FF22C26003614361836103F0B3FD00B988
:1025C80008BDFFF763FF00BFB009002000280040E6
:1025D80008B50D480D4B03604FF482734360002328
:1025E8008360C360036143614FF400728261C36119
:1025F8000362436283620A23C36203F0CDFE00B91B
:1026080008BDFFF743FF00BF580900200030014014
:1026180008B50E480E4B03604FF4827343600023E5
:102628008360C36002220261012242614FF400729A
:1026380082610822C2610362436283620A23C36221
:1026480003F0AAFE00B908BDFFF720FF000900202B
:102658000038004008B50D480D4B03604FF48273F5
:10266800436000238360C360036143614FF40072D9
:102678008261C3610362436283620A23C36203F017
:102688008BFE00B908BDFFF701FF00BFA8080020B6
:10269800003C004000B58FB000230A930B930C93C5
:1026A8000D9308930993019302930393049305935D
:1026B800069307931D481E4A0260436083605922AF
:1026C800C2600361836104F055FC20BB4FF4805362
:1026D8000A930AA9154804F0B3FDF0B9134804F0A9
:1026E800A1FCE0B900230893099308A90F4805F055
:1026F80073F8B0B960230193002202920392059205
:1027080001A90A4804F021FD68B9084802F0B4F9A3
:102718000FB05DF804FBFFF7B9FEFFF7B7FEFFF750
:10272800B5FEFFF7B3FEFFF7B1FE00BF600800205B
:102738000004004000B58FB000230A930B930C935C
:102748000D930893099301930293039304930593BC
:10275800069307932348244A026040F24F224260BE
:10276800836040F67E12C2600361836104F002FC5C
:1027780058BB4FF480530A930AA91A4804F060FD25
:1027880028BB184804F04EFC18BB00230893099393
:1027980008A9144805F020F8E8B96023019300233C
:1027A800029303930593082201A90E4804F0CDFC77
:1027B80098B90C2201A90B4804F0C7FC78B909485C
:1027C80002F05AF90FB05DF804FBFFF75FFEFFF760
:1027D8005DFEFFF75BFEFFF759FEFFF757FEFFF7B9
:1027E80055FE00BF180800200008004000B58FB053
:1027F80000230A930B930C930D9308930993019369
:102808000293039304930593069307933148324A3E
:10281800026040F24F224260836040F67E12C2603E
:102828000361836104F0A6FB002840D14FF4805374
:102838000A930AA9274804F003FD002839D125483E
:1028480004F0F0FB002836D1224804F0BFFB002832
:1028580033D100230893099308A91E4804F0BCFF4C
:1028680068BB60230193002202920392059201A99A
:10287800184804F06AFC20BB04220DEB020115483D
:1028880004F063FCF8B9082201A9124804F05DFCC1
:10289800D8B9002301930C2201A90E4804F026FCA4
:1028A800A8B90C4802F0E8F80FB05DF804FBFFF790
:1028B800EDFDFFF7EBFDFFF7E9FDFFF7E7FDFFF79C
:1028C800E5FDFFF7E3FDFFF7E1FDFFF7DFFDFFF7AC
:1028D800DDFD00BFD0070020000C004008B50A4805
:1028E8000A4B03604FF41653436000238360C360B0
:1028F80003610C2242618361C36105F0ABF800B942
:1029080008BDFFF7C3FD00BFE0060020001001402E
:1029180008B50448044B036000F084FC00B908BD06
:10292800FFF7B4FDCC0A00200030024000B583B0A8
:102938000023009301930D480D4A02602322426050
:102948008360FA22C260836104F014FB50B900234B
:10295800009301936946054804F03EFF20B903B08F
:102968005DF804FBFFF792FDFFF790FD8807002054
:102978000014004010B594B008AC30220021204665
:1029880008F03BFC002303930493059306930793F5
:102998000193214A116C41F080511164126C02F0CC
:1029A80080520192019A02931C4B1A6842F48042A9
:1029B8001A601B6803F480430293029B092308935F
:1029C8004FF48033099301230D9302230E934FF4A0
:1029D80080020F92042210929022119212930623E1
:1029E8001393204602F062FF90B90F23039302234A
:1029F8000493002305934FF4A05306934FF4805398
:102A08000793042103A803F0BBF918B914B010BD4B
:102A1800FFF73CFDFFF73AFD003802400070004028
:102A280030B5ADF54D7D00F0B1F9FFF7A3FFFFF725
:102A3800AFFBFFF777FCFFF72BFDFFF75DFDFFF717
:102A480077FDFFF791FDFFF7ABFDFFF7C1FDFFF73E
:102A5800DFFDFFF7FFFDFFF71DFEFFF76BFEFFF73A
:102A6800C5FEFFF73BFF06F0D3F8FFF751FFFFF76E
:102A780017F8FFF75BFF4FF496716948FFF77EFC84
:102A8800684C01228021204600F039FF01224FF4D2
:102A98008071204600F033FF6348644B0360FEF703
:102AA8004AFB00284ED06248FFF74CF8002864D053
:102AB800604C61492046FEF757FB4FF47A7000F0EE
:102AC80091F92046FEF748FD5C4C58225C492046A7
:102AD80008F0C0FB5B4BA3650423A4F85C305A4B99
:102AE80023664FF40043A4F86430584DA5660223CA
:102AF800A4F86C30FEF724FF5548FEF755FFFEF7A3
:102B080057FE202300932B46A02252495248FEF735
:102B180088FF28B1AA228DF80C2255228DF80D22A3
:102B280000224E494E4800F0CCF84FF400720021C4
:102B380003A808F062FB00224021104600F094F838
:102B480000243BE0052000F04DF9374C03212046D6
:102B5800FEF7B4F803212046FEF7BCF80221204610
:102B6800FEF7C3F802212046FEF7C7F8C9ABCAAA88
:102B7800CBA92046FEF758FA95E72D4C2046FEF7DC
:102B8800CCFFC4A92046FFF761F80DF20F312046AB
:102B9800FFF726F88CE7274D2846FEF705FB284661
:102BA800FEF79AFCFA2000F01DF90DF20F252946D0
:102BB80084A8FEF745FD9DF80F323BBB642000F06A
:102BC80011F9194DC9ABCAAACBA92846FEF72CFAA8
:102BD800C7AB0093C8ABCA9ACB992846FEF7F8F85A
:102BE800C4A91348FFF732F864230093022383AA89
:102BF80000211948FEF737FF2146194800F076F8FA
:102C08000A34E4B2B42CC6D90024C4E7154D012314
:102C18002B704FF4967000F0E5F800232B70CDE789
:102C2800440500200008024058050020240A00201E
:102C38004806002098050020E006002040010020FA
:102C4800A8080020000C02400000024000040240D6
:102C58008050DE19780A002048050020D00700209F
:102C68003C0500203805002008B5104B58701A7034
:102C7800997017230E4904E01E220A600431013BB3
:102C88005BB2002B08DB094A1268DA4012F0010F28
:102C9800F2D03C220A60F1E7054A0021C2F824116B
:102CA8004A23044804F0D8FB08BD00BF440C0020A8
:102CB8001C0B00206008002008B5002104F012FD5C
:102CC80008BD08B503460846114618605A6004F066
:102CD80045FB08BDA0EB010C0098C01A00FB0CFCDA
:102CE800521A9CFBF2FC0CEB0300704710B582B043
:102CF80004460846B42900D9B4204FF498730093C9
:102D08003D23B4220021FFF7E5FF63682BB9236850
:102D18001B6880B2586302B010BD042B06D0082B84
:102D280009D023681B6880B21864F4E723681B681D
:102D380080B29863EFE723681B6880B2D863EAE73C
:102D480010B504460E4B1A784FF47A73B3FBF2F3BE
:102D58000C4A1068B0FBF3F000F050FA68B90F2C79
:102D680001D901200AE0002221464FF0FF3000F08F
:102D780031FA054B1C60002000E0012010BD00BFA7
:102D880000000020080000200400002008B50B4BBC
:102D98001A6842F400721A601A6842F480621A6073
:102DA8001A6842F480721A60032000F001FA0F20BA
:102DB800FFF7C6FF01F00CFC002008BD003C0240F4
:102DC800034A1168034B1B780B441360704700BF1C
:102DD800480C002000000020014B1868704700BF15
:102DE800480C002038B50446FFF7F6FF0546B4F155
:102DF800FF3F02D0044B1B781C44FFF7EDFF401B3C
:102E0800A042FAD338BD00BF000000204A4B5A68E0
:102E180022F440325A605A6841680A435A6002688C
:102E2800536823F48073536002685368016943EA66
:102E3800012353600268536823F0407353600268AB
:102E4800536881680B4353600268936823F40063F6
:102E5800936002689368C1680B439360826A374B3A
:102E68009A4257D00268936823F0706393600268AF
:102E78009368816A0B4393600268936823F0405318
:102E8800936002689368C16A0B4393600268936811
:102E980023F00203936002689368017E43EA4103CA
:102EA800936090F82030002B3FD00268536843F4B9
:102EB800006353600268536823F4604353600168F9
:102EC8004B68426A013A43EA42334B600268D36A6C
:102ED80023F47003D3620168CB6AC269013A43EAFA
:102EE8000253CB620268936823F40073936002680C
:102EF800936890F8301043EA41239360026893681E
:102F080023F48063936002689368416943EA8123EC
:102F1800936070470268936823F070639360026857
:102F2800936823F040539360B0E70268536823F432
:102F380000635360CAE700BF002301400100000F8F
:102F480038B310B50446036C43B1236C13F0100F6B
:102F58000BD00120002384F83C3010BD01F054FB55
:102F68000023636484F83C30EFE7236C23F4885330
:102F780023F0020343F0020323642046FFF746FFD1
:102F880000206064236C23F0030343F001032364EF
:102F9800E0E701207047000030B482B000220192BF
:102FA80090F83C20012A00F0B6800346012280F800
:102FB8003C200A68092A40D90468E06892B202EB0A
:102FC80042021E3A4FF0070C0CFA02F220EA020203
:102FD800E2601C68E0680A8802EB42021E3A8D68CB
:102FE80005FA02F20243E2604A68062A3CD81C68E5
:102FF800606B02EB8202053A4FF01F0C0CFA02F2EA
:1030080020EA020262631C68606B4A6802EB820273
:10301800053AB1F800C00CFA02F20243626318687C
:103028003E4A904250D018683C4A904255D0002001
:1030380083F83C0002B030BC70470468206992B243
:1030480002EB42024FF0070C0CFA02F220EA0202ED
:1030580022611C6820690A8802EB42028D6805FA21
:1030680002F202432261BFE70C2A16D81D68286BBA
:1030780002EB8202233A1F2404FA02F220EA020237
:103088002A631D68286B4A6802EB8202233A0C887F
:1030980004FA02F202432A63C1E71D68E86A02EBF8
:1030A8008202413A1F2404FA02F220EA0202EA628A
:1030B8001D68E86A4A6802EB8202413A0C8804FA01
:1030C80002F20243EA62AAE70A68122AABD114485C
:1030D800426842F480024260A5E70A68103A012A71
:1030E800A5D80F48426842F4000242600A68102AD4
:1030F8009DD10C4A12680C49A1FB0212920C02EBFA
:1031080082025200019202E0019A013A0192019A68
:10311800002AF9D18BE702208CE700BF002001408C
:10312800002301400800002083DE1B43002807DB42
:1031380000F01F02400901239340024A42F8203060
:10314800704700BF00E100E0002808DB0901C9B2B0
:1031580000F1604000F5614080F80013704700F00E
:103168000F000901C9B2014B1954704714ED00E072
:1031780000B500F00700C0F1070CBCF1040F28BF30
:103188004FF0040C031D062B0FD9C31E4FF0FF3E52
:103198000EFA0CF021EA000199400EFA03FE22EA29
:1031A8000E0241EA02005DF804FB0023EEE700008E
:1031B800074AD36823F4E0631B041B0C000200F4E5
:1031C800E060034343F0BF6343F40033D3607047C8
:1031D80000ED00E010B50446054BD868C0F30220A6
:1031E800FFF7C6FF01462046FFF7AEFF10BD00BF40
:1031F80000ED00E008B5FFF799FF08BD0138B0F110
:10320800807F0BD24FF0E0235861054AF02182F805
:1032180023100020986107221A6170470120704727
:1032280000ED00E058B110B5044643791BB1012305
:103238006371002010BD037101F01AFAF7E701204D
:10324800704730B405682C6824F480242C60046826
:1032580063608368402B05D0036899600368DA606F
:1032680030BC704703689A600368D960F8E70000CB
:1032780010B40368D9B210390A4AA2FB01421209F4
:10328800094CA25CC2655F2907D96FF309030433AF
:103298008365806D5DF8044B70476FF309038365A0
:1032A800F7E700BFABAAAAAAF4B50008836A826947
:1032B80092B9012B0AD0022B02D00BB10020704723
:1032C800C36A13F0807F28D100207047C36AB3F126
:1032D800C07F24D000207047B2F5005F09D0022BD0
:1032E80025D9032B25D1C36A13F0807F23D1002071
:1032F8007047032B03D8DFE803F01404140A0020F6
:103308007047C36A13F0807F0DD100207047C36AED
:10331800B3F1C07F09D00020704701207047012019
:103328007047012070470120704701207047012035
:1033380070470020704701207047000070B50446B0
:10334800FFF74AFD002C5BD00546022384F8353090
:10335800002384F834302268136823F001031360D3
:1033680023681A6812F0010F0AD0FFF735FD431BD6
:10337800052BF5D920236365032084F8350070BD3B
:103388001A68204911406268A0680243E068024355
:103398002069024360690243A0690243E06902436D
:1033A800206A02430A43616A04291ED01A6026680B
:1033B800756925F00705636A1D43042B07D1A36AC5
:1033C8001D43E36A1BB12046FFF770FF90B9756192
:1033D8002046FFF74DFFE26D3F23934083600020B6
:1033E8006065012384F83530C9E7E16A206B014341
:1033F8000A43DBE740236365012084F83500BEE714
:103408000120BCE73F8010F038B50446856D90F880
:10341800340001282AD0012084F8340094F83500BB
:10342800012804D0002384F83430022038BD02205B
:1034380084F83500002060652046FFF702FFE26D42
:103448003F239340AB602268136843F01603136070
:10345800236C23B12268136843F0080313602268C1
:10346800136843F0010313600020DFE70220DDE763
:1034780070B50446866DFFF7AFFC94F83530022B23
:1034880006D080236365002384F83430012070BDA2
:1034980005462268136823F01603136022685369EF
:1034A80023F080035361236CE3B12268136823F08F
:1034B800080313602268136823F00103136023686C
:1034C8001B6813F0010F11D0FFF786FC431B052B77
:1034D800F5D920236365032084F83500002384F898
:1034E8003430D4E7A36C002BDFD1E3E7E26D3F2350
:1034F8009340B360012384F83530002084F8340009
:10350800C5E790F83530022B03D0802343650120AE
:103518007047052380F835300268136823F00103EB
:103528001360002070470000F0B583B00446002304
:103538000193724B1D68724BA3FB0535AD0A876D6D
:103548003E68C26D08239340334210D003681A685E
:1035580012F0040F0BD01A6822F004021A60C26D30
:1035680008239340BB60436D43F001034365E26D5C
:1035780001239340334209D02268526912F0800F28
:1035880004D0BB60636D43F002036365E26D0423FE
:103598009340334209D02268126812F0020F04D017
:1035A800BB60636D43F004036365E26D10239340D1
:1035B800334224D02268126812F0080F1FD0BB6073
:1035C80023681A6812F4802F0DD01B6813F4002F9B
:1035D80004D1236C9BB12046984710E0A36C73B1CB
:1035E800204698470BE01A6812F4807F03D11A68C6
:1035F80022F008021A60236C0BB120469847E26D4E
:1036080020239340334254D02268126812F0100FDE
:103618004FD0BB6094F83530052B0ED023681A685C
:1036280012F4802F33D01B6813F4002F2AD1636C57
:10363800002B3ED0204698473BE02268136823F0D1
:10364800160313602268536923F080035361236CC7
:10365800A3B12268136823F008031360E26D3F23C7
:103668009340BB60012384F83530002384F834305C
:10367800236D002B3FD0204698473CE0A36C002BDD
:10368800E7D1EBE7E36BA3B12046984711E01A684E
:1036980012F4807F09D11A6822F010021A600123FF
:1036A80084F83530002384F83430E36B0BB12046BE
:1036B8009847636DFBB1636D13F0010F17D00523B5
:1036C80084F835302268136823F001031360019BE6
:1036D80001330193AB4204D823681B6813F0010F30
:1036E800F5D1012384F83530002384F83430E36CB5
:1036F8000BB12046984703B0F0BD00BF080000207A
:10370800B5814E1B00230F2B00F2E98070B582B003
:1037180065E085684FEA430E032404FA0EF425EAAF
:103728000405CC6804FA0EF42C438460446824EA47
:1037380002044A68C2F300129A40224342605CE0E5
:10374800DC08083450F8242003F00705AD004FF0DA
:103758000F0E0EFA05FE22EA0E0E0A69AA4042EA88
:103768000E0240F824205CE0072200E0002202FA62
:103778000EF22A4302345A4D45F82420594A9468D7
:103788006FEA0C0224EA0C054E6816F4801F01D07B
:103798004CEA0405534CA560E46802EA04054E6847
:1037A80016F4001F01D04CEA04054E4CE56064682D
:1037B80002EA04054E6816F4003F01D04CEA0405FD
:1037C800484C6560246822404D6815F4803F01D05C
:1037D8004CEA0402434C226001330F2B7DD80122AE
:1037E8009A400C6804EA020C32EA0404F4D14C68EA
:1037F80004F00304013C012C8BD94A6802F003024F
:10380800032A09D0C4685D000322AA4024EA0204FE
:103818008A68AA402243C2604A6802F00302022A68
:103828008ED004684FEA430E032202FA0EF224EA0D
:1038380002044A6802F0030202FA0EF2224302600E
:103848004A6812F4403FC7D000220192264A546CBD
:1038580044F480445464526C02F480420192019A08
:103868009C08A51C1E4A52F8255003F0030E4FEA87
:103878008E0E0F2202FA0EF225EA02051B4A90422A
:103888003FF474AF02F5806290421AD002F580626C
:10389800904218D002F58062904216D002F58062FC
:1038A800904214D002F58062904212D002F58062F4
:1038B800904210D002F5806290423FF455AF082242
:1038C80055E7012253E7022251E703224FE704227A
:1038D8004DE705224BE7062249E702B070BD704765
:1038E80000380140003C014000380240000002401E
:1038F8000369194201D001207047002070470AB1BE
:1039080081617047090481617047436901EA0302D4
:1039180021EA030141EA02418161704703685A695B
:1039280012F4806F01D1002070476FF480625A61F1
:1039380000230363202280F83D2080F83E30026C8B
:1039480042F00402026480F83C30012070472DE9FF
:10395800F04106460C46174698463BE0FFF73CFA0E
:10396800069BC01A404502D8B8F1000F32D1012D8C
:1039780018D033689B6924EA03039BB2B3FA83F334
:103988005B099F4226D100233363202286F83D201D
:1039980086F83E30326C42F02002326486F83C30C1
:1039A800012027E033685B6924EA03039BB2B3FA7A
:1039B80083F35B09E5E733685B6924EA030C1FFAC4
:1039C8008CFCBCFA8CFC4FEA5C1C674511D1B8F141
:1039D800FF3FC3D1C4F30745012DECD033689B6981
:1039E80024EA030C1FFA8CFCBCFA8CFC4FEA5C1C22
:1039F800EBE70020BDE8F0812DE9F84305460E46C7
:103A08009046994653E01A6842F400721A602B688F
:103A18006FF480625A6100232B63202285F83D20D1
:103A280085F83E302A6C42F004022A6485F83C305E
:103A380001204AE0FFF7D0F9A0EB0900404502D881
:103A4800B8F1000F33D1012F17D02B689B6926EAF4
:103A580003039BB2003B18BF012343B300232B632E
:103A6800202285F83D2085F83E302A6C42F020025D
:103A78002A6485F83C30012027E02B685B6926EA38
:103A880003039BB2003B18BF0123E6E72B689C6940
:103A980026EA0404A4B2003C18BF0124A4B12B6890
:103AA8005A6912F4806FAED1B8F1FF3FC2D1C6F3A4
:103AB8000747012FEAD12B685C6926EA0404A4B2FF
:103AC800003C18BF0124E9E70020BDE8F88370B581
:103AD80004460D46164623685B6913F0800F21D112
:103AE8002046FFF71BFFF8B9B5F1FF3FF3D0FFF70A
:103AF80073F9801BA84201D8002DECD123685B69BB
:103B080013F0800FE7D100232363202284F83D209F
:103B180084F83E30226C42F02002226484F83C3063
:103B2800012000E0002070BD0120FCE72DE9F043F2
:103B380085B004460D4691461F46DDF830800D9E3F
:103B48000368196841F480711960009643460022A1
:103B58004FF00111FFF7FBFE60B9236805F0FE0581
:103B68001D613346424626492046FFF745FF68B1A6
:103B7800012008E023681B6813F4807F02D04FF40B
:103B880000732364032005B0BDE8F083002303938A
:103B980023685A6903929B690393039B3246414603
:103BA8002046FFF794FF30B9012F0FD123685FFA41
:103BB80089F61E61E7E7236C042B01D00120E2E7B8
:103BC8002268136843F400731360F7E723684FEA29
:103BD80019221A61324641462046FFF778FF20B97C
:103BE80023685FFA89F61E61CDE7236C042B01D0A8
:103BF8000120C8E72268136843F400731360F7E7ED
:103C0800020001002DE9F04784B004460D4616462F
:103C180099460C9FDDF834800268136843F480638A
:103C280013600368196841F480711960CDF8008049
:103C38003B4600224FF00111FFF789FE70B95FFA89
:103C480085FA236805F0FE051D6143463A46414959
:103C58002046FFF7D1FE68B1012008E023681B6801
:103C680013F4807F02D04FF400732364032004B060
:103C7800BDE8F0870023039323685A6903929B6980
:103C88000393039B424639462046FFF720FF80B93D
:103C9800B9F1010F18D12368F6B21E6142463946C0
:103CA8002046FFF714FF68B3236C042B24D00120AF
:103CB800DDE7236C042B01D00120D8E722681368C4
:103CC80043F400731360F7E72368320A1A61424627
:103CD80039462046FFF7FBFE18B92368F6B21E6185
:103CE800DCE7236C042B01D00120C0E722681368AD
:103CF80043F400731360F7E72268136843F4007312
:103D08001360D4E72268136843F480731360CDF816
:103D180000803B4600224FF001112046FFF717FEB6
:103D280068B922684AF00103136143463A460949D3
:103D38002046FFF761FE002899D0012097E7236805
:103D48001B6813F4807F02D04FF4007323640320B0
:103D58008DE700BF0200010070B504460D46164607
:103D680023685B6913F0040F21D12046FFF7D6FDC5
:103D7800F8B9B5F1FF3FF3D0FFF72EF8801BA84242
:103D880001D8002DECD123685B6913F0040FE7D14B
:103D980000232363202284F83D2084F83E30226CDF
:103DA80042F02002226484F83C30012000E0002028
:103DB80070BD0120FCE770B504460D46164614E0B8
:103DC8006FF010025A6100232363202284F83D20FB
:103DD80084F83E30226C226484F83C30012025E0CF
:103DE80023685B6913F0400F10D02368586910F0FE
:103DF800400F1AD1586910F0100FE1D1FEF7ECFF0F
:103E0800801BA842ECD8002DEFD1E9E700232363FB
:103E1800202284F83D2084F83E30226C42F02002B3
:103E2800226484F83C30012000E0002070BD0000CE
:103E3800002800F0CC8070B5044690F83D30002B87
:103E480077D0242384F83D302268136823F00103D7
:103E580013602268136843F40043136022681368F0
:103E680023F40043136002F041F862685A4B9A4207
:103E780064D85A4B98428CBF00230123002B40F092
:103E8800A8805749A1FB00318B0C25686A6822F08D
:103E98003F0242EA91426A6021680A6A22F03F02C0
:103EA80066684D4DAE424FD8013313430B6221680B
:103EB800CA6922F44F4222F0FF026568464B9D42D0
:103EC8004CD8431E6D00B3FBF5F3013340F6FC708C
:103ED800034278D0C3F30B031A43CA6121680B6805
:103EE80023F0C003E269206A024313430B60216890
:103EF8008B6823F4034323F0FF032269E06802433D
:103F080013438B602168CB6823F0FF036269A069C3
:103F180002431343CB602268136843F00103136024
:103F280000202064202384F83D30206384F83E007C
:103F380070BD80F83C3000F0B3FB82E7294B984213
:103F48008CBF0023012399E74FF4967505FB03F313
:103F5800254DA5FB03539B090133A6E7A668BEB907
:103F6800431E05EB450CB3FBFCF30133C3F30B0312
:103F7800B3FA83F35B0943BBC6B9431E05EB45059A
:103F8800B3FBF5F30133C3F30B0343F40043A3E797
:103F9800431E05EB850C0CEB8C0CB3FBFCF30133D7
:103FA800C3F30B03B3FA83F35B09E4E7431E05EBA2
:103FB800850505EB8505B3FBF5F30133C3F30B0367
:103FC80043F4404388E7042386E7012384E701207C
:103FD80070470120ACE700BFA08601007F841E0067
:103FE80083DE1B43FF083D00D34D62102DE9F043EB
:103FF80083B004460F46904699460C9EFEF7ECFEA9
:1040080094F83D20202A03D0022003B0BDE8F083B5
:1040180005460090192301224A492046FFF797FCDC
:10402800002840F0898094F83C30012B00F086800D
:10403800012384F83C3023681A6812F0010F03D179
:104048001A6842F001021A602268136823F40063B8
:104058001360212384F83D30402384F83E30002348
:1040680023640A9B6362BDF82C306385638D2385C6
:10407800354BE362019500964B4642463946204649
:10408800FFF754FD00285BD1238D002B35D02A463D
:1040980031462046FFF71BFD20BB626A2368127871
:1040A8001A61626A531C6362218D013989B22185C4
:1040B800638D9BB2013B9BB263852368586910F0FE
:1040C800040FE1D00029DFD052781A61636A013306
:1040D8006362238D013B2385638D9BB2013B9BB2B9
:1040E8006385D1E7236C042B01D001208DE722687A
:1040F800136843F400731360F7E72A4631462046F5
:10410800FFF72AFE50B1236C042B01D001207CE775
:104118002268136843F400731360F7E72268136892
:1041280043F400731360202384F83D30002384F89F
:104138003E3084F83C3068E7022066E7022064E7F6
:10414800012062E7020010000000FFFF2DE9F043A4
:1041580087B004460F4690469946109EFEF73CFEEF
:1041680094F83D20202A04D00227384607B0BDE83D
:10417800F083054600901923012289492046FFF75C
:10418800E6FB002840F04E8194F83C30012B00F00B
:104198004B81012384F83C3023681A6812F0010F20
:1041A80003D11A6842F001021A602268136823F4E6
:1041B80000631360222384F83D30402384F83E30A6
:1041C800002323640E9B6362BDF83C306385638DD6
:1041D8002385744BE362019500964B464246394667
:1041E8002046FFF70FFD0746002840F01F81238D6A
:1041F8005BB9029323685A6902929A690292029AF9
:104208001A6842F400721A6075E0012B0AD0022B7A
:104218001AD00023059323685A6905929B69059370
:10422800059B68E02268136823F480631360002309
:10423800039323685A6903929A690392039A1A6846
:1042480042F400721A6056E02268136823F480630F
:1042580013602268136843F4006313600023049317
:1042680023685A6904929B690493049B43E02A4695
:1042780031462046FFF79FFD002840F0D98023688B
:104288001A69636A1A70636A01336362238D013B9A
:104298002385638D9BB2013B9BB263852BE0009520
:1042A8003346002240492046FFF751FB002840F0E2
:1042B800C1802268136843F40073136023681A6985
:1042C800636A1A70626A531C6362238D013B2385FB
:1042D800638D9BB2013B9BB2638523681B69537056
:1042E800636A01336362238D013B2385638D9BB22F
:1042F800013B9BB26385238D002B00F08A80032B42
:1043080054D8012BB3D0022BC9D0009533460022D4
:1043180025492046FFF71BFB002840F08D802268C6
:10432800136823F48063136023681A69636A1A7038
:10433800636A01336362238D013B2385638D9BB2DE
:10434800013B9BB2638500953346002216492046FF
:10435800FFF7FDFA002871D12268136843F400734F
:10436800136023681A69636A1A70626A531C63626D
:10437800238D013B2385638D9BB2013B9BB26385F3
:1043880023681B695370636A01336362238D013BA1
:104398002385638D9BB2013B9BB26385ABE700BF6E
:1043A800020010000000FFFF040001002A46314609
:1043B8002046FFF700FD002842D123681A69636A86
:1043C8001A70636A01336362228D013A92B22285C0
:1043D800638D9BB2013B9BB263852368596911F0D9
:1043E800040F88D0032A0FD023681A69636A1A70E9
:1043F800636A01336362238D013B2385638D9BB21E
:10440800013B9BB2638576E71A6822F480621A60E2
:10441800EAE7202384F83D30002384F83E3084F80E
:104428003C30A2E60227A0E602279EE601279CE68A
:1044380001279AE6012798E6012796E6012794E6E0
:10444800012792E62DE9F04385B004468846914657
:104458001D46FEF7C1FC94F83D30202B03D0022006
:1044680005B0BDE8F083064600901923012256499D
:104478002046FFF76CFA002840F09D8094F83C3005
:10448800012B00F09A80012384F83C3023681A68D5
:1044980012F0010F03D11A6842F001021A60226873
:1044A800136823F400631360242384F83D30002745
:1044B8002764464BE3623DE023681B6813F4807F62
:1044C80002D04FF4007323640320C9E7A02384F8C3
:1044D8003D3022685369C3F340035269C2F3802216
:1044E80094F83D10A02909D043B93AB9FEF774FCF5
:1044F800801BA842EAD8002DEBD1E7E7202384F8F7
:104508003D3023685A6912F0020F31D11A6842F41B
:1045180000721A6023686FF480625A61009619234A
:10452800012229492046FFF712FA002849D101370C
:104538004F4538D22268136843F48073136000969D
:104548002B4600224FF001112046FFF700FA002801
:10455800B2D1236808F0FE021A61FEF73DFC064658
:1045680022685369C3F340035269C2F38022B7E754
:104578001A6842F400721A600023039323685A6988
:1045880003929B690393039B0096192301220E490A
:104598002046FFF7DCF990B9202384F83D3000234A
:1045A80084F83C305CE7202384F83D30002384F80D
:1045B8003C30012054E7022052E7022050E7012056
:1045C8004EE701204CE700BF020010000000FFFF8B
:1045D80082B0002100910B4B5A6C42F480425A641D
:1045E8005A6C02F480420092009A01911A6C42F0CF
:1045F80080521A641B6C03F080530193019B02B034
:10460800704700BF0038024000B589B0002303930B
:104618000493059306930793026803F1804303F517
:1046280090339A4202D009B05DF804FB0021019151
:1046380003F58C335A6C42F480725A645A6C02F453
:1046480080720192019A02911A6B42F001021A6378
:104658001B6B03F001030293029B102303930323B4
:10466800049303A90148FFF74DF8DCE70000024076
:104678000268094B9A4200D0704782B00023019328
:10468800064B1A6B42F480521A631B6B03F4805377
:104698000193019B02B0704700300240003802408D
:1046A8002DE9F0478CB000230793089309930A93E8
:1046B8000B9303684D4A934208D04D4A93422AD03F
:1046C8004C4A93424DD00CB0BDE8F08700250095C8
:1046D800494C236B43F002032363236B03F002036B
:1046E8000093009BC0230793122308930123099387
:1046F80003230A9304230B9307A94048FFF702F802
:104708000195236C43F400132364236C03F4001312
:104718000193019BD7E700250295374C236B43F0A3
:1047280002032363236B03F002030293029B4FF4FB
:1047380040630793122308930123099303230A93E1
:1047480004230B9307A92D48FEF7DCFF0395236C80
:1047580043F480032364236C03F480030393039BD3
:10476800B1E700250495244C236B43F0040323632D
:10477800236B03F004030493049B0595236B43F018
:1047880001032363236B03F001030593059B4FF497
:10479800007307934FF0120ACDF820A04FF00109DB
:1047A800CDF824904FF00308CDF8288004270B9704
:1047B80007AE31461248FEF7A5FF4FF48073079302
:1047C800CDF820A0CDF82490CDF828800B9731465D
:1047D8000C48FEF797FF0695236C43F40003236407
:1047E800236C03F400030693069B6CE70054004017
:1047F80000580040005C00400038024000040240BD
:10480800000802400000024000B585B00023009374
:1048180001930293039302680B4B9A4202D005B0AE
:104828005DF804FB022300934FF40073039368467A
:1048380001F07CFB20B9054B0122C3F83C2EEEE7C2
:10484800FDF724FEF7E700BF0028004000004742BC
:1048580000B58DB000230793089309930A930B932F
:1048680003683B4A934208D03A4A934228D03A4ACE
:10487800934249D00DB05DF804FB00210191374BFC
:104888005A6C42F480525A645A6C02F48052019273
:10489800019A02911A6B42F001021A631B6B03F032
:1048A80001030293029BE023079302230893032347
:1048B8000A9305230B9307A92948FEF723FFD9E795
:1048C80000210391254B1A6C42F480421A641A6C39
:1048D80002F480420392039A04911A6B42F0020296
:1048E8001A631B6B03F002030493049B4FF46043A9
:1048F80007930223089303230A9305230B9307A91D
:104908001848FEF7FFFEB5E700210591134B1A6C16
:1049180042F400421A641A6C02F400420592059AA5
:1049280006911A6B42F004021A631B6B03F004032E
:104938000693069B4FF4E05307930223089303233F
:104948000A9306230B9307A90748FEF7DBFE91E7B6
:104958000030014000380040003C00400038024070
:1049680000000240000402400008024010B584B074
:1049780003683A4A93420AD0394A934240D0394AA6
:1049880093424AD0384A934254D004B010BD0446EA
:104998000023009302F50D32116C41F002011164FD
:1049A800126C02F002020092009A3048304A02600B
:1049B8004FF02062426040228260C3604FF4806200
:1049C80002614FF4805242614FF480428261C361B8
:1049D8004FF4403202624362FEF7B0FC68B9234BE1
:1049E80063629C63A3639C63002211461D20FEF74B
:1049F800F1FB1D20FEF7FEFBC7E7FDF747FDEEE7DD
:104A0800002301931B4B1A6C42F004021A641B6CBE
:104A180003F004030193019BB7E700230293154BAE
:104A28001A6C42F008021A641B6C03F00803029324
:104A3800029BAAE7002103910E4B1A6C42F0200258
:104A48001A641B6C03F020030393039B0A46372068
:104A5800FEF7C0FB3720FEF7CDFB96E700040040C9
:104A680000080040000C0040001400402807002007
:104A7800706002400038024000B589B000230393FB
:104A880004930593069307930368274A934208D033
:104A9800264A93421BD0264A93422FD009B05DF88C
:104AA80004FB00230093234B1A6B42F002021A63A3
:104AB8001B6B03F002030093009B10230393022354
:104AC8000493079303A91C48FEF71CFEE6E700239E
:104AD8000193184B1A6B42F002021A631B6B03F026
:104AE80002030193019B4FF4407303930223049341
:104AF800079303A91048FEF705FECFE700230293AA
:104B08000C4B1A6B42F001021A631B6B03F0010392
:104B18000293029B0F23039302230493079303A991
:104B28000648FEF7EFFDB9E7000400400008004022
:104B3800000C00400038024000040240000002401F
:104B480030B589B000230393049305930693079324
:104B5800026803F1804303F588339A4201D009B013
:104B680030BD04460025019503F594335A6C42F094
:104B780010025A645A6C02F010020192019A0295CE
:104B88001A6B42F001021A631B6B03F001030293D4
:104B9800029B4FF4C06303930223049303230693F9
:104BA8000723079303A91348FEF7ACFD1248134BDC
:104BB80003604FF00063436040238360C5604FF497
:104BC8008063036145618561C56105624562FEF7E1
:104BD800B5FB58B9084BA3639C63002211462520F6
:104BE800FEF7F8FA2520FEF705FBB8E7FDF74EFCBF
:104BF800F0E700BF0000024080060020B8640240D1
:104C08002DE9F04383B0D0F8008001EBC10300EB3D
:104C180083039A6A5B6A9A4254D807460C469B1AE1
:104C280001EBC10200EB8202D2699A4200D31A4614
:104C380002F103094FEA990915E006F103094FEA61
:104C48009909BB7904EBC40507EB8505296A00932C
:104C5800B3B2E2B2404603F04CFD2B6A33442B62F8
:104C6800AB6A3344AB6208EB441303F510639B69EA
:104C78009BB24B4512D304EBC40307EB83039A6A38
:104C88005B6A9A420AD24BB19B1A04EBC40207EB47
:104C98008202D6699E42D0D31E46CEE704EBC403F7
:104CA80007EB83077A6ABB6A9A420FD804F00F04AD
:104CB8000122A240D8F8343823EA0203C8F834386D
:104CC800002000E0012003B0BDE8F0830020FAE7EF
:104CD80030B583B000287AD00446056890F895343A
:104CE800C3B1032384F89534B5F1A04F17D02068D9
:104CF80003F0B0FA237C8DF80030231D0ECB20681A
:104D080003F0E6F970B1022384F8953401252846AA
:104D180003B030BD80F8943403F0A4FFE1E700232A
:104D2800A371E4E70021206803F0F9FE0246B8B950
:104D380003462079984218D903EBC30104EB81019B
:104D4800012048750B75CB8500200876C86108627C
:104D580003EBC30104EB810148620133DBB2E8E7EE
:104D6800022384F895340125D1E7904217D902EB44
:104D7800C20304EB8303002183F8551283F85422FD
:104D880083F85812C3F85C12C3F8601202EBC2032E
:104D980004EB8303C3F864120132D2B2E5E7237C43
:104DA8008DF80030231D0ECB206803F0A9FA0546C4
:104DB80020B1022384F895340125A8E70023637401
:104DC800012384F89534206803F068FE9FE70125E5
:104DD8009DE7036890F89424012A1AD010B5044678
:104DE800012280F89424DA6812F0400F02D0427B46
:104DF800012A09D0206803F027FA206803F040FE52
:104E0800002084F8940410BD9A6B42F480329A63AF
:104E1800F0E702207047000070B504460D460068B0
:104E2800066C00EB411303F530639A68A1790129F8
:104E380011D038498E4256D03DB905EBC50304EB75
:104E48008303D3F86432002B5ED0E9B2204603F026
:104E580055FF002070BD12F0080F09D02E498E4270
:104E6800F7D912F4004FF4D04FF400429A60F0E7FB
:104E780012F0200F02D020229A60EAE712F0280FE1
:104E8800E7D125498E4206D912F4004F03D04FF4DA
:104E980000429A60DDE705EBC50204EB8202D2F816
:104EA80074121B69C3F31203CB1AC2F868327DB9B6
:104EB80005EBC50204EB8202D2F864226AB105EB65
:104EC800C50204EB8202D2F860121944C2F86012DB
:104ED800E9B2204603F012FFBBE704F29C4201212D
:104EE80003F05CFEF4E712F4004F03D04FF40042E5
:104EF8009A60AEE712F0200F01D020229A60E9B242
:104F0800204603F0FBFEA4E704F29C42002103F0D4
:104F180045FE9AE70A31544F0A30544F38B50446D3
:104F280003681D6C03EB4113D3F8081B0E4A954226
:104F380007D903F5306311F4004F02D04FF4004253
:104F48009A60204603F0D2FE074B9D4202D9A3790E
:104F5800012B01D0002038BD04F29C4201212068B9
:104F680003F01CFEF6E700BF0A30544F90F8943463
:104F7800012B0CD010B50446012380F894344174F9
:104F8800006803F06DFD002084F8940410BD022031
:104F9800704738B505468C4611F0800F2BD101F0CB
:104FA8000F0E0EEBCE04A40004F514740444211D66
:104FB8000EEBCE0E00EB8E0E00208EF855020CF094
:104FC8000F0C81F800C0C2F30A028A600B714A789C
:104FD8000AB1A1F81AC0022B1CD095F89434012B01
:104FE8001BD0012385F89434286803F066FA002062
:104FF80085F8940438BD01F00F0000EBC00189006A
:1050080010312944043100EBC00005EB8000012475
:105018004475D4E700234B71DFE70220EAE710B5B7
:1050280004460A4611F0800F20D101F00F0000EB72
:10503800C0039B0003F514732344191D00EBC00043
:1050480004EB8000002380F8553202F00F020A704A
:1050580094F89434012B18D0012384F894342068F0
:1050680003F078FA002084F8940410BD01F00F00D2
:1050780000EBC0039B0010332344191D00EBC00054
:1050880004EB800001234375DFE70220EDE710B54C
:10509800144601F00F0C0CEBCC01890001F51471DA
:1050A800014404310CEBCC0E00EB8E0ECEF86022DE
:1050B800CEF864320023CEF868328EF855328EF876
:1050C80054C28279012A04D0006803F029FB002029
:1050D80010BDCEF87042F7E701F00F0101EBC101F6
:1050E80000EB8100D0F86802704710B5144601F053
:1050F8000F0C0CEBCC0189001031014404310CEB8E
:10510800CC0E00EB8E0ECEF82020CEF824300023F3
:10511800CEF8283001238EF815308EF814C0827925
:105128009A4204D0006803F0FBFA002010BDCEF8C4
:105138003040F7E738B501F00F050279AA4238D3B5
:1051480004460B4611F0800F1FD101EBC101890005
:1051580001F514710144043103EBC30300EB83032D
:10516800002283F8552201238B700D7094F8943433
:10517800012B20D0012384F89434206803F015FC17
:1051880085B1002084F8940438BD05EBC501890079
:1051980010310144043105EBC50300EB8303012200
:1051A8005A75E0E704F29C42A179206803F0F6FC06
:1051B800E7E70120E8E70220E6E701F00F030279BC
:1051C8009A4230D310B5044611F0800F1ED103EB7C
:1051D800C301890001F514710144043103EBC302D2
:1051E80000EB8202002082F8550200228A700B70C0
:1051F80094F89434012B18D0012384F8943420684F
:1052080003F000FC002084F8940410BD03EBC301F4
:10521800890010310144043103EBC30200EB820220
:1052280001205075E1E7012070470220EDE708B53D
:1052380011F0800F0CD101F00F0101EBC1018900C1
:1052480001F5147101440431006803F0F3F908BD55
:1052580001F00F0101EBC101890010310144043153
:10526800F2E72DE9F04F83B004460568284603F0BD
:1052780052FC10B103B0BDE8F08F0646206803F079
:105288001BFC0028F6D005F50067BB68C3F30D23A7
:10529800C4F8D434206803F00FFC10F0020F04D0D7
:1052A8002268536903F002035361206803F004FC89
:1052B80010F0100F15D02268936923F01003936142
:1052C800D5F8208008F00F0908F4F013B3F5802F03
:1052D8004CD0B3F5402F6FD02268936943F0100388
:1052E8009361206803F0E8FB10F4002F76D1206862
:1052F80003F0E2FB10F4802F40F0E080206803F018
:10530800DBFB0028C0F26181206803F0D5FB10F4B4
:10531800006F09D0BB6813F0010F40F06E8122685E
:10532800536903F400635361206803F0C5FB10F46C
:10533800805F40F06681206803F0BEFB10F4005FD8
:1053480040F0B381206803F0B7FB10F0080F40F07D
:10535800C481206803F0B0FB10F0800F00F0D78103
:10536800AB6923F08003AB610126C0E147F6F07317
:1053780018EA030FB0D04FEA181A4FEAC90301938D
:1053880009EBC90B04EB8B0BC8F30A12DBF86012AC
:10539800284603F0E7FADBF86032CAF30A0A5344F6
:1053A800CBF86032DBF86832019A4A4404EB820297
:1053B8005344C2F868328FE7082204F29C41284619
:1053C80003F0D0FA09EBC90304EB8303D3F868228E
:1053D800C8F30A184244C3F868227DE7206803F03E
:1053E8006FFB8046B14635E005EB49130122C3F84F
:1053F800082B49462046FFF70FFD3CE005EB491313
:105408000822C3F8082B49462046FFF787FD35E0F8
:1054180009EBC90304EB830393F85732012B41D0FE
:1054280005EB49130222C3F8082B1AF0200F04D009
:1054380005EB49132022C3F8082B1AF4005F05D0A6
:1054480005EB49134FF40052C3F8082B09F1010981
:105458004FEA5808B8F1000F3FF449AF18F0010FB0
:10546800F4D05FFA89FB5946206803F039FB82467D
:1054780010F0010FB8D11AF0080FBFD11AF0100FB1
:1054880004D005EB49131022C3F8082B1AF0020FB9
:10549800CBD06B6913F0800FBAD07B6843F480637C
:1054A8007B60B5E709EBC90304EB8303002283F8AB
:1054B80057225946204603F071FCB1E7206803F0F3
:1054C80007FB8046B14625E05946204603F022FCFA
:1054D8001AF0080F04D005EB49130822C3F808296D
:1054E8001AF0100F04D005EB49131022C3F808294D
:1054F8001AF0400F04D005EB49134022C3F80829DD
:105508001AF0020F40D11AF0800F59D109F10109A0
:105518004FEA5808B8F1000F3FF4F0AE18F0010F49
:10552800F4D05FFA89FB5946206803F0E2FA824614
:1055380010F0010FCCD009F00F02012101FA02F29C
:105548007B6B23EA02037B6305EB4913C3F8081955
:10555800A3798B42B8D109EBC90304EB83031A6A18
:10556800D9690A441A62B9F1000FADD109EBC90330
:1055780004EB83035B6A002BA6D104F29C42012151
:10558800206803F00BFB9FE74946284602F068FEB7
:1055980009EBC90304EB8303DB7D012B05D005EB85
:1055A80049130222C3F80829ADE709EBC90304EB44
:1055B80083030022DA755946204603F0F5FBEEE72F
:1055C80049462046FFF71CFBA0E77B6823F0010350
:1055D8007B6094F8CC34012B08D0204603F0D8FB2C
:1055E8002268536903F0004353618DE6002184F873
:1055F800CC14204600F059F9F2E7204603F0B0FB3E
:105608008DE67B6823F001037B601021206802F09F
:1056180027FE1AE005EB46134FF67F31C3F8081949
:10562800D3F8002922F40012C3F80029C3F8081B94
:10563800D3F8002B22F40012C3F8002BD3F8002B68
:1056480042F00062C3F8002B01362379B342E1D857
:10565800FB6943F00113FB61E37BDBB1D7F88430CE
:1056680043F00B03C7F884307B6C43F00B037B6477
:10567800D5F8003823F4FE63C5F8003804F29C42DC
:10568800A179206803F08AFA2268536903F48053E9
:10569800536150E67B6943F4005343F02B037B616D
:1056A8003B6943F00B033B61E2E7206803F068FACB
:1056B800206802F0F1FEE071266800F011FC014656
:1056C800E279304602F04EFD204603F034FB2268B2
:1056D800536903F40053536134E6204603F025FB75
:1056E8002268536903F00803536132E601362379CF
:1056F800B3420CD906EBC60304EB830393F8573285
:10570800012BF3D1F1B22046FFF791FDEEE72068B7
:1057180003F0D2F910F4801F25D1206803F0CCF9EA
:1057280010F4001F58D0012326E001362379B34234
:105738001BD905EB4613D3F8002906EBC60304EB87
:1057480083031B7E012BF0D1002AEEDA06EBC60399
:1057580004EB83030122DA7566F07F01C9B22046A3
:10576800FFF765FDE1E70126E0E72268536903F4E6
:1057780080135361D1E7013322799A4227D905EB87
:105788004312D2F8001B03EBC30204EB820292F827
:105798005822012AEFD10029EDDAD4F8D42482EA7C
:1057A800114212F0010FE6D103EBC30204EB8202AF
:1057B800012182F85712AA6942F08002AA616A6937
:1057C80012F0800FD7D17B6843F400737B602268A6
:1057D800536903F400135361206803F06DF910F066
:1057E800804F10D1206803F067F910F0040F3FF4E0
:1057F80041AD23685D6815F0040F0DD12268536828
:105808002B43536036E5204603F0D4FA22685369E7
:1058180003F080435361E5E7204603F0D1FAEDE752
:1058280090F89434012B14D010B50446012380F865
:10583800943411F0800F06D1006802F036FD002084
:1058480084F8940410BD01F00F01006802F008FD0F
:10585800F5E70220704710B40468606A31B940EA7D
:105868000240A06200205DF8044B70478C46A36A92
:1058780000EB1340002308E003F1400104EB810131
:10588800496800EB11400133DBB20CF1FF318B4268
:10589800F2D340EA02400CF13F0104EB810460605E
:1058A800E0E703685962002070477047002800F05D
:1058B800E08170B582B00446036813F0010F3BD055
:1058C8009F4B9B6803F00C03042B2CD09C4B9B68CC
:1058D80003F00C03082B21D06368B3F5803F4FD049
:1058E800B3F5A02F52D0964B1A6822F480321A6072
:1058F8001A6822F480221A606368002B50D0FDF7E2
:105908006BFA05468E4B1B6813F4003F14D1FDF764
:1059180063FA401B6428F5D90320B1E1884B5B6822
:1059280013F4800FD8D0864B1B6813F4003F03D0C4
:105938006368002B00F09F81236813F0020F54D096
:105948007F4B9B6813F00C0F3ED07D4B9B6803F098
:105958000C03082B33D0E368002B68D0794B012265
:105968001A60FDF739FA0546754B1B6813F0020FEC
:1059780054D1FDF731FA401B0228F5D903207FE105
:105988006F4A136843F480331360B5E76C4B1A68A9
:1059980042F480221A601A6842F480321A60ABE737
:1059A800FDF71AFA0546664B1B6813F4003FC3D08F
:1059B800FDF712FA401B6428F5D9032060E1604B1B
:1059C8005B6813F4800FC6D15D4B1B6813F0020FA0
:1059D80003D0E368012B40F05081594A136823F043
:1059E800F803216943EAC1031360236813F0080F21
:1059F80042D063696BB3534B0122C3F8802EFDF785
:105A0800EBF905464E4B5B6F13F0020F34D1FDF7EF
:105A1800E3F9401B0228F5D9032031E1484A13680D
:105A280023F0F803216943EAC1031360DDE7454B1E
:105A380000221A60FDF7D0F90546414B1B6813F0A8
:105A4800020FD2D0FDF7C8F9401B0228F5D9032070
:105A580016E13C4B0022C3F8802EFDF7BDF9054640
:105A6800374B5B6F13F0020F06D0FDF7B5F9401BFB
:105A78000228F5D9032003E1236813F0040F77D037
:105A88002F4B1B6C13F0805F33D1002301932C4BF9
:105A98001A6C42F080521A641B6C03F08053019315
:105AA800019B0125284B1B6813F4807F23D0A36832
:105AB800012B34D0052B38D0214B1A6F22F001026C
:105AC8001A671A6F22F004021A67A368002B3DD0E8
